{
	"contracts/BookLibrary.sol": {
		"BookLibrary": {
			"abi": [
				{
					"anonymous": false,
					"inputs": [
						{
							"indexed": false,
							"internalType": "uint256",
							"name": "id",
							"type": "uint256"
						}
					],
					"name": "BookAdded",
					"type": "event"
				},
				{
					"anonymous": false,
					"inputs": [
						{
							"indexed": false,
							"internalType": "uint256",
							"name": "id",
							"type": "uint256"
						},
						{
							"indexed": false,
							"internalType": "address",
							"name": "borrower",
							"type": "address"
						},
						{
							"indexed": false,
							"internalType": "uint256",
							"name": "remaining",
							"type": "uint256"
						}
					],
					"name": "BookBorrowed",
					"type": "event"
				},
				{
					"anonymous": false,
					"inputs": [
						{
							"indexed": false,
							"internalType": "uint256",
							"name": "id",
							"type": "uint256"
						},
						{
							"indexed": false,
							"internalType": "address",
							"name": "borrower",
							"type": "address"
						},
						{
							"indexed": false,
							"internalType": "uint256",
							"name": "remaining",
							"type": "uint256"
						}
					],
					"name": "BookReturned",
					"type": "event"
				},
				{
					"anonymous": false,
					"inputs": [
						{
							"indexed": false,
							"internalType": "uint256",
							"name": "bookId",
							"type": "uint256"
						},
						{
							"indexed": false,
							"internalType": "uint256",
							"name": "previousCopies",
							"type": "uint256"
						},
						{
							"indexed": false,
							"internalType": "uint256",
							"name": "newCopies",
							"type": "uint256"
						}
					],
					"name": "StockUpdated",
					"type": "event"
				},
				{
					"inputs": [
						{
							"internalType": "string",
							"name": "_name",
							"type": "string"
						},
						{
							"internalType": "uint256",
							"name": "_copies",
							"type": "uint256"
						}
					],
					"name": "addBook",
					"outputs": [],
					"stateMutability": "nonpayable",
					"type": "function"
				},
				{
					"inputs": [
						{
							"internalType": "uint256",
							"name": "",
							"type": "uint256"
						}
					],
					"name": "books",
					"outputs": [
						{
							"internalType": "string",
							"name": "name",
							"type": "string"
						},
						{
							"internalType": "bool",
							"name": "inLibrary",
							"type": "bool"
						}
					],
					"stateMutability": "view",
					"type": "function"
				},
				{
					"inputs": [
						{
							"internalType": "uint256",
							"name": "_bookId",
							"type": "uint256"
						}
					],
					"name": "borrowBook",
					"outputs": [],
					"stateMutability": "nonpayable",
					"type": "function"
				},
				{
					"inputs": [
						{
							"internalType": "uint256",
							"name": "",
							"type": "uint256"
						},
						{
							"internalType": "uint256",
							"name": "",
							"type": "uint256"
						}
					],
					"name": "borrowHistory",
					"outputs": [
						{
							"internalType": "address",
							"name": "",
							"type": "address"
						}
					],
					"stateMutability": "view",
					"type": "function"
				},
				{
					"inputs": [],
					"name": "getAvailableBooks",
					"outputs": [
						{
							"components": [
								{
									"internalType": "uint256",
									"name": "bookId",
									"type": "uint256"
								},
								{
									"internalType": "uint256",
									"name": "copies",
									"type": "uint256"
								}
							],
							"internalType": "struct BookLibrary.BookAvailability[]",
							"name": "availability_",
							"type": "tuple[]"
						}
					],
					"stateMutability": "view",
					"type": "function"
				},
				{
					"inputs": [
						{
							"internalType": "uint256",
							"name": "_bookId",
							"type": "uint256"
						}
					],
					"name": "getBorrowHistory",
					"outputs": [
						{
							"internalType": "address[]",
							"name": "",
							"type": "address[]"
						}
					],
					"stateMutability": "view",
					"type": "function"
				},
				{
					"inputs": [],
					"name": "owner",
					"outputs": [
						{
							"internalType": "address",
							"name": "",
							"type": "address"
						}
					],
					"stateMutability": "view",
					"type": "function"
				},
				{
					"inputs": [
						{
							"internalType": "uint256",
							"name": "_bookId",
							"type": "uint256"
						}
					],
					"name": "returnBook",
					"outputs": [],
					"stateMutability": "nonpayable",
					"type": "function"
				},
				{
					"inputs": [
						{
							"internalType": "uint256",
							"name": "_bookId",
							"type": "uint256"
						},
						{
							"internalType": "uint256",
							"name": "_copies",
							"type": "uint256"
						}
					],
					"name": "setAvailableBookCopies",
					"outputs": [],
					"stateMutability": "nonpayable",
					"type": "function"
				},
				{
					"inputs": [
						{
							"internalType": "uint256",
							"name": "",
							"type": "uint256"
						}
					],
					"name": "stockAvailable",
					"outputs": [
						{
							"internalType": "uint256",
							"name": "",
							"type": "uint256"
						}
					],
					"stateMutability": "view",
					"type": "function"
				}
			],
			"devdoc": {
				"kind": "dev",
				"methods": {
					"addBook(string,uint256)": {
						"details": "Add a book to the library.",
						"params": {
							"_copies": "the initial copies of the book",
							"_name": "the book name"
						}
					},
					"borrowBook(uint256)": {
						"details": "Borrow book from library",
						"params": {
							"_bookId": "id of the book to borrowed"
						}
					},
					"getAvailableBooks()": {
						"details": "Gets a list of all books with copies available for borrowing.",
						"returns": {
							"availability_": "array of BookAvailability, only contains books with one or more copies."
						}
					},
					"getBorrowHistory(uint256)": {
						"details": "Returns a list of all the borrowers for a book.",
						"params": {
							"_bookId": "id of the book"
						}
					},
					"returnBook(uint256)": {
						"details": "Return book to library",
						"params": {
							"_bookId": "id of the book to return. Book has to be previously borrowed before returning."
						}
					},
					"setAvailableBookCopies(uint256,uint256)": {
						"details": "Sets the amount of available copies for an existing book in the library.",
						"params": {
							"_bookId": "id of the book",
							"_copies": "new amount of copies. Will replace the existing number of available copies. "
						}
					}
				},
				"version": 1
			},
			"evm": {
				"assembly": "    /* \"contracts/BookLibrary.sol\":86:4095  contract BookLibrary is Ownable {... */\n  mstore(0x40, 0x80)\n  callvalue\n  dup1\n  iszero\n  tag_1\n  jumpi\n  0x00\n  dup1\n  revert\ntag_1:\n  pop\n    /* \"contracts/Ownable.sol\":262:272  msg.sender */\n  caller\n    /* \"contracts/Ownable.sol\":254:259  owner */\n  0x00\n  dup1\n    /* \"contracts/Ownable.sol\":254:272  owner = msg.sender */\n  0x0100\n  exp\n  dup2\n  sload\n  dup2\n  0xffffffffffffffffffffffffffffffffffffffff\n  mul\n  not\n  and\n  swap1\n  dup4\n  0xffffffffffffffffffffffffffffffffffffffff\n  and\n  mul\n  or\n  swap1\n  sstore\n  pop\n    /* \"contracts/BookLibrary.sol\":86:4095  contract BookLibrary is Ownable {... */\n  dataSize(sub_0)\n  dup1\n  dataOffset(sub_0)\n  0x00\n  codecopy\n  0x00\n  return\nstop\n\nsub_0: assembly {\n        /* \"contracts/BookLibrary.sol\":86:4095  contract BookLibrary is Ownable {... */\n      mstore(0x40, 0x80)\n      callvalue\n      dup1\n      iszero\n      tag_1\n      jumpi\n      0x00\n      dup1\n      revert\n    tag_1:\n      pop\n      jumpi(tag_2, lt(calldatasize, 0x04))\n      shr(0xe0, calldataload(0x00))\n      dup1\n      0xa1e3c28e\n      gt\n      tag_13\n      jumpi\n      dup1\n      0xa1e3c28e\n      eq\n      tag_8\n      jumpi\n      dup1\n      0xa78de6e8\n      eq\n      tag_9\n      jumpi\n      dup1\n      0xca5140c9\n      eq\n      tag_10\n      jumpi\n      dup1\n      0xd6c084d9\n      eq\n      tag_11\n      jumpi\n      dup1\n      0xe1b4814f\n      eq\n      tag_12\n      jumpi\n      jump(tag_2)\n    tag_13:\n      dup1\n      0x42cb7580\n      eq\n      tag_3\n      jumpi\n      dup1\n      0x637a3872\n      eq\n      tag_4\n      jumpi\n      dup1\n      0x68744046\n      eq\n      tag_5\n      jumpi\n      dup1\n      0x7e490a9e\n      eq\n      tag_6\n      jumpi\n      dup1\n      0x8da5cb5b\n      eq\n      tag_7\n      jumpi\n    tag_2:\n      0x00\n      dup1\n      revert\n        /* \"contracts/BookLibrary.sol\":555:603  mapping (uint => address[]) public borrowHistory */\n    tag_3:\n      tag_14\n      0x04\n      dup1\n      calldatasize\n      sub\n      dup2\n      add\n      swap1\n      tag_15\n      swap2\n      swap1\n      tag_16\n      jump\t// in\n    tag_15:\n      tag_17\n      jump\t// in\n    tag_14:\n      mload(0x40)\n      tag_18\n      swap2\n      swap1\n      tag_19\n      jump\t// in\n    tag_18:\n      mload(0x40)\n      dup1\n      swap2\n      sub\n      swap1\n      return\n        /* \"contracts/BookLibrary.sol\":3054:3294  function addBook(string memory _name, uint _copies) external onlyOwner {... */\n    tag_4:\n      tag_20\n      0x04\n      dup1\n      calldatasize\n      sub\n      dup2\n      add\n      swap1\n      tag_21\n      swap2\n      swap1\n      tag_22\n      jump\t// in\n    tag_21:\n      tag_23\n      jump\t// in\n    tag_20:\n      stop\n        /* \"contracts/BookLibrary.sol\":471:490  Book[] public books */\n    tag_5:\n      tag_24\n      0x04\n      dup1\n      calldatasize\n      sub\n      dup2\n      add\n      swap1\n      tag_25\n      swap2\n      swap1\n      tag_26\n      jump\t// in\n    tag_25:\n      tag_27\n      jump\t// in\n    tag_24:\n      mload(0x40)\n      tag_28\n      swap3\n      swap2\n      swap1\n      tag_29\n      jump\t// in\n    tag_28:\n      mload(0x40)\n      dup1\n      swap2\n      sub\n      swap1\n      return\n        /* \"contracts/BookLibrary.sol\":1036:1514  function borrowBook(uint _bookId) external {... */\n    tag_6:\n      tag_30\n      0x04\n      dup1\n      calldatasize\n      sub\n      dup2\n      add\n      swap1\n      tag_31\n      swap2\n      swap1\n      tag_26\n      jump\t// in\n    tag_31:\n      tag_32\n      jump\t// in\n    tag_30:\n      stop\n        /* \"contracts/Ownable.sol\":84:104  address public owner */\n    tag_7:\n      tag_33\n      tag_34\n      jump\t// in\n    tag_33:\n      mload(0x40)\n      tag_35\n      swap2\n      swap1\n      tag_19\n      jump\t// in\n    tag_35:\n      mload(0x40)\n      dup1\n      swap2\n      sub\n      swap1\n      return\n        /* \"contracts/BookLibrary.sol\":419:463  mapping (uint => uint) public stockAvailable */\n    tag_8:\n      tag_36\n      0x04\n      dup1\n      calldatasize\n      sub\n      dup2\n      add\n      swap1\n      tag_37\n      swap2\n      swap1\n      tag_26\n      jump\t// in\n    tag_37:\n      tag_38\n      jump\t// in\n    tag_36:\n      mload(0x40)\n      tag_39\n      swap2\n      swap1\n      tag_40\n      jump\t// in\n    tag_39:\n      mload(0x40)\n      dup1\n      swap2\n      sub\n      swap1\n      return\n        /* \"contracts/BookLibrary.sol\":3782:4093  function setAvailableBookCopies(uint _bookId, uint _copies) public onlyOwner {... */\n    tag_9:\n      tag_41\n      0x04\n      dup1\n      calldatasize\n      sub\n      dup2\n      add\n      swap1\n      tag_42\n      swap2\n      swap1\n      tag_16\n      jump\t// in\n    tag_42:\n      tag_43\n      jump\t// in\n    tag_41:\n      stop\n        /* \"contracts/BookLibrary.sol\":1672:2002  function returnBook(uint _bookId) external {... */\n    tag_10:\n      tag_44\n      0x04\n      dup1\n      calldatasize\n      sub\n      dup2\n      add\n      swap1\n      tag_45\n      swap2\n      swap1\n      tag_26\n      jump\t// in\n    tag_45:\n      tag_46\n      jump\t// in\n    tag_44:\n      stop\n        /* \"contracts/BookLibrary.sol\":2278:2906  function getAvailableBooks() external view returns(BookAvailability[] memory availability_) {... */\n    tag_11:\n      tag_47\n      tag_48\n      jump\t// in\n    tag_47:\n      mload(0x40)\n      tag_49\n      swap2\n      swap1\n      tag_50\n      jump\t// in\n    tag_49:\n      mload(0x40)\n      dup1\n      swap2\n      sub\n      swap1\n      return\n        /* \"contracts/BookLibrary.sol\":3413:3539  function getBorrowHistory(uint _bookId) external view returns(address[] memory) {... */\n    tag_12:\n      tag_51\n      0x04\n      dup1\n      calldatasize\n      sub\n      dup2\n      add\n      swap1\n      tag_52\n      swap2\n      swap1\n      tag_26\n      jump\t// in\n    tag_52:\n      tag_53\n      jump\t// in\n    tag_51:\n      mload(0x40)\n      tag_54\n      swap2\n      swap1\n      tag_55\n      jump\t// in\n    tag_54:\n      mload(0x40)\n      dup1\n      swap2\n      sub\n      swap1\n      return\n        /* \"contracts/BookLibrary.sol\":555:603  mapping (uint => address[]) public borrowHistory */\n    tag_17:\n      mstore(0x20, 0x04)\n      dup2\n      0x00\n      mstore\n      keccak256(0x00, 0x40)\n      dup2\n      dup2\n      sload\n      dup2\n      lt\n      tag_56\n      jumpi\n      0x00\n      dup1\n      revert\n    tag_56:\n      swap1\n      0x00\n      mstore\n      keccak256(0x00, 0x20)\n      add\n      0x00\n      swap2\n      pop\n      swap2\n      pop\n      swap1\n      sload\n      swap1\n      0x0100\n      exp\n      swap1\n      div\n      0xffffffffffffffffffffffffffffffffffffffff\n      and\n      dup2\n      jump\t// out\n        /* \"contracts/BookLibrary.sol\":3054:3294  function addBook(string memory _name, uint _copies) external onlyOwner {... */\n    tag_23:\n        /* \"contracts/Ownable.sol\":163:173  msg.sender */\n      caller\n        /* \"contracts/Ownable.sol\":154:173  owner == msg.sender */\n      0xffffffffffffffffffffffffffffffffffffffff\n      and\n        /* \"contracts/Ownable.sol\":154:159  owner */\n      0x00\n      dup1\n      sload\n      swap1\n      0x0100\n      exp\n      swap1\n      div\n      0xffffffffffffffffffffffffffffffffffffffff\n      and\n        /* \"contracts/Ownable.sol\":154:173  owner == msg.sender */\n      0xffffffffffffffffffffffffffffffffffffffff\n      and\n      eq\n        /* \"contracts/Ownable.sol\":146:202  require(owner == msg.sender, \"Not invoked by the owner\") */\n      tag_59\n      jumpi\n      mload(0x40)\n      0x08c379a000000000000000000000000000000000000000000000000000000000\n      dup2\n      mstore\n      0x04\n      add\n      tag_60\n      swap1\n      tag_61\n      jump\t// in\n    tag_60:\n      mload(0x40)\n      dup1\n      swap2\n      sub\n      swap1\n      revert\n    tag_59:\n        /* \"contracts/BookLibrary.sol\":3135:3140  books */\n      0x03\n        /* \"contracts/BookLibrary.sol\":3146:3163  Book(_name, true) */\n      mload(0x40)\n      dup1\n      0x40\n      add\n      0x40\n      mstore\n      dup1\n        /* \"contracts/BookLibrary.sol\":3151:3156  _name */\n      dup5\n        /* \"contracts/BookLibrary.sol\":3146:3163  Book(_name, true) */\n      dup2\n      mstore\n      0x20\n      add\n        /* \"contracts/BookLibrary.sol\":3158:3162  true */\n      0x01\n        /* \"contracts/BookLibrary.sol\":3146:3163  Book(_name, true) */\n      iszero\n      iszero\n      dup2\n      mstore\n      pop\n        /* \"contracts/BookLibrary.sol\":3135:3164  books.push(Book(_name, true)) */\n      swap1\n      dup1\n      0x01\n      dup2\n      sload\n      add\n      dup1\n      dup3\n      sstore\n      dup1\n      swap2\n      pop\n      pop\n      0x01\n      swap1\n      sub\n      swap1\n      0x00\n      mstore\n      keccak256(0x00, 0x20)\n      swap1\n      0x02\n      mul\n      add\n      0x00\n      swap1\n      swap2\n      swap1\n      swap2\n      swap1\n      swap2\n      pop\n      0x00\n      dup3\n      add\n      mload\n      dup2\n      0x00\n      add\n      swap1\n      dup1\n      mload\n      swap1\n      0x20\n      add\n      swap1\n      tag_64\n      swap3\n      swap2\n      swap1\n      tag_65\n      jump\t// in\n    tag_64:\n      pop\n      0x20\n      dup3\n      add\n      mload\n      dup2\n      0x01\n      add\n      exp(0x0100, 0x00)\n      dup2\n      sload\n      dup2\n      0xff\n      mul\n      not\n      and\n      swap1\n      dup4\n      iszero\n      iszero\n      mul\n      or\n      swap1\n      sstore\n      pop\n      pop\n      pop\n        /* \"contracts/BookLibrary.sol\":3174:3185  uint bookId */\n      0x00\n        /* \"contracts/BookLibrary.sol\":3203:3204  1 */\n      0x01\n        /* \"contracts/BookLibrary.sol\":3188:3193  books */\n      0x03\n        /* \"contracts/BookLibrary.sol\":3188:3200  books.length */\n      dup1\n      sload\n      swap1\n      pop\n        /* \"contracts/BookLibrary.sol\":3188:3204  books.length - 1 */\n      tag_66\n      swap2\n      swap1\n      tag_67\n      jump\t// in\n    tag_66:\n        /* \"contracts/BookLibrary.sol\":3174:3204  uint bookId = books.length - 1 */\n      swap1\n      pop\n        /* \"contracts/BookLibrary.sol\":3220:3237  BookAdded(bookId) */\n      0xf28b4f7e52e9859ee83d34999feac48c8198ba0fc5b0d867ae01064191e7484c\n        /* \"contracts/BookLibrary.sol\":3230:3236  bookId */\n      dup2\n        /* \"contracts/BookLibrary.sol\":3220:3237  BookAdded(bookId) */\n      mload(0x40)\n      tag_68\n      swap2\n      swap1\n      tag_40\n      jump\t// in\n    tag_68:\n      mload(0x40)\n      dup1\n      swap2\n      sub\n      swap1\n      log1\n        /* \"contracts/BookLibrary.sol\":3248:3287  setAvailableBookCopies(bookId, _copies) */\n      tag_69\n        /* \"contracts/BookLibrary.sol\":3271:3277  bookId */\n      dup2\n        /* \"contracts/BookLibrary.sol\":3279:3286  _copies */\n      dup4\n        /* \"contracts/BookLibrary.sol\":3248:3270  setAvailableBookCopies */\n      tag_43\n        /* \"contracts/BookLibrary.sol\":3248:3287  setAvailableBookCopies(bookId, _copies) */\n      jump\t// in\n    tag_69:\n        /* \"contracts/BookLibrary.sol\":3125:3294  {... */\n      pop\n        /* \"contracts/BookLibrary.sol\":3054:3294  function addBook(string memory _name, uint _copies) external onlyOwner {... */\n      pop\n      pop\n      jump\t// out\n        /* \"contracts/BookLibrary.sol\":471:490  Book[] public books */\n    tag_27:\n      0x03\n      dup2\n      dup2\n      sload\n      dup2\n      lt\n      tag_70\n      jumpi\n      0x00\n      dup1\n      revert\n    tag_70:\n      swap1\n      0x00\n      mstore\n      keccak256(0x00, 0x20)\n      swap1\n      0x02\n      mul\n      add\n      0x00\n      swap2\n      pop\n      swap1\n      pop\n      dup1\n      0x00\n      add\n      dup1\n      sload\n      tag_72\n      swap1\n      tag_73\n      jump\t// in\n    tag_72:\n      dup1\n      0x1f\n      add\n      0x20\n      dup1\n      swap2\n      div\n      mul\n      0x20\n      add\n      mload(0x40)\n      swap1\n      dup2\n      add\n      0x40\n      mstore\n      dup1\n      swap3\n      swap2\n      swap1\n      dup2\n      dup2\n      mstore\n      0x20\n      add\n      dup3\n      dup1\n      sload\n      tag_74\n      swap1\n      tag_73\n      jump\t// in\n    tag_74:\n      dup1\n      iszero\n      tag_75\n      jumpi\n      dup1\n      0x1f\n      lt\n      tag_76\n      jumpi\n      0x0100\n      dup1\n      dup4\n      sload\n      div\n      mul\n      dup4\n      mstore\n      swap2\n      0x20\n      add\n      swap2\n      jump(tag_75)\n    tag_76:\n      dup3\n      add\n      swap2\n      swap1\n      0x00\n      mstore\n      keccak256(0x00, 0x20)\n      swap1\n    tag_77:\n      dup2\n      sload\n      dup2\n      mstore\n      swap1\n      0x01\n      add\n      swap1\n      0x20\n      add\n      dup1\n      dup4\n      gt\n      tag_77\n      jumpi\n      dup3\n      swap1\n      sub\n      0x1f\n      and\n      dup3\n      add\n      swap2\n    tag_75:\n      pop\n      pop\n      pop\n      pop\n      pop\n      swap1\n      dup1\n      0x01\n      add\n      0x00\n      swap1\n      sload\n      swap1\n      0x0100\n      exp\n      swap1\n      div\n      0xff\n      and\n      swap1\n      pop\n      dup3\n      jump\t// out\n        /* \"contracts/BookLibrary.sol\":1036:1514  function borrowBook(uint _bookId) external {... */\n    tag_32:\n        /* \"contracts/BookLibrary.sol\":1089:1105  address borrower */\n      0x00\n        /* \"contracts/BookLibrary.sol\":1108:1118  msg.sender */\n      caller\n        /* \"contracts/BookLibrary.sol\":1089:1118  address borrower = msg.sender */\n      swap1\n      pop\n        /* \"contracts/BookLibrary.sol\":1137:1150  booksBorrowed */\n      0x01\n        /* \"contracts/BookLibrary.sol\":1137:1159  booksBorrowed[_bookId] */\n      0x00\n        /* \"contracts/BookLibrary.sol\":1151:1158  _bookId */\n      dup4\n        /* \"contracts/BookLibrary.sol\":1137:1159  booksBorrowed[_bookId] */\n      dup2\n      mstore\n      0x20\n      add\n      swap1\n      dup2\n      mstore\n      0x20\n      add\n      0x00\n      keccak256\n        /* \"contracts/BookLibrary.sol\":1137:1169  booksBorrowed[_bookId][borrower] */\n      0x00\n        /* \"contracts/BookLibrary.sol\":1160:1168  borrower */\n      dup3\n        /* \"contracts/BookLibrary.sol\":1137:1169  booksBorrowed[_bookId][borrower] */\n      0xffffffffffffffffffffffffffffffffffffffff\n      and\n      0xffffffffffffffffffffffffffffffffffffffff\n      and\n      dup2\n      mstore\n      0x20\n      add\n      swap1\n      dup2\n      mstore\n      0x20\n      add\n      0x00\n      keccak256\n      0x00\n      swap1\n      sload\n      swap1\n      0x0100\n      exp\n      swap1\n      div\n      0xff\n      and\n        /* \"contracts/BookLibrary.sol\":1136:1169  !booksBorrowed[_bookId][borrower] */\n      iszero\n        /* \"contracts/BookLibrary.sol\":1128:1205  require(!booksBorrowed[_bookId][borrower], \"User already borrowed this book\") */\n      tag_79\n      jumpi\n      mload(0x40)\n      0x08c379a000000000000000000000000000000000000000000000000000000000\n      dup2\n      mstore\n      0x04\n      add\n      tag_80\n      swap1\n      tag_81\n      jump\t// in\n    tag_80:\n      mload(0x40)\n      dup1\n      swap2\n      sub\n      swap1\n      revert\n    tag_79:\n        /* \"contracts/BookLibrary.sol\":1250:1251  0 */\n      0x00\n        /* \"contracts/BookLibrary.sol\":1224:1238  stockAvailable */\n      0x02\n        /* \"contracts/BookLibrary.sol\":1224:1247  stockAvailable[_bookId] */\n      0x00\n        /* \"contracts/BookLibrary.sol\":1239:1246  _bookId */\n      dup5\n        /* \"contracts/BookLibrary.sol\":1224:1247  stockAvailable[_bookId] */\n      dup2\n      mstore\n      0x20\n      add\n      swap1\n      dup2\n      mstore\n      0x20\n      add\n      0x00\n      keccak256\n      sload\n        /* \"contracts/BookLibrary.sol\":1224:1251  stockAvailable[_bookId] > 0 */\n      gt\n        /* \"contracts/BookLibrary.sol\":1216:1280  require(stockAvailable[_bookId] > 0, \"No book copies available\") */\n      tag_82\n      jumpi\n      mload(0x40)\n      0x08c379a000000000000000000000000000000000000000000000000000000000\n      dup2\n      mstore\n      0x04\n      add\n      tag_83\n      swap1\n      tag_84\n      jump\t// in\n    tag_83:\n      mload(0x40)\n      dup1\n      swap2\n      sub\n      swap1\n      revert\n    tag_82:\n        /* \"contracts/BookLibrary.sol\":1349:1353  true */\n      0x01\n        /* \"contracts/BookLibrary.sol\":1314:1327  booksBorrowed */\n      dup1\n        /* \"contracts/BookLibrary.sol\":1314:1336  booksBorrowed[_bookId] */\n      0x00\n        /* \"contracts/BookLibrary.sol\":1328:1335  _bookId */\n      dup5\n        /* \"contracts/BookLibrary.sol\":1314:1336  booksBorrowed[_bookId] */\n      dup2\n      mstore\n      0x20\n      add\n      swap1\n      dup2\n      mstore\n      0x20\n      add\n      0x00\n      keccak256\n        /* \"contracts/BookLibrary.sol\":1314:1346  booksBorrowed[_bookId][borrower] */\n      0x00\n        /* \"contracts/BookLibrary.sol\":1337:1345  borrower */\n      dup4\n        /* \"contracts/BookLibrary.sol\":1314:1346  booksBorrowed[_bookId][borrower] */\n      0xffffffffffffffffffffffffffffffffffffffff\n      and\n      0xffffffffffffffffffffffffffffffffffffffff\n      and\n      dup2\n      mstore\n      0x20\n      add\n      swap1\n      dup2\n      mstore\n      0x20\n      add\n      0x00\n      keccak256\n      0x00\n        /* \"contracts/BookLibrary.sol\":1314:1353  booksBorrowed[_bookId][borrower] = true */\n      0x0100\n      exp\n      dup2\n      sload\n      dup2\n      0xff\n      mul\n      not\n      and\n      swap1\n      dup4\n      iszero\n      iszero\n      mul\n      or\n      swap1\n      sstore\n      pop\n        /* \"contracts/BookLibrary.sol\":1363:1376  borrowHistory */\n      0x04\n        /* \"contracts/BookLibrary.sol\":1363:1385  borrowHistory[_bookId] */\n      0x00\n        /* \"contracts/BookLibrary.sol\":1377:1384  _bookId */\n      dup4\n        /* \"contracts/BookLibrary.sol\":1363:1385  borrowHistory[_bookId] */\n      dup2\n      mstore\n      0x20\n      add\n      swap1\n      dup2\n      mstore\n      0x20\n      add\n      0x00\n      keccak256\n        /* \"contracts/BookLibrary.sol\":1391:1399  borrower */\n      dup2\n        /* \"contracts/BookLibrary.sol\":1363:1400  borrowHistory[_bookId].push(borrower) */\n      swap1\n      dup1\n      0x01\n      dup2\n      sload\n      add\n      dup1\n      dup3\n      sstore\n      dup1\n      swap2\n      pop\n      pop\n      0x01\n      swap1\n      sub\n      swap1\n      0x00\n      mstore\n      keccak256(0x00, 0x20)\n      add\n      0x00\n      swap1\n      swap2\n      swap1\n      swap2\n      swap1\n      swap2\n      0x0100\n      exp\n      dup2\n      sload\n      dup2\n      0xffffffffffffffffffffffffffffffffffffffff\n      mul\n      not\n      and\n      swap1\n      dup4\n      0xffffffffffffffffffffffffffffffffffffffff\n      and\n      mul\n      or\n      swap1\n      sstore\n      pop\n        /* \"contracts/BookLibrary.sol\":1410:1424  stockAvailable */\n      0x02\n        /* \"contracts/BookLibrary.sol\":1410:1433  stockAvailable[_bookId] */\n      0x00\n        /* \"contracts/BookLibrary.sol\":1425:1432  _bookId */\n      dup4\n        /* \"contracts/BookLibrary.sol\":1410:1433  stockAvailable[_bookId] */\n      dup2\n      mstore\n      0x20\n      add\n      swap1\n      dup2\n      mstore\n      0x20\n      add\n      0x00\n      keccak256\n      0x00\n        /* \"contracts/BookLibrary.sol\":1410:1435  stockAvailable[_bookId]-- */\n      dup2\n      sload\n      dup1\n      swap3\n      swap2\n      swap1\n      tag_86\n      swap1\n      tag_87\n      jump\t// in\n    tag_86:\n      swap2\n      swap1\n      pop\n      sstore\n      pop\n        /* \"contracts/BookLibrary.sol\":1451:1507  BookBorrowed(_bookId, borrower, stockAvailable[_bookId]) */\n      0xbb2c37eab45367d500c425b7a28430e8f309d8b3905fd5a2942e5179f5737db9\n        /* \"contracts/BookLibrary.sol\":1464:1471  _bookId */\n      dup3\n        /* \"contracts/BookLibrary.sol\":1473:1481  borrower */\n      dup3\n        /* \"contracts/BookLibrary.sol\":1483:1497  stockAvailable */\n      0x02\n        /* \"contracts/BookLibrary.sol\":1483:1506  stockAvailable[_bookId] */\n      0x00\n        /* \"contracts/BookLibrary.sol\":1498:1505  _bookId */\n      dup7\n        /* \"contracts/BookLibrary.sol\":1483:1506  stockAvailable[_bookId] */\n      dup2\n      mstore\n      0x20\n      add\n      swap1\n      dup2\n      mstore\n      0x20\n      add\n      0x00\n      keccak256\n      sload\n        /* \"contracts/BookLibrary.sol\":1451:1507  BookBorrowed(_bookId, borrower, stockAvailable[_bookId]) */\n      mload(0x40)\n      tag_88\n      swap4\n      swap3\n      swap2\n      swap1\n      tag_89\n      jump\t// in\n    tag_88:\n      mload(0x40)\n      dup1\n      swap2\n      sub\n      swap1\n      log1\n        /* \"contracts/BookLibrary.sol\":1079:1514  {... */\n      pop\n        /* \"contracts/BookLibrary.sol\":1036:1514  function borrowBook(uint _bookId) external {... */\n      pop\n      jump\t// out\n        /* \"contracts/Ownable.sol\":84:104  address public owner */\n    tag_34:\n      0x00\n      dup1\n      sload\n      swap1\n      0x0100\n      exp\n      swap1\n      div\n      0xffffffffffffffffffffffffffffffffffffffff\n      and\n      dup2\n      jump\t// out\n        /* \"contracts/BookLibrary.sol\":419:463  mapping (uint => uint) public stockAvailable */\n    tag_38:\n      mstore(0x20, 0x02)\n      dup1\n      0x00\n      mstore\n      keccak256(0x00, 0x40)\n      0x00\n      swap2\n      pop\n      swap1\n      pop\n      sload\n      dup2\n      jump\t// out\n        /* \"contracts/BookLibrary.sol\":3782:4093  function setAvailableBookCopies(uint _bookId, uint _copies) public onlyOwner {... */\n    tag_43:\n        /* \"contracts/Ownable.sol\":163:173  msg.sender */\n      caller\n        /* \"contracts/Ownable.sol\":154:173  owner == msg.sender */\n      0xffffffffffffffffffffffffffffffffffffffff\n      and\n        /* \"contracts/Ownable.sol\":154:159  owner */\n      0x00\n      dup1\n      sload\n      swap1\n      0x0100\n      exp\n      swap1\n      div\n      0xffffffffffffffffffffffffffffffffffffffff\n      and\n        /* \"contracts/Ownable.sol\":154:173  owner == msg.sender */\n      0xffffffffffffffffffffffffffffffffffffffff\n      and\n      eq\n        /* \"contracts/Ownable.sol\":146:202  require(owner == msg.sender, \"Not invoked by the owner\") */\n      tag_91\n      jumpi\n      mload(0x40)\n      0x08c379a000000000000000000000000000000000000000000000000000000000\n      dup2\n      mstore\n      0x04\n      add\n      tag_92\n      swap1\n      tag_61\n      jump\t// in\n    tag_92:\n      mload(0x40)\n      dup1\n      swap2\n      sub\n      swap1\n      revert\n    tag_91:\n        /* \"contracts/BookLibrary.sol\":3877:3882  books */\n      0x03\n        /* \"contracts/BookLibrary.sol\":3883:3890  _bookId */\n      dup3\n        /* \"contracts/BookLibrary.sol\":3877:3891  books[_bookId] */\n      dup2\n      sload\n      dup2\n      lt\n      tag_94\n      jumpi\n      tag_95\n      tag_96\n      jump\t// in\n    tag_95:\n    tag_94:\n      swap1\n      0x00\n      mstore\n      keccak256(0x00, 0x20)\n      swap1\n      0x02\n      mul\n      add\n        /* \"contracts/BookLibrary.sol\":3877:3901  books[_bookId].inLibrary */\n      0x01\n      add\n      0x00\n      swap1\n      sload\n      swap1\n      0x0100\n      exp\n      swap1\n      div\n      0xff\n      and\n        /* \"contracts/BookLibrary.sol\":3869:3925  require(books[_bookId].inLibrary, \"Book not in library\") */\n      tag_98\n      jumpi\n      mload(0x40)\n      0x08c379a000000000000000000000000000000000000000000000000000000000\n      dup2\n      mstore\n      0x04\n      add\n      tag_99\n      swap1\n      tag_100\n      jump\t// in\n    tag_99:\n      mload(0x40)\n      dup1\n      swap2\n      sub\n      swap1\n      revert\n    tag_98:\n        /* \"contracts/BookLibrary.sol\":3936:3955  uint previousCopies */\n      0x00\n        /* \"contracts/BookLibrary.sol\":3958:3972  stockAvailable */\n      0x02\n        /* \"contracts/BookLibrary.sol\":3958:3981  stockAvailable[_bookId] */\n      0x00\n        /* \"contracts/BookLibrary.sol\":3973:3980  _bookId */\n      dup5\n        /* \"contracts/BookLibrary.sol\":3958:3981  stockAvailable[_bookId] */\n      dup2\n      mstore\n      0x20\n      add\n      swap1\n      dup2\n      mstore\n      0x20\n      add\n      0x00\n      keccak256\n      sload\n        /* \"contracts/BookLibrary.sol\":3936:3981  uint previousCopies = stockAvailable[_bookId] */\n      swap1\n      pop\n        /* \"contracts/BookLibrary.sol\":4017:4024  _copies */\n      dup2\n        /* \"contracts/BookLibrary.sol\":3991:4005  stockAvailable */\n      0x02\n        /* \"contracts/BookLibrary.sol\":3991:4014  stockAvailable[_bookId] */\n      0x00\n        /* \"contracts/BookLibrary.sol\":4006:4013  _bookId */\n      dup6\n        /* \"contracts/BookLibrary.sol\":3991:4014  stockAvailable[_bookId] */\n      dup2\n      mstore\n      0x20\n      add\n      swap1\n      dup2\n      mstore\n      0x20\n      add\n      0x00\n      keccak256\n        /* \"contracts/BookLibrary.sol\":3991:4024  stockAvailable[_bookId] = _copies */\n      dup2\n      swap1\n      sstore\n      pop\n        /* \"contracts/BookLibrary.sol\":4040:4086  StockUpdated(_bookId, previousCopies, _copies) */\n      0x367b4674c3f33d01759accec115296aa4040b06aa011f14b813546486c85ae30\n        /* \"contracts/BookLibrary.sol\":4053:4060  _bookId */\n      dup4\n        /* \"contracts/BookLibrary.sol\":4062:4076  previousCopies */\n      dup3\n        /* \"contracts/BookLibrary.sol\":4078:4085  _copies */\n      dup5\n        /* \"contracts/BookLibrary.sol\":4040:4086  StockUpdated(_bookId, previousCopies, _copies) */\n      mload(0x40)\n      tag_101\n      swap4\n      swap3\n      swap2\n      swap1\n      tag_102\n      jump\t// in\n    tag_101:\n      mload(0x40)\n      dup1\n      swap2\n      sub\n      swap1\n      log1\n        /* \"contracts/BookLibrary.sol\":3859:4093  {... */\n      pop\n        /* \"contracts/BookLibrary.sol\":3782:4093  function setAvailableBookCopies(uint _bookId, uint _copies) public onlyOwner {... */\n      pop\n      pop\n      jump\t// out\n        /* \"contracts/BookLibrary.sol\":1672:2002  function returnBook(uint _bookId) external {... */\n    tag_46:\n        /* \"contracts/BookLibrary.sol\":1733:1746  booksBorrowed */\n      0x01\n        /* \"contracts/BookLibrary.sol\":1733:1755  booksBorrowed[_bookId] */\n      0x00\n        /* \"contracts/BookLibrary.sol\":1747:1754  _bookId */\n      dup3\n        /* \"contracts/BookLibrary.sol\":1733:1755  booksBorrowed[_bookId] */\n      dup2\n      mstore\n      0x20\n      add\n      swap1\n      dup2\n      mstore\n      0x20\n      add\n      0x00\n      keccak256\n        /* \"contracts/BookLibrary.sol\":1733:1767  booksBorrowed[_bookId][msg.sender] */\n      0x00\n        /* \"contracts/BookLibrary.sol\":1756:1766  msg.sender */\n      caller\n        /* \"contracts/BookLibrary.sol\":1733:1767  booksBorrowed[_bookId][msg.sender] */\n      0xffffffffffffffffffffffffffffffffffffffff\n      and\n      0xffffffffffffffffffffffffffffffffffffffff\n      and\n      dup2\n      mstore\n      0x20\n      add\n      swap1\n      dup2\n      mstore\n      0x20\n      add\n      0x00\n      keccak256\n      0x00\n      swap1\n      sload\n      swap1\n      0x0100\n      exp\n      swap1\n      div\n      0xff\n      and\n        /* \"contracts/BookLibrary.sol\":1725:1803  require(booksBorrowed[_bookId][msg.sender], \"User has not borrowed this book\") */\n      tag_104\n      jumpi\n      mload(0x40)\n      0x08c379a000000000000000000000000000000000000000000000000000000000\n      dup2\n      mstore\n      0x04\n      add\n      tag_105\n      swap1\n      tag_106\n      jump\t// in\n    tag_105:\n      mload(0x40)\n      dup1\n      swap2\n      sub\n      swap1\n      revert\n    tag_104:\n        /* \"contracts/BookLibrary.sol\":1873:1878  false */\n      0x00\n        /* \"contracts/BookLibrary.sol\":1836:1849  booksBorrowed */\n      0x01\n        /* \"contracts/BookLibrary.sol\":1836:1858  booksBorrowed[_bookId] */\n      0x00\n        /* \"contracts/BookLibrary.sol\":1850:1857  _bookId */\n      dup4\n        /* \"contracts/BookLibrary.sol\":1836:1858  booksBorrowed[_bookId] */\n      dup2\n      mstore\n      0x20\n      add\n      swap1\n      dup2\n      mstore\n      0x20\n      add\n      0x00\n      keccak256\n        /* \"contracts/BookLibrary.sol\":1836:1870  booksBorrowed[_bookId][msg.sender] */\n      0x00\n        /* \"contracts/BookLibrary.sol\":1859:1869  msg.sender */\n      caller\n        /* \"contracts/BookLibrary.sol\":1836:1870  booksBorrowed[_bookId][msg.sender] */\n      0xffffffffffffffffffffffffffffffffffffffff\n      and\n      0xffffffffffffffffffffffffffffffffffffffff\n      and\n      dup2\n      mstore\n      0x20\n      add\n      swap1\n      dup2\n      mstore\n      0x20\n      add\n      0x00\n      keccak256\n      0x00\n        /* \"contracts/BookLibrary.sol\":1836:1878  booksBorrowed[_bookId][msg.sender] = false */\n      0x0100\n      exp\n      dup2\n      sload\n      dup2\n      0xff\n      mul\n      not\n      and\n      swap1\n      dup4\n      iszero\n      iszero\n      mul\n      or\n      swap1\n      sstore\n      pop\n        /* \"contracts/BookLibrary.sol\":1888:1902  stockAvailable */\n      0x02\n        /* \"contracts/BookLibrary.sol\":1888:1911  stockAvailable[_bookId] */\n      0x00\n        /* \"contracts/BookLibrary.sol\":1903:1910  _bookId */\n      dup3\n        /* \"contracts/BookLibrary.sol\":1888:1911  stockAvailable[_bookId] */\n      dup2\n      mstore\n      0x20\n      add\n      swap1\n      dup2\n      mstore\n      0x20\n      add\n      0x00\n      keccak256\n      0x00\n        /* \"contracts/BookLibrary.sol\":1888:1913  stockAvailable[_bookId]++ */\n      dup2\n      sload\n      dup1\n      swap3\n      swap2\n      swap1\n      tag_107\n      swap1\n      tag_108\n      jump\t// in\n    tag_107:\n      swap2\n      swap1\n      pop\n      sstore\n      pop\n        /* \"contracts/BookLibrary.sol\":1937:1995  BookReturned(_bookId, msg.sender, stockAvailable[_bookId]) */\n      0x204314827ed2d8c0ad779da943ba655fbfdd6931ec0845ec1932105ba231dc94\n        /* \"contracts/BookLibrary.sol\":1950:1957  _bookId */\n      dup2\n        /* \"contracts/BookLibrary.sol\":1959:1969  msg.sender */\n      caller\n        /* \"contracts/BookLibrary.sol\":1971:1985  stockAvailable */\n      0x02\n        /* \"contracts/BookLibrary.sol\":1971:1994  stockAvailable[_bookId] */\n      0x00\n        /* \"contracts/BookLibrary.sol\":1986:1993  _bookId */\n      dup6\n        /* \"contracts/BookLibrary.sol\":1971:1994  stockAvailable[_bookId] */\n      dup2\n      mstore\n      0x20\n      add\n      swap1\n      dup2\n      mstore\n      0x20\n      add\n      0x00\n      keccak256\n      sload\n        /* \"contracts/BookLibrary.sol\":1937:1995  BookReturned(_bookId, msg.sender, stockAvailable[_bookId]) */\n      mload(0x40)\n      tag_109\n      swap4\n      swap3\n      swap2\n      swap1\n      tag_89\n      jump\t// in\n    tag_109:\n      mload(0x40)\n      dup1\n      swap2\n      sub\n      swap1\n      log1\n        /* \"contracts/BookLibrary.sol\":1672:2002  function returnBook(uint _bookId) external {... */\n      pop\n      jump\t// out\n        /* \"contracts/BookLibrary.sol\":2278:2906  function getAvailableBooks() external view returns(BookAvailability[] memory availability_) {... */\n    tag_48:\n        /* \"contracts/BookLibrary.sol\":2329:2368  BookAvailability[] memory availability_ */\n      0x60\n        /* \"contracts/BookLibrary.sol\":2380:2404  uint totalAvailableBooks */\n      0x00\n        /* \"contracts/BookLibrary.sol\":2423:2429  uint i */\n      dup1\n        /* \"contracts/BookLibrary.sol\":2418:2563  for (uint i = 0; i < books.length; i++) {... */\n    tag_111:\n        /* \"contracts/BookLibrary.sol\":2439:2444  books */\n      0x03\n        /* \"contracts/BookLibrary.sol\":2439:2451  books.length */\n      dup1\n      sload\n      swap1\n      pop\n        /* \"contracts/BookLibrary.sol\":2435:2436  i */\n      dup2\n        /* \"contracts/BookLibrary.sol\":2435:2451  i < books.length */\n      lt\n        /* \"contracts/BookLibrary.sol\":2418:2563  for (uint i = 0; i < books.length; i++) {... */\n      iszero\n      tag_112\n      jumpi\n        /* \"contracts/BookLibrary.sol\":2496:2497  0 */\n      0x00\n        /* \"contracts/BookLibrary.sol\":2476:2490  stockAvailable */\n      0x02\n        /* \"contracts/BookLibrary.sol\":2476:2493  stockAvailable[i] */\n      0x00\n        /* \"contracts/BookLibrary.sol\":2491:2492  i */\n      dup4\n        /* \"contracts/BookLibrary.sol\":2476:2493  stockAvailable[i] */\n      dup2\n      mstore\n      0x20\n      add\n      swap1\n      dup2\n      mstore\n      0x20\n      add\n      0x00\n      keccak256\n      sload\n        /* \"contracts/BookLibrary.sol\":2476:2497  stockAvailable[i] > 0 */\n      gt\n        /* \"contracts/BookLibrary.sol\":2472:2553  if (stockAvailable[i] > 0) {... */\n      iszero\n      tag_114\n      jumpi\n        /* \"contracts/BookLibrary.sol\":2517:2538  totalAvailableBooks++ */\n      dup2\n      dup1\n      tag_115\n      swap1\n      tag_108\n      jump\t// in\n    tag_115:\n      swap3\n      pop\n      pop\n        /* \"contracts/BookLibrary.sol\":2472:2553  if (stockAvailable[i] > 0) {... */\n    tag_114:\n        /* \"contracts/BookLibrary.sol\":2453:2456  i++ */\n      dup1\n      dup1\n      tag_116\n      swap1\n      tag_108\n      jump\t// in\n    tag_116:\n      swap2\n      pop\n      pop\n        /* \"contracts/BookLibrary.sol\":2418:2563  for (uint i = 0; i < books.length; i++) {... */\n      jump(tag_111)\n    tag_112:\n      pop\n        /* \"contracts/BookLibrary.sol\":2573:2605  BookAvailability[] memory result */\n      0x00\n        /* \"contracts/BookLibrary.sol\":2631:2650  totalAvailableBooks */\n      dup2\n        /* \"contracts/BookLibrary.sol\":2608:2651  new BookAvailability[](totalAvailableBooks) */\n      0xffffffffffffffff\n      dup2\n      gt\n      iszero\n      tag_117\n      jumpi\n      tag_118\n      tag_119\n      jump\t// in\n    tag_118:\n    tag_117:\n      mload(0x40)\n      swap1\n      dup1\n      dup3\n      mstore\n      dup1\n      0x20\n      mul\n      0x20\n      add\n      dup3\n      add\n      0x40\n      mstore\n      dup1\n      iszero\n      tag_120\n      jumpi\n      dup2\n      0x20\n      add\n    tag_121:\n      tag_122\n      tag_123\n      jump\t// in\n    tag_122:\n      dup2\n      mstore\n      0x20\n      add\n      swap1\n      0x01\n      swap1\n      sub\n      swap1\n      dup2\n      tag_121\n      jumpi\n      swap1\n      pop\n    tag_120:\n      pop\n        /* \"contracts/BookLibrary.sol\":2573:2651  BookAvailability[] memory result = new BookAvailability[](totalAvailableBooks) */\n      swap1\n      pop\n        /* \"contracts/BookLibrary.sol\":2661:2667  uint j */\n      0x00\n        /* \"contracts/BookLibrary.sol\":2686:2692  uint i */\n      dup1\n        /* \"contracts/BookLibrary.sol\":2681:2876  for (uint i = 0; i < books.length; i++) {... */\n    tag_124:\n        /* \"contracts/BookLibrary.sol\":2702:2707  books */\n      0x03\n        /* \"contracts/BookLibrary.sol\":2702:2714  books.length */\n      dup1\n      sload\n      swap1\n      pop\n        /* \"contracts/BookLibrary.sol\":2698:2699  i */\n      dup2\n        /* \"contracts/BookLibrary.sol\":2698:2714  i < books.length */\n      lt\n        /* \"contracts/BookLibrary.sol\":2681:2876  for (uint i = 0; i < books.length; i++) {... */\n      iszero\n      tag_125\n      jumpi\n        /* \"contracts/BookLibrary.sol\":2759:2760  0 */\n      0x00\n        /* \"contracts/BookLibrary.sol\":2739:2753  stockAvailable */\n      0x02\n        /* \"contracts/BookLibrary.sol\":2739:2756  stockAvailable[i] */\n      0x00\n        /* \"contracts/BookLibrary.sol\":2754:2755  i */\n      dup4\n        /* \"contracts/BookLibrary.sol\":2739:2756  stockAvailable[i] */\n      dup2\n      mstore\n      0x20\n      add\n      swap1\n      dup2\n      mstore\n      0x20\n      add\n      0x00\n      keccak256\n      sload\n        /* \"contracts/BookLibrary.sol\":2739:2760  stockAvailable[i] > 0 */\n      gt\n        /* \"contracts/BookLibrary.sol\":2735:2866  if (stockAvailable[i] > 0) {... */\n      iszero\n      tag_127\n      jumpi\n        /* \"contracts/BookLibrary.sol\":2792:2830  BookAvailability(i, stockAvailable[i]) */\n      mload(0x40)\n      dup1\n      0x40\n      add\n      0x40\n      mstore\n      dup1\n        /* \"contracts/BookLibrary.sol\":2809:2810  i */\n      dup3\n        /* \"contracts/BookLibrary.sol\":2792:2830  BookAvailability(i, stockAvailable[i]) */\n      dup2\n      mstore\n      0x20\n      add\n        /* \"contracts/BookLibrary.sol\":2812:2826  stockAvailable */\n      0x02\n        /* \"contracts/BookLibrary.sol\":2812:2829  stockAvailable[i] */\n      0x00\n        /* \"contracts/BookLibrary.sol\":2827:2828  i */\n      dup5\n        /* \"contracts/BookLibrary.sol\":2812:2829  stockAvailable[i] */\n      dup2\n      mstore\n      0x20\n      add\n      swap1\n      dup2\n      mstore\n      0x20\n      add\n      0x00\n      keccak256\n      sload\n        /* \"contracts/BookLibrary.sol\":2792:2830  BookAvailability(i, stockAvailable[i]) */\n      dup2\n      mstore\n      pop\n        /* \"contracts/BookLibrary.sol\":2780:2786  result */\n      dup4\n        /* \"contracts/BookLibrary.sol\":2787:2788  j */\n      dup4\n        /* \"contracts/BookLibrary.sol\":2780:2789  result[j] */\n      dup2\n      mload\n      dup2\n      lt\n      tag_128\n      jumpi\n      tag_129\n      tag_96\n      jump\t// in\n    tag_129:\n    tag_128:\n      0x20\n      mul\n      0x20\n      add\n      add\n        /* \"contracts/BookLibrary.sol\":2780:2830  result[j] = BookAvailability(i, stockAvailable[i]) */\n      dup2\n      swap1\n      mstore\n      pop\n        /* \"contracts/BookLibrary.sol\":2848:2851  j++ */\n      dup2\n      dup1\n      tag_130\n      swap1\n      tag_108\n      jump\t// in\n    tag_130:\n      swap3\n      pop\n      pop\n        /* \"contracts/BookLibrary.sol\":2735:2866  if (stockAvailable[i] > 0) {... */\n    tag_127:\n        /* \"contracts/BookLibrary.sol\":2716:2719  i++ */\n      dup1\n      dup1\n      tag_131\n      swap1\n      tag_108\n      jump\t// in\n    tag_131:\n      swap2\n      pop\n      pop\n        /* \"contracts/BookLibrary.sol\":2681:2876  for (uint i = 0; i < books.length; i++) {... */\n      jump(tag_124)\n    tag_125:\n      pop\n        /* \"contracts/BookLibrary.sol\":2893:2899  result */\n      dup2\n        /* \"contracts/BookLibrary.sol\":2886:2899  return result */\n      swap4\n      pop\n      pop\n      pop\n      pop\n        /* \"contracts/BookLibrary.sol\":2278:2906  function getAvailableBooks() external view returns(BookAvailability[] memory availability_) {... */\n      swap1\n      jump\t// out\n        /* \"contracts/BookLibrary.sol\":3413:3539  function getBorrowHistory(uint _bookId) external view returns(address[] memory) {... */\n    tag_53:\n        /* \"contracts/BookLibrary.sol\":3475:3491  address[] memory */\n      0x60\n        /* \"contracts/BookLibrary.sol\":3510:3523  borrowHistory */\n      0x04\n        /* \"contracts/BookLibrary.sol\":3510:3532  borrowHistory[_bookId] */\n      0x00\n        /* \"contracts/BookLibrary.sol\":3524:3531  _bookId */\n      dup4\n        /* \"contracts/BookLibrary.sol\":3510:3532  borrowHistory[_bookId] */\n      dup2\n      mstore\n      0x20\n      add\n      swap1\n      dup2\n      mstore\n      0x20\n      add\n      0x00\n      keccak256\n        /* \"contracts/BookLibrary.sol\":3503:3532  return borrowHistory[_bookId] */\n      dup1\n      sload\n      dup1\n      0x20\n      mul\n      0x20\n      add\n      mload(0x40)\n      swap1\n      dup2\n      add\n      0x40\n      mstore\n      dup1\n      swap3\n      swap2\n      swap1\n      dup2\n      dup2\n      mstore\n      0x20\n      add\n      dup3\n      dup1\n      sload\n      dup1\n      iszero\n      tag_133\n      jumpi\n      0x20\n      mul\n      dup3\n      add\n      swap2\n      swap1\n      0x00\n      mstore\n      keccak256(0x00, 0x20)\n      swap1\n    tag_134:\n      dup2\n      0x00\n      swap1\n      sload\n      swap1\n      0x0100\n      exp\n      swap1\n      div\n      0xffffffffffffffffffffffffffffffffffffffff\n      and\n      0xffffffffffffffffffffffffffffffffffffffff\n      and\n      dup2\n      mstore\n      0x20\n      add\n      swap1\n      0x01\n      add\n      swap1\n      dup1\n      dup4\n      gt\n      tag_134\n      jumpi\n    tag_133:\n      pop\n      pop\n      pop\n      pop\n      pop\n      swap1\n      pop\n        /* \"contracts/BookLibrary.sol\":3413:3539  function getBorrowHistory(uint _bookId) external view returns(address[] memory) {... */\n      swap2\n      swap1\n      pop\n      jump\t// out\n    tag_65:\n      dup3\n      dup1\n      sload\n      tag_135\n      swap1\n      tag_73\n      jump\t// in\n    tag_135:\n      swap1\n      0x00\n      mstore\n      keccak256(0x00, 0x20)\n      swap1\n      0x1f\n      add\n      0x20\n      swap1\n      div\n      dup2\n      add\n      swap3\n      dup3\n      tag_137\n      jumpi\n      0x00\n      dup6\n      sstore\n      jump(tag_136)\n    tag_137:\n      dup3\n      0x1f\n      lt\n      tag_138\n      jumpi\n      dup1\n      mload\n      not(0xff)\n      and\n      dup4\n      dup1\n      add\n      or\n      dup6\n      sstore\n      jump(tag_136)\n    tag_138:\n      dup3\n      dup1\n      add\n      0x01\n      add\n      dup6\n      sstore\n      dup3\n      iszero\n      tag_136\n      jumpi\n      swap2\n      dup3\n      add\n    tag_139:\n      dup3\n      dup2\n      gt\n      iszero\n      tag_140\n      jumpi\n      dup3\n      mload\n      dup3\n      sstore\n      swap2\n      0x20\n      add\n      swap2\n      swap1\n      0x01\n      add\n      swap1\n      jump(tag_139)\n    tag_140:\n    tag_136:\n      pop\n      swap1\n      pop\n      tag_141\n      swap2\n      swap1\n      tag_142\n      jump\t// in\n    tag_141:\n      pop\n      swap1\n      jump\t// out\n    tag_123:\n      mload(0x40)\n      dup1\n      0x40\n      add\n      0x40\n      mstore\n      dup1\n      0x00\n      dup2\n      mstore\n      0x20\n      add\n      0x00\n      dup2\n      mstore\n      pop\n      swap1\n      jump\t// out\n    tag_142:\n    tag_143:\n      dup1\n      dup3\n      gt\n      iszero\n      tag_144\n      jumpi\n      0x00\n      dup2\n      0x00\n      swap1\n      sstore\n      pop\n      0x01\n      add\n      jump(tag_143)\n    tag_144:\n      pop\n      swap1\n      jump\t// out\n        /* \"#utility.yul\":7:419   */\n    tag_146:\n        /* \"#utility.yul\":85:90   */\n      0x00\n        /* \"#utility.yul\":110:176   */\n      tag_148\n        /* \"#utility.yul\":126:175   */\n      tag_149\n        /* \"#utility.yul\":168:174   */\n      dup5\n        /* \"#utility.yul\":126:175   */\n      tag_150\n      jump\t// in\n    tag_149:\n        /* \"#utility.yul\":110:176   */\n      tag_151\n      jump\t// in\n    tag_148:\n        /* \"#utility.yul\":101:176   */\n      swap1\n      pop\n        /* \"#utility.yul\":199:205   */\n      dup3\n        /* \"#utility.yul\":192:197   */\n      dup2\n        /* \"#utility.yul\":185:206   */\n      mstore\n        /* \"#utility.yul\":237:241   */\n      0x20\n        /* \"#utility.yul\":230:235   */\n      dup2\n        /* \"#utility.yul\":226:242   */\n      add\n        /* \"#utility.yul\":275:278   */\n      dup5\n        /* \"#utility.yul\":266:272   */\n      dup5\n        /* \"#utility.yul\":261:264   */\n      dup5\n        /* \"#utility.yul\":257:273   */\n      add\n        /* \"#utility.yul\":254:279   */\n      gt\n        /* \"#utility.yul\":251:363   */\n      iszero\n      tag_152\n      jumpi\n        /* \"#utility.yul\":282:361   */\n      tag_153\n      tag_154\n      jump\t// in\n    tag_153:\n        /* \"#utility.yul\":251:363   */\n    tag_152:\n        /* \"#utility.yul\":372:413   */\n      tag_155\n        /* \"#utility.yul\":406:412   */\n      dup5\n        /* \"#utility.yul\":401:404   */\n      dup3\n        /* \"#utility.yul\":396:399   */\n      dup6\n        /* \"#utility.yul\":372:413   */\n      tag_156\n      jump\t// in\n    tag_155:\n        /* \"#utility.yul\":91:419   */\n      pop\n        /* \"#utility.yul\":7:419   */\n      swap4\n      swap3\n      pop\n      pop\n      pop\n      jump\t// out\n        /* \"#utility.yul\":439:779   */\n    tag_157:\n        /* \"#utility.yul\":495:500   */\n      0x00\n        /* \"#utility.yul\":544:547   */\n      dup3\n        /* \"#utility.yul\":537:541   */\n      0x1f\n        /* \"#utility.yul\":529:535   */\n      dup4\n        /* \"#utility.yul\":525:542   */\n      add\n        /* \"#utility.yul\":521:548   */\n      slt\n        /* \"#utility.yul\":511:633   */\n      tag_159\n      jumpi\n        /* \"#utility.yul\":552:631   */\n      tag_160\n      tag_161\n      jump\t// in\n    tag_160:\n        /* \"#utility.yul\":511:633   */\n    tag_159:\n        /* \"#utility.yul\":669:675   */\n      dup2\n        /* \"#utility.yul\":656:676   */\n      calldataload\n        /* \"#utility.yul\":694:773   */\n      tag_162\n        /* \"#utility.yul\":769:772   */\n      dup5\n        /* \"#utility.yul\":761:767   */\n      dup3\n        /* \"#utility.yul\":754:758   */\n      0x20\n        /* \"#utility.yul\":746:752   */\n      dup7\n        /* \"#utility.yul\":742:759   */\n      add\n        /* \"#utility.yul\":694:773   */\n      tag_146\n      jump\t// in\n    tag_162:\n        /* \"#utility.yul\":685:773   */\n      swap2\n      pop\n        /* \"#utility.yul\":501:779   */\n      pop\n        /* \"#utility.yul\":439:779   */\n      swap3\n      swap2\n      pop\n      pop\n      jump\t// out\n        /* \"#utility.yul\":785:924   */\n    tag_163:\n        /* \"#utility.yul\":831:836   */\n      0x00\n        /* \"#utility.yul\":869:875   */\n      dup2\n        /* \"#utility.yul\":856:876   */\n      calldataload\n        /* \"#utility.yul\":847:876   */\n      swap1\n      pop\n        /* \"#utility.yul\":885:918   */\n      tag_165\n        /* \"#utility.yul\":912:917   */\n      dup2\n        /* \"#utility.yul\":885:918   */\n      tag_166\n      jump\t// in\n    tag_165:\n        /* \"#utility.yul\":785:924   */\n      swap3\n      swap2\n      pop\n      pop\n      jump\t// out\n        /* \"#utility.yul\":930:1584   */\n    tag_22:\n        /* \"#utility.yul\":1008:1014   */\n      0x00\n        /* \"#utility.yul\":1016:1022   */\n      dup1\n        /* \"#utility.yul\":1065:1067   */\n      0x40\n        /* \"#utility.yul\":1053:1062   */\n      dup4\n        /* \"#utility.yul\":1044:1051   */\n      dup6\n        /* \"#utility.yul\":1040:1063   */\n      sub\n        /* \"#utility.yul\":1036:1068   */\n      slt\n        /* \"#utility.yul\":1033:1152   */\n      iszero\n      tag_168\n      jumpi\n        /* \"#utility.yul\":1071:1150   */\n      tag_169\n      tag_170\n      jump\t// in\n    tag_169:\n        /* \"#utility.yul\":1033:1152   */\n    tag_168:\n        /* \"#utility.yul\":1219:1220   */\n      0x00\n        /* \"#utility.yul\":1208:1217   */\n      dup4\n        /* \"#utility.yul\":1204:1221   */\n      add\n        /* \"#utility.yul\":1191:1222   */\n      calldataload\n        /* \"#utility.yul\":1249:1267   */\n      0xffffffffffffffff\n        /* \"#utility.yul\":1241:1247   */\n      dup2\n        /* \"#utility.yul\":1238:1268   */\n      gt\n        /* \"#utility.yul\":1235:1352   */\n      iszero\n      tag_171\n      jumpi\n        /* \"#utility.yul\":1271:1350   */\n      tag_172\n      tag_173\n      jump\t// in\n    tag_172:\n        /* \"#utility.yul\":1235:1352   */\n    tag_171:\n        /* \"#utility.yul\":1376:1439   */\n      tag_174\n        /* \"#utility.yul\":1431:1438   */\n      dup6\n        /* \"#utility.yul\":1422:1428   */\n      dup3\n        /* \"#utility.yul\":1411:1420   */\n      dup7\n        /* \"#utility.yul\":1407:1429   */\n      add\n        /* \"#utility.yul\":1376:1439   */\n      tag_157\n      jump\t// in\n    tag_174:\n        /* \"#utility.yul\":1366:1439   */\n      swap3\n      pop\n        /* \"#utility.yul\":1162:1449   */\n      pop\n        /* \"#utility.yul\":1488:1490   */\n      0x20\n        /* \"#utility.yul\":1514:1567   */\n      tag_175\n        /* \"#utility.yul\":1559:1566   */\n      dup6\n        /* \"#utility.yul\":1550:1556   */\n      dup3\n        /* \"#utility.yul\":1539:1548   */\n      dup7\n        /* \"#utility.yul\":1535:1557   */\n      add\n        /* \"#utility.yul\":1514:1567   */\n      tag_163\n      jump\t// in\n    tag_175:\n        /* \"#utility.yul\":1504:1567   */\n      swap2\n      pop\n        /* \"#utility.yul\":1459:1577   */\n      pop\n        /* \"#utility.yul\":930:1584   */\n      swap3\n      pop\n      swap3\n      swap1\n      pop\n      jump\t// out\n        /* \"#utility.yul\":1590:1919   */\n    tag_26:\n        /* \"#utility.yul\":1649:1655   */\n      0x00\n        /* \"#utility.yul\":1698:1700   */\n      0x20\n        /* \"#utility.yul\":1686:1695   */\n      dup3\n        /* \"#utility.yul\":1677:1684   */\n      dup5\n        /* \"#utility.yul\":1673:1696   */\n      sub\n        /* \"#utility.yul\":1669:1701   */\n      slt\n        /* \"#utility.yul\":1666:1785   */\n      iszero\n      tag_177\n      jumpi\n        /* \"#utility.yul\":1704:1783   */\n      tag_178\n      tag_170\n      jump\t// in\n    tag_178:\n        /* \"#utility.yul\":1666:1785   */\n    tag_177:\n        /* \"#utility.yul\":1824:1825   */\n      0x00\n        /* \"#utility.yul\":1849:1902   */\n      tag_179\n        /* \"#utility.yul\":1894:1901   */\n      dup5\n        /* \"#utility.yul\":1885:1891   */\n      dup3\n        /* \"#utility.yul\":1874:1883   */\n      dup6\n        /* \"#utility.yul\":1870:1892   */\n      add\n        /* \"#utility.yul\":1849:1902   */\n      tag_163\n      jump\t// in\n    tag_179:\n        /* \"#utility.yul\":1839:1902   */\n      swap2\n      pop\n        /* \"#utility.yul\":1795:1912   */\n      pop\n        /* \"#utility.yul\":1590:1919   */\n      swap3\n      swap2\n      pop\n      pop\n      jump\t// out\n        /* \"#utility.yul\":1925:2399   */\n    tag_16:\n        /* \"#utility.yul\":1993:1999   */\n      0x00\n        /* \"#utility.yul\":2001:2007   */\n      dup1\n        /* \"#utility.yul\":2050:2052   */\n      0x40\n        /* \"#utility.yul\":2038:2047   */\n      dup4\n        /* \"#utility.yul\":2029:2036   */\n      dup6\n        /* \"#utility.yul\":2025:2048   */\n      sub\n        /* \"#utility.yul\":2021:2053   */\n      slt\n        /* \"#utility.yul\":2018:2137   */\n      iszero\n      tag_181\n      jumpi\n        /* \"#utility.yul\":2056:2135   */\n      tag_182\n      tag_170\n      jump\t// in\n    tag_182:\n        /* \"#utility.yul\":2018:2137   */\n    tag_181:\n        /* \"#utility.yul\":2176:2177   */\n      0x00\n        /* \"#utility.yul\":2201:2254   */\n      tag_183\n        /* \"#utility.yul\":2246:2253   */\n      dup6\n        /* \"#utility.yul\":2237:2243   */\n      dup3\n        /* \"#utility.yul\":2226:2235   */\n      dup7\n        /* \"#utility.yul\":2222:2244   */\n      add\n        /* \"#utility.yul\":2201:2254   */\n      tag_163\n      jump\t// in\n    tag_183:\n        /* \"#utility.yul\":2191:2254   */\n      swap3\n      pop\n        /* \"#utility.yul\":2147:2264   */\n      pop\n        /* \"#utility.yul\":2303:2305   */\n      0x20\n        /* \"#utility.yul\":2329:2382   */\n      tag_184\n        /* \"#utility.yul\":2374:2381   */\n      dup6\n        /* \"#utility.yul\":2365:2371   */\n      dup3\n        /* \"#utility.yul\":2354:2363   */\n      dup7\n        /* \"#utility.yul\":2350:2372   */\n      add\n        /* \"#utility.yul\":2329:2382   */\n      tag_163\n      jump\t// in\n    tag_184:\n        /* \"#utility.yul\":2319:2382   */\n      swap2\n      pop\n        /* \"#utility.yul\":2274:2392   */\n      pop\n        /* \"#utility.yul\":1925:2399   */\n      swap3\n      pop\n      swap3\n      swap1\n      pop\n      jump\t// out\n        /* \"#utility.yul\":2405:2584   */\n    tag_185:\n        /* \"#utility.yul\":2474:2484   */\n      0x00\n        /* \"#utility.yul\":2495:2541   */\n      tag_187\n        /* \"#utility.yul\":2537:2540   */\n      dup4\n        /* \"#utility.yul\":2529:2535   */\n      dup4\n        /* \"#utility.yul\":2495:2541   */\n      tag_188\n      jump\t// in\n    tag_187:\n        /* \"#utility.yul\":2573:2577   */\n      0x20\n        /* \"#utility.yul\":2568:2571   */\n      dup4\n        /* \"#utility.yul\":2564:2578   */\n      add\n        /* \"#utility.yul\":2550:2578   */\n      swap1\n      pop\n        /* \"#utility.yul\":2405:2584   */\n      swap3\n      swap2\n      pop\n      pop\n      jump\t// out\n        /* \"#utility.yul\":2590:2901   */\n    tag_189:\n        /* \"#utility.yul\":2725:2735   */\n      0x00\n        /* \"#utility.yul\":2746:2858   */\n      tag_191\n        /* \"#utility.yul\":2854:2857   */\n      dup4\n        /* \"#utility.yul\":2846:2852   */\n      dup4\n        /* \"#utility.yul\":2746:2858   */\n      tag_192\n      jump\t// in\n    tag_191:\n        /* \"#utility.yul\":2890:2894   */\n      0x40\n        /* \"#utility.yul\":2885:2888   */\n      dup4\n        /* \"#utility.yul\":2881:2895   */\n      add\n        /* \"#utility.yul\":2867:2895   */\n      swap1\n      pop\n        /* \"#utility.yul\":2590:2901   */\n      swap3\n      swap2\n      pop\n      pop\n      jump\t// out\n        /* \"#utility.yul\":2907:3015   */\n    tag_188:\n        /* \"#utility.yul\":2984:3008   */\n      tag_194\n        /* \"#utility.yul\":3002:3007   */\n      dup2\n        /* \"#utility.yul\":2984:3008   */\n      tag_195\n      jump\t// in\n    tag_194:\n        /* \"#utility.yul\":2979:2982   */\n      dup3\n        /* \"#utility.yul\":2972:3009   */\n      mstore\n        /* \"#utility.yul\":2907:3015   */\n      pop\n      pop\n      jump\t// out\n        /* \"#utility.yul\":3021:3139   */\n    tag_196:\n        /* \"#utility.yul\":3108:3132   */\n      tag_198\n        /* \"#utility.yul\":3126:3131   */\n      dup2\n        /* \"#utility.yul\":3108:3132   */\n      tag_195\n      jump\t// in\n    tag_198:\n        /* \"#utility.yul\":3103:3106   */\n      dup3\n        /* \"#utility.yul\":3096:3133   */\n      mstore\n        /* \"#utility.yul\":3021:3139   */\n      pop\n      pop\n      jump\t// out\n        /* \"#utility.yul\":3175:3907   */\n    tag_199:\n        /* \"#utility.yul\":3294:3297   */\n      0x00\n        /* \"#utility.yul\":3323:3377   */\n      tag_201\n        /* \"#utility.yul\":3371:3376   */\n      dup3\n        /* \"#utility.yul\":3323:3377   */\n      tag_202\n      jump\t// in\n    tag_201:\n        /* \"#utility.yul\":3393:3479   */\n      tag_203\n        /* \"#utility.yul\":3472:3478   */\n      dup2\n        /* \"#utility.yul\":3467:3470   */\n      dup6\n        /* \"#utility.yul\":3393:3479   */\n      tag_204\n      jump\t// in\n    tag_203:\n        /* \"#utility.yul\":3386:3479   */\n      swap4\n      pop\n        /* \"#utility.yul\":3503:3559   */\n      tag_205\n        /* \"#utility.yul\":3553:3558   */\n      dup4\n        /* \"#utility.yul\":3503:3559   */\n      tag_206\n      jump\t// in\n    tag_205:\n        /* \"#utility.yul\":3582:3589   */\n      dup1\n        /* \"#utility.yul\":3613:3614   */\n      0x00\n        /* \"#utility.yul\":3598:3882   */\n    tag_207:\n        /* \"#utility.yul\":3623:3629   */\n      dup4\n        /* \"#utility.yul\":3620:3621   */\n      dup2\n        /* \"#utility.yul\":3617:3630   */\n      lt\n        /* \"#utility.yul\":3598:3882   */\n      iszero\n      tag_209\n      jumpi\n        /* \"#utility.yul\":3699:3705   */\n      dup2\n        /* \"#utility.yul\":3693:3706   */\n      mload\n        /* \"#utility.yul\":3726:3789   */\n      tag_210\n        /* \"#utility.yul\":3785:3788   */\n      dup9\n        /* \"#utility.yul\":3770:3783   */\n      dup3\n        /* \"#utility.yul\":3726:3789   */\n      tag_185\n      jump\t// in\n    tag_210:\n        /* \"#utility.yul\":3719:3789   */\n      swap8\n      pop\n        /* \"#utility.yul\":3812:3872   */\n      tag_211\n        /* \"#utility.yul\":3865:3871   */\n      dup4\n        /* \"#utility.yul\":3812:3872   */\n      tag_212\n      jump\t// in\n    tag_211:\n        /* \"#utility.yul\":3802:3872   */\n      swap3\n      pop\n        /* \"#utility.yul\":3658:3882   */\n      pop\n        /* \"#utility.yul\":3645:3646   */\n      0x01\n        /* \"#utility.yul\":3642:3643   */\n      dup2\n        /* \"#utility.yul\":3638:3647   */\n      add\n        /* \"#utility.yul\":3633:3647   */\n      swap1\n      pop\n        /* \"#utility.yul\":3598:3882   */\n      jump(tag_207)\n    tag_209:\n        /* \"#utility.yul\":3602:3616   */\n      pop\n        /* \"#utility.yul\":3898:3901   */\n      dup6\n        /* \"#utility.yul\":3891:3901   */\n      swap4\n      pop\n        /* \"#utility.yul\":3299:3907   */\n      pop\n      pop\n      pop\n        /* \"#utility.yul\":3175:3907   */\n      swap3\n      swap2\n      pop\n      pop\n      jump\t// out\n        /* \"#utility.yul\":3999:4995   */\n    tag_213:\n        /* \"#utility.yul\":4184:4187   */\n      0x00\n        /* \"#utility.yul\":4213:4300   */\n      tag_215\n        /* \"#utility.yul\":4294:4299   */\n      dup3\n        /* \"#utility.yul\":4213:4300   */\n      tag_216\n      jump\t// in\n    tag_215:\n        /* \"#utility.yul\":4316:4435   */\n      tag_217\n        /* \"#utility.yul\":4428:4434   */\n      dup2\n        /* \"#utility.yul\":4423:4426   */\n      dup6\n        /* \"#utility.yul\":4316:4435   */\n      tag_218\n      jump\t// in\n    tag_217:\n        /* \"#utility.yul\":4309:4435   */\n      swap4\n      pop\n        /* \"#utility.yul\":4459:4548   */\n      tag_219\n        /* \"#utility.yul\":4542:4547   */\n      dup4\n        /* \"#utility.yul\":4459:4548   */\n      tag_220\n      jump\t// in\n    tag_219:\n        /* \"#utility.yul\":4571:4578   */\n      dup1\n        /* \"#utility.yul\":4602:4603   */\n      0x00\n        /* \"#utility.yul\":4587:4970   */\n    tag_221:\n        /* \"#utility.yul\":4612:4618   */\n      dup4\n        /* \"#utility.yul\":4609:4610   */\n      dup2\n        /* \"#utility.yul\":4606:4619   */\n      lt\n        /* \"#utility.yul\":4587:4970   */\n      iszero\n      tag_223\n      jumpi\n        /* \"#utility.yul\":4688:4694   */\n      dup2\n        /* \"#utility.yul\":4682:4695   */\n      mload\n        /* \"#utility.yul\":4715:4844   */\n      tag_224\n        /* \"#utility.yul\":4840:4843   */\n      dup9\n        /* \"#utility.yul\":4825:4838   */\n      dup3\n        /* \"#utility.yul\":4715:4844   */\n      tag_189\n      jump\t// in\n    tag_224:\n        /* \"#utility.yul\":4708:4844   */\n      swap8\n      pop\n        /* \"#utility.yul\":4867:4960   */\n      tag_225\n        /* \"#utility.yul\":4953:4959   */\n      dup4\n        /* \"#utility.yul\":4867:4960   */\n      tag_226\n      jump\t// in\n    tag_225:\n        /* \"#utility.yul\":4857:4960   */\n      swap3\n      pop\n        /* \"#utility.yul\":4647:4970   */\n      pop\n        /* \"#utility.yul\":4634:4635   */\n      0x01\n        /* \"#utility.yul\":4631:4632   */\n      dup2\n        /* \"#utility.yul\":4627:4636   */\n      add\n        /* \"#utility.yul\":4622:4636   */\n      swap1\n      pop\n        /* \"#utility.yul\":4587:4970   */\n      jump(tag_221)\n    tag_223:\n        /* \"#utility.yul\":4591:4605   */\n      pop\n        /* \"#utility.yul\":4986:4989   */\n      dup6\n        /* \"#utility.yul\":4979:4989   */\n      swap4\n      pop\n        /* \"#utility.yul\":4189:4995   */\n      pop\n      pop\n      pop\n        /* \"#utility.yul\":3999:4995   */\n      swap3\n      swap2\n      pop\n      pop\n      jump\t// out\n        /* \"#utility.yul\":5001:5110   */\n    tag_227:\n        /* \"#utility.yul\":5082:5103   */\n      tag_229\n        /* \"#utility.yul\":5097:5102   */\n      dup2\n        /* \"#utility.yul\":5082:5103   */\n      tag_230\n      jump\t// in\n    tag_229:\n        /* \"#utility.yul\":5077:5080   */\n      dup3\n        /* \"#utility.yul\":5070:5104   */\n      mstore\n        /* \"#utility.yul\":5001:5110   */\n      pop\n      pop\n      jump\t// out\n        /* \"#utility.yul\":5116:5480   */\n    tag_231:\n        /* \"#utility.yul\":5204:5207   */\n      0x00\n        /* \"#utility.yul\":5232:5271   */\n      tag_233\n        /* \"#utility.yul\":5265:5270   */\n      dup3\n        /* \"#utility.yul\":5232:5271   */\n      tag_234\n      jump\t// in\n    tag_233:\n        /* \"#utility.yul\":5287:5358   */\n      tag_235\n        /* \"#utility.yul\":5351:5357   */\n      dup2\n        /* \"#utility.yul\":5346:5349   */\n      dup6\n        /* \"#utility.yul\":5287:5358   */\n      tag_236\n      jump\t// in\n    tag_235:\n        /* \"#utility.yul\":5280:5358   */\n      swap4\n      pop\n        /* \"#utility.yul\":5367:5419   */\n      tag_237\n        /* \"#utility.yul\":5412:5418   */\n      dup2\n        /* \"#utility.yul\":5407:5410   */\n      dup6\n        /* \"#utility.yul\":5400:5404   */\n      0x20\n        /* \"#utility.yul\":5393:5398   */\n      dup7\n        /* \"#utility.yul\":5389:5405   */\n      add\n        /* \"#utility.yul\":5367:5419   */\n      tag_238\n      jump\t// in\n    tag_237:\n        /* \"#utility.yul\":5444:5473   */\n      tag_239\n        /* \"#utility.yul\":5466:5472   */\n      dup2\n        /* \"#utility.yul\":5444:5473   */\n      tag_240\n      jump\t// in\n    tag_239:\n        /* \"#utility.yul\":5439:5442   */\n      dup5\n        /* \"#utility.yul\":5435:5474   */\n      add\n        /* \"#utility.yul\":5428:5474   */\n      swap2\n      pop\n        /* \"#utility.yul\":5208:5480   */\n      pop\n        /* \"#utility.yul\":5116:5480   */\n      swap3\n      swap2\n      pop\n      pop\n      jump\t// out\n        /* \"#utility.yul\":5486:5852   */\n    tag_241:\n        /* \"#utility.yul\":5628:5631   */\n      0x00\n        /* \"#utility.yul\":5649:5716   */\n      tag_243\n        /* \"#utility.yul\":5713:5715   */\n      0x1f\n        /* \"#utility.yul\":5708:5711   */\n      dup4\n        /* \"#utility.yul\":5649:5716   */\n      tag_236\n      jump\t// in\n    tag_243:\n        /* \"#utility.yul\":5642:5716   */\n      swap2\n      pop\n        /* \"#utility.yul\":5725:5818   */\n      tag_244\n        /* \"#utility.yul\":5814:5817   */\n      dup3\n        /* \"#utility.yul\":5725:5818   */\n      tag_245\n      jump\t// in\n    tag_244:\n        /* \"#utility.yul\":5843:5845   */\n      0x20\n        /* \"#utility.yul\":5838:5841   */\n      dup3\n        /* \"#utility.yul\":5834:5846   */\n      add\n        /* \"#utility.yul\":5827:5846   */\n      swap1\n      pop\n        /* \"#utility.yul\":5486:5852   */\n      swap2\n      swap1\n      pop\n      jump\t// out\n        /* \"#utility.yul\":5858:6224   */\n    tag_246:\n        /* \"#utility.yul\":6000:6003   */\n      0x00\n        /* \"#utility.yul\":6021:6088   */\n      tag_248\n        /* \"#utility.yul\":6085:6087   */\n      0x13\n        /* \"#utility.yul\":6080:6083   */\n      dup4\n        /* \"#utility.yul\":6021:6088   */\n      tag_236\n      jump\t// in\n    tag_248:\n        /* \"#utility.yul\":6014:6088   */\n      swap2\n      pop\n        /* \"#utility.yul\":6097:6190   */\n      tag_249\n        /* \"#utility.yul\":6186:6189   */\n      dup3\n        /* \"#utility.yul\":6097:6190   */\n      tag_250\n      jump\t// in\n    tag_249:\n        /* \"#utility.yul\":6215:6217   */\n      0x20\n        /* \"#utility.yul\":6210:6213   */\n      dup3\n        /* \"#utility.yul\":6206:6218   */\n      add\n        /* \"#utility.yul\":6199:6218   */\n      swap1\n      pop\n        /* \"#utility.yul\":5858:6224   */\n      swap2\n      swap1\n      pop\n      jump\t// out\n        /* \"#utility.yul\":6230:6596   */\n    tag_251:\n        /* \"#utility.yul\":6372:6375   */\n      0x00\n        /* \"#utility.yul\":6393:6460   */\n      tag_253\n        /* \"#utility.yul\":6457:6459   */\n      0x18\n        /* \"#utility.yul\":6452:6455   */\n      dup4\n        /* \"#utility.yul\":6393:6460   */\n      tag_236\n      jump\t// in\n    tag_253:\n        /* \"#utility.yul\":6386:6460   */\n      swap2\n      pop\n        /* \"#utility.yul\":6469:6562   */\n      tag_254\n        /* \"#utility.yul\":6558:6561   */\n      dup3\n        /* \"#utility.yul\":6469:6562   */\n      tag_255\n      jump\t// in\n    tag_254:\n        /* \"#utility.yul\":6587:6589   */\n      0x20\n        /* \"#utility.yul\":6582:6585   */\n      dup3\n        /* \"#utility.yul\":6578:6590   */\n      add\n        /* \"#utility.yul\":6571:6590   */\n      swap1\n      pop\n        /* \"#utility.yul\":6230:6596   */\n      swap2\n      swap1\n      pop\n      jump\t// out\n        /* \"#utility.yul\":6602:6968   */\n    tag_256:\n        /* \"#utility.yul\":6744:6747   */\n      0x00\n        /* \"#utility.yul\":6765:6832   */\n      tag_258\n        /* \"#utility.yul\":6829:6831   */\n      0x18\n        /* \"#utility.yul\":6824:6827   */\n      dup4\n        /* \"#utility.yul\":6765:6832   */\n      tag_236\n      jump\t// in\n    tag_258:\n        /* \"#utility.yul\":6758:6832   */\n      swap2\n      pop\n        /* \"#utility.yul\":6841:6934   */\n      tag_259\n        /* \"#utility.yul\":6930:6933   */\n      dup3\n        /* \"#utility.yul\":6841:6934   */\n      tag_260\n      jump\t// in\n    tag_259:\n        /* \"#utility.yul\":6959:6961   */\n      0x20\n        /* \"#utility.yul\":6954:6957   */\n      dup3\n        /* \"#utility.yul\":6950:6962   */\n      add\n        /* \"#utility.yul\":6943:6962   */\n      swap1\n      pop\n        /* \"#utility.yul\":6602:6968   */\n      swap2\n      swap1\n      pop\n      jump\t// out\n        /* \"#utility.yul\":6974:7340   */\n    tag_261:\n        /* \"#utility.yul\":7116:7119   */\n      0x00\n        /* \"#utility.yul\":7137:7204   */\n      tag_263\n        /* \"#utility.yul\":7201:7203   */\n      0x1f\n        /* \"#utility.yul\":7196:7199   */\n      dup4\n        /* \"#utility.yul\":7137:7204   */\n      tag_236\n      jump\t// in\n    tag_263:\n        /* \"#utility.yul\":7130:7204   */\n      swap2\n      pop\n        /* \"#utility.yul\":7213:7306   */\n      tag_264\n        /* \"#utility.yul\":7302:7305   */\n      dup3\n        /* \"#utility.yul\":7213:7306   */\n      tag_265\n      jump\t// in\n    tag_264:\n        /* \"#utility.yul\":7331:7333   */\n      0x20\n        /* \"#utility.yul\":7326:7329   */\n      dup3\n        /* \"#utility.yul\":7322:7334   */\n      add\n        /* \"#utility.yul\":7315:7334   */\n      swap1\n      pop\n        /* \"#utility.yul\":6974:7340   */\n      swap2\n      swap1\n      pop\n      jump\t// out\n        /* \"#utility.yul\":7428:7945   */\n    tag_192:\n        /* \"#utility.yul\":7581:7585   */\n      0x40\n        /* \"#utility.yul\":7576:7579   */\n      dup3\n        /* \"#utility.yul\":7572:7586   */\n      add\n        /* \"#utility.yul\":7670:7674   */\n      0x00\n        /* \"#utility.yul\":7663:7668   */\n      dup3\n        /* \"#utility.yul\":7659:7675   */\n      add\n        /* \"#utility.yul\":7653:7676   */\n      mload\n        /* \"#utility.yul\":7689:7752   */\n      tag_267\n        /* \"#utility.yul\":7746:7750   */\n      0x00\n        /* \"#utility.yul\":7741:7744   */\n      dup6\n        /* \"#utility.yul\":7737:7751   */\n      add\n        /* \"#utility.yul\":7723:7735   */\n      dup3\n        /* \"#utility.yul\":7689:7752   */\n      tag_268\n      jump\t// in\n    tag_267:\n        /* \"#utility.yul\":7596:7762   */\n      pop\n        /* \"#utility.yul\":7846:7850   */\n      0x20\n        /* \"#utility.yul\":7839:7844   */\n      dup3\n        /* \"#utility.yul\":7835:7851   */\n      add\n        /* \"#utility.yul\":7829:7852   */\n      mload\n        /* \"#utility.yul\":7865:7928   */\n      tag_269\n        /* \"#utility.yul\":7922:7926   */\n      0x20\n        /* \"#utility.yul\":7917:7920   */\n      dup6\n        /* \"#utility.yul\":7913:7927   */\n      add\n        /* \"#utility.yul\":7899:7911   */\n      dup3\n        /* \"#utility.yul\":7865:7928   */\n      tag_268\n      jump\t// in\n    tag_269:\n        /* \"#utility.yul\":7772:7938   */\n      pop\n        /* \"#utility.yul\":7550:7945   */\n      pop\n        /* \"#utility.yul\":7428:7945   */\n      pop\n      pop\n      jump\t// out\n        /* \"#utility.yul\":7951:8059   */\n    tag_268:\n        /* \"#utility.yul\":8028:8052   */\n      tag_271\n        /* \"#utility.yul\":8046:8051   */\n      dup2\n        /* \"#utility.yul\":8028:8052   */\n      tag_272\n      jump\t// in\n    tag_271:\n        /* \"#utility.yul\":8023:8026   */\n      dup3\n        /* \"#utility.yul\":8016:8053   */\n      mstore\n        /* \"#utility.yul\":7951:8059   */\n      pop\n      pop\n      jump\t// out\n        /* \"#utility.yul\":8065:8183   */\n    tag_273:\n        /* \"#utility.yul\":8152:8176   */\n      tag_275\n        /* \"#utility.yul\":8170:8175   */\n      dup2\n        /* \"#utility.yul\":8152:8176   */\n      tag_272\n      jump\t// in\n    tag_275:\n        /* \"#utility.yul\":8147:8150   */\n      dup3\n        /* \"#utility.yul\":8140:8177   */\n      mstore\n        /* \"#utility.yul\":8065:8183   */\n      pop\n      pop\n      jump\t// out\n        /* \"#utility.yul\":8189:8411   */\n    tag_19:\n        /* \"#utility.yul\":8282:8286   */\n      0x00\n        /* \"#utility.yul\":8320:8322   */\n      0x20\n        /* \"#utility.yul\":8309:8318   */\n      dup3\n        /* \"#utility.yul\":8305:8323   */\n      add\n        /* \"#utility.yul\":8297:8323   */\n      swap1\n      pop\n        /* \"#utility.yul\":8333:8404   */\n      tag_277\n        /* \"#utility.yul\":8401:8402   */\n      0x00\n        /* \"#utility.yul\":8390:8399   */\n      dup4\n        /* \"#utility.yul\":8386:8403   */\n      add\n        /* \"#utility.yul\":8377:8383   */\n      dup5\n        /* \"#utility.yul\":8333:8404   */\n      tag_196\n      jump\t// in\n    tag_277:\n        /* \"#utility.yul\":8189:8411   */\n      swap3\n      swap2\n      pop\n      pop\n      jump\t// out\n        /* \"#utility.yul\":8417:8790   */\n    tag_55:\n        /* \"#utility.yul\":8560:8564   */\n      0x00\n        /* \"#utility.yul\":8598:8600   */\n      0x20\n        /* \"#utility.yul\":8587:8596   */\n      dup3\n        /* \"#utility.yul\":8583:8601   */\n      add\n        /* \"#utility.yul\":8575:8601   */\n      swap1\n      pop\n        /* \"#utility.yul\":8647:8656   */\n      dup2\n        /* \"#utility.yul\":8641:8645   */\n      dup2\n        /* \"#utility.yul\":8637:8657   */\n      sub\n        /* \"#utility.yul\":8633:8634   */\n      0x00\n        /* \"#utility.yul\":8622:8631   */\n      dup4\n        /* \"#utility.yul\":8618:8635   */\n      add\n        /* \"#utility.yul\":8611:8658   */\n      mstore\n        /* \"#utility.yul\":8675:8783   */\n      tag_279\n        /* \"#utility.yul\":8778:8782   */\n      dup2\n        /* \"#utility.yul\":8769:8775   */\n      dup5\n        /* \"#utility.yul\":8675:8783   */\n      tag_199\n      jump\t// in\n    tag_279:\n        /* \"#utility.yul\":8667:8783   */\n      swap1\n      pop\n        /* \"#utility.yul\":8417:8790   */\n      swap3\n      swap2\n      pop\n      pop\n      jump\t// out\n        /* \"#utility.yul\":8796:9301   */\n    tag_50:\n        /* \"#utility.yul\":9005:9009   */\n      0x00\n        /* \"#utility.yul\":9043:9045   */\n      0x20\n        /* \"#utility.yul\":9032:9041   */\n      dup3\n        /* \"#utility.yul\":9028:9046   */\n      add\n        /* \"#utility.yul\":9020:9046   */\n      swap1\n      pop\n        /* \"#utility.yul\":9092:9101   */\n      dup2\n        /* \"#utility.yul\":9086:9090   */\n      dup2\n        /* \"#utility.yul\":9082:9102   */\n      sub\n        /* \"#utility.yul\":9078:9079   */\n      0x00\n        /* \"#utility.yul\":9067:9076   */\n      dup4\n        /* \"#utility.yul\":9063:9080   */\n      add\n        /* \"#utility.yul\":9056:9103   */\n      mstore\n        /* \"#utility.yul\":9120:9294   */\n      tag_281\n        /* \"#utility.yul\":9289:9293   */\n      dup2\n        /* \"#utility.yul\":9280:9286   */\n      dup5\n        /* \"#utility.yul\":9120:9294   */\n      tag_213\n      jump\t// in\n    tag_281:\n        /* \"#utility.yul\":9112:9294   */\n      swap1\n      pop\n        /* \"#utility.yul\":8796:9301   */\n      swap3\n      swap2\n      pop\n      pop\n      jump\t// out\n        /* \"#utility.yul\":9307:9718   */\n    tag_29:\n        /* \"#utility.yul\":9442:9446   */\n      0x00\n        /* \"#utility.yul\":9480:9482   */\n      0x40\n        /* \"#utility.yul\":9469:9478   */\n      dup3\n        /* \"#utility.yul\":9465:9483   */\n      add\n        /* \"#utility.yul\":9457:9483   */\n      swap1\n      pop\n        /* \"#utility.yul\":9529:9538   */\n      dup2\n        /* \"#utility.yul\":9523:9527   */\n      dup2\n        /* \"#utility.yul\":9519:9539   */\n      sub\n        /* \"#utility.yul\":9515:9516   */\n      0x00\n        /* \"#utility.yul\":9504:9513   */\n      dup4\n        /* \"#utility.yul\":9500:9517   */\n      add\n        /* \"#utility.yul\":9493:9540   */\n      mstore\n        /* \"#utility.yul\":9557:9635   */\n      tag_283\n        /* \"#utility.yul\":9630:9634   */\n      dup2\n        /* \"#utility.yul\":9621:9627   */\n      dup6\n        /* \"#utility.yul\":9557:9635   */\n      tag_231\n      jump\t// in\n    tag_283:\n        /* \"#utility.yul\":9549:9635   */\n      swap1\n      pop\n        /* \"#utility.yul\":9645:9711   */\n      tag_284\n        /* \"#utility.yul\":9707:9709   */\n      0x20\n        /* \"#utility.yul\":9696:9705   */\n      dup4\n        /* \"#utility.yul\":9692:9710   */\n      add\n        /* \"#utility.yul\":9683:9689   */\n      dup5\n        /* \"#utility.yul\":9645:9711   */\n      tag_227\n      jump\t// in\n    tag_284:\n        /* \"#utility.yul\":9307:9718   */\n      swap4\n      swap3\n      pop\n      pop\n      pop\n      jump\t// out\n        /* \"#utility.yul\":9724:10143   */\n    tag_106:\n        /* \"#utility.yul\":9890:9894   */\n      0x00\n        /* \"#utility.yul\":9928:9930   */\n      0x20\n        /* \"#utility.yul\":9917:9926   */\n      dup3\n        /* \"#utility.yul\":9913:9931   */\n      add\n        /* \"#utility.yul\":9905:9931   */\n      swap1\n      pop\n        /* \"#utility.yul\":9977:9986   */\n      dup2\n        /* \"#utility.yul\":9971:9975   */\n      dup2\n        /* \"#utility.yul\":9967:9987   */\n      sub\n        /* \"#utility.yul\":9963:9964   */\n      0x00\n        /* \"#utility.yul\":9952:9961   */\n      dup4\n        /* \"#utility.yul\":9948:9965   */\n      add\n        /* \"#utility.yul\":9941:9988   */\n      mstore\n        /* \"#utility.yul\":10005:10136   */\n      tag_286\n        /* \"#utility.yul\":10131:10135   */\n      dup2\n        /* \"#utility.yul\":10005:10136   */\n      tag_241\n      jump\t// in\n    tag_286:\n        /* \"#utility.yul\":9997:10136   */\n      swap1\n      pop\n        /* \"#utility.yul\":9724:10143   */\n      swap2\n      swap1\n      pop\n      jump\t// out\n        /* \"#utility.yul\":10149:10568   */\n    tag_100:\n        /* \"#utility.yul\":10315:10319   */\n      0x00\n        /* \"#utility.yul\":10353:10355   */\n      0x20\n        /* \"#utility.yul\":10342:10351   */\n      dup3\n        /* \"#utility.yul\":10338:10356   */\n      add\n        /* \"#utility.yul\":10330:10356   */\n      swap1\n      pop\n        /* \"#utility.yul\":10402:10411   */\n      dup2\n        /* \"#utility.yul\":10396:10400   */\n      dup2\n        /* \"#utility.yul\":10392:10412   */\n      sub\n        /* \"#utility.yul\":10388:10389   */\n      0x00\n        /* \"#utility.yul\":10377:10386   */\n      dup4\n        /* \"#utility.yul\":10373:10390   */\n      add\n        /* \"#utility.yul\":10366:10413   */\n      mstore\n        /* \"#utility.yul\":10430:10561   */\n      tag_288\n        /* \"#utility.yul\":10556:10560   */\n      dup2\n        /* \"#utility.yul\":10430:10561   */\n      tag_246\n      jump\t// in\n    tag_288:\n        /* \"#utility.yul\":10422:10561   */\n      swap1\n      pop\n        /* \"#utility.yul\":10149:10568   */\n      swap2\n      swap1\n      pop\n      jump\t// out\n        /* \"#utility.yul\":10574:10993   */\n    tag_84:\n        /* \"#utility.yul\":10740:10744   */\n      0x00\n        /* \"#utility.yul\":10778:10780   */\n      0x20\n        /* \"#utility.yul\":10767:10776   */\n      dup3\n        /* \"#utility.yul\":10763:10781   */\n      add\n        /* \"#utility.yul\":10755:10781   */\n      swap1\n      pop\n        /* \"#utility.yul\":10827:10836   */\n      dup2\n        /* \"#utility.yul\":10821:10825   */\n      dup2\n        /* \"#utility.yul\":10817:10837   */\n      sub\n        /* \"#utility.yul\":10813:10814   */\n      0x00\n        /* \"#utility.yul\":10802:10811   */\n      dup4\n        /* \"#utility.yul\":10798:10815   */\n      add\n        /* \"#utility.yul\":10791:10838   */\n      mstore\n        /* \"#utility.yul\":10855:10986   */\n      tag_290\n        /* \"#utility.yul\":10981:10985   */\n      dup2\n        /* \"#utility.yul\":10855:10986   */\n      tag_251\n      jump\t// in\n    tag_290:\n        /* \"#utility.yul\":10847:10986   */\n      swap1\n      pop\n        /* \"#utility.yul\":10574:10993   */\n      swap2\n      swap1\n      pop\n      jump\t// out\n        /* \"#utility.yul\":10999:11418   */\n    tag_61:\n        /* \"#utility.yul\":11165:11169   */\n      0x00\n        /* \"#utility.yul\":11203:11205   */\n      0x20\n        /* \"#utility.yul\":11192:11201   */\n      dup3\n        /* \"#utility.yul\":11188:11206   */\n      add\n        /* \"#utility.yul\":11180:11206   */\n      swap1\n      pop\n        /* \"#utility.yul\":11252:11261   */\n      dup2\n        /* \"#utility.yul\":11246:11250   */\n      dup2\n        /* \"#utility.yul\":11242:11262   */\n      sub\n        /* \"#utility.yul\":11238:11239   */\n      0x00\n        /* \"#utility.yul\":11227:11236   */\n      dup4\n        /* \"#utility.yul\":11223:11240   */\n      add\n        /* \"#utility.yul\":11216:11263   */\n      mstore\n        /* \"#utility.yul\":11280:11411   */\n      tag_292\n        /* \"#utility.yul\":11406:11410   */\n      dup2\n        /* \"#utility.yul\":11280:11411   */\n      tag_256\n      jump\t// in\n    tag_292:\n        /* \"#utility.yul\":11272:11411   */\n      swap1\n      pop\n        /* \"#utility.yul\":10999:11418   */\n      swap2\n      swap1\n      pop\n      jump\t// out\n        /* \"#utility.yul\":11424:11843   */\n    tag_81:\n        /* \"#utility.yul\":11590:11594   */\n      0x00\n        /* \"#utility.yul\":11628:11630   */\n      0x20\n        /* \"#utility.yul\":11617:11626   */\n      dup3\n        /* \"#utility.yul\":11613:11631   */\n      add\n        /* \"#utility.yul\":11605:11631   */\n      swap1\n      pop\n        /* \"#utility.yul\":11677:11686   */\n      dup2\n        /* \"#utility.yul\":11671:11675   */\n      dup2\n        /* \"#utility.yul\":11667:11687   */\n      sub\n        /* \"#utility.yul\":11663:11664   */\n      0x00\n        /* \"#utility.yul\":11652:11661   */\n      dup4\n        /* \"#utility.yul\":11648:11665   */\n      add\n        /* \"#utility.yul\":11641:11688   */\n      mstore\n        /* \"#utility.yul\":11705:11836   */\n      tag_294\n        /* \"#utility.yul\":11831:11835   */\n      dup2\n        /* \"#utility.yul\":11705:11836   */\n      tag_261\n      jump\t// in\n    tag_294:\n        /* \"#utility.yul\":11697:11836   */\n      swap1\n      pop\n        /* \"#utility.yul\":11424:11843   */\n      swap2\n      swap1\n      pop\n      jump\t// out\n        /* \"#utility.yul\":11849:12071   */\n    tag_40:\n        /* \"#utility.yul\":11942:11946   */\n      0x00\n        /* \"#utility.yul\":11980:11982   */\n      0x20\n        /* \"#utility.yul\":11969:11978   */\n      dup3\n        /* \"#utility.yul\":11965:11983   */\n      add\n        /* \"#utility.yul\":11957:11983   */\n      swap1\n      pop\n        /* \"#utility.yul\":11993:12064   */\n      tag_296\n        /* \"#utility.yul\":12061:12062   */\n      0x00\n        /* \"#utility.yul\":12050:12059   */\n      dup4\n        /* \"#utility.yul\":12046:12063   */\n      add\n        /* \"#utility.yul\":12037:12043   */\n      dup5\n        /* \"#utility.yul\":11993:12064   */\n      tag_273\n      jump\t// in\n    tag_296:\n        /* \"#utility.yul\":11849:12071   */\n      swap3\n      swap2\n      pop\n      pop\n      jump\t// out\n        /* \"#utility.yul\":12077:12519   */\n    tag_89:\n        /* \"#utility.yul\":12226:12230   */\n      0x00\n        /* \"#utility.yul\":12264:12266   */\n      0x60\n        /* \"#utility.yul\":12253:12262   */\n      dup3\n        /* \"#utility.yul\":12249:12267   */\n      add\n        /* \"#utility.yul\":12241:12267   */\n      swap1\n      pop\n        /* \"#utility.yul\":12277:12348   */\n      tag_298\n        /* \"#utility.yul\":12345:12346   */\n      0x00\n        /* \"#utility.yul\":12334:12343   */\n      dup4\n        /* \"#utility.yul\":12330:12347   */\n      add\n        /* \"#utility.yul\":12321:12327   */\n      dup7\n        /* \"#utility.yul\":12277:12348   */\n      tag_273\n      jump\t// in\n    tag_298:\n        /* \"#utility.yul\":12358:12430   */\n      tag_299\n        /* \"#utility.yul\":12426:12428   */\n      0x20\n        /* \"#utility.yul\":12415:12424   */\n      dup4\n        /* \"#utility.yul\":12411:12429   */\n      add\n        /* \"#utility.yul\":12402:12408   */\n      dup6\n        /* \"#utility.yul\":12358:12430   */\n      tag_196\n      jump\t// in\n    tag_299:\n        /* \"#utility.yul\":12440:12512   */\n      tag_300\n        /* \"#utility.yul\":12508:12510   */\n      0x40\n        /* \"#utility.yul\":12497:12506   */\n      dup4\n        /* \"#utility.yul\":12493:12511   */\n      add\n        /* \"#utility.yul\":12484:12490   */\n      dup5\n        /* \"#utility.yul\":12440:12512   */\n      tag_273\n      jump\t// in\n    tag_300:\n        /* \"#utility.yul\":12077:12519   */\n      swap5\n      swap4\n      pop\n      pop\n      pop\n      pop\n      jump\t// out\n        /* \"#utility.yul\":12525:12967   */\n    tag_102:\n        /* \"#utility.yul\":12674:12678   */\n      0x00\n        /* \"#utility.yul\":12712:12714   */\n      0x60\n        /* \"#utility.yul\":12701:12710   */\n      dup3\n        /* \"#utility.yul\":12697:12715   */\n      add\n        /* \"#utility.yul\":12689:12715   */\n      swap1\n      pop\n        /* \"#utility.yul\":12725:12796   */\n      tag_302\n        /* \"#utility.yul\":12793:12794   */\n      0x00\n        /* \"#utility.yul\":12782:12791   */\n      dup4\n        /* \"#utility.yul\":12778:12795   */\n      add\n        /* \"#utility.yul\":12769:12775   */\n      dup7\n        /* \"#utility.yul\":12725:12796   */\n      tag_273\n      jump\t// in\n    tag_302:\n        /* \"#utility.yul\":12806:12878   */\n      tag_303\n        /* \"#utility.yul\":12874:12876   */\n      0x20\n        /* \"#utility.yul\":12863:12872   */\n      dup4\n        /* \"#utility.yul\":12859:12877   */\n      add\n        /* \"#utility.yul\":12850:12856   */\n      dup6\n        /* \"#utility.yul\":12806:12878   */\n      tag_273\n      jump\t// in\n    tag_303:\n        /* \"#utility.yul\":12888:12960   */\n      tag_304\n        /* \"#utility.yul\":12956:12958   */\n      0x40\n        /* \"#utility.yul\":12945:12954   */\n      dup4\n        /* \"#utility.yul\":12941:12959   */\n      add\n        /* \"#utility.yul\":12932:12938   */\n      dup5\n        /* \"#utility.yul\":12888:12960   */\n      tag_273\n      jump\t// in\n    tag_304:\n        /* \"#utility.yul\":12525:12967   */\n      swap5\n      swap4\n      pop\n      pop\n      pop\n      pop\n      jump\t// out\n        /* \"#utility.yul\":12973:13102   */\n    tag_151:\n        /* \"#utility.yul\":13007:13013   */\n      0x00\n        /* \"#utility.yul\":13034:13054   */\n      tag_306\n      tag_307\n      jump\t// in\n    tag_306:\n        /* \"#utility.yul\":13024:13054   */\n      swap1\n      pop\n        /* \"#utility.yul\":13063:13096   */\n      tag_308\n        /* \"#utility.yul\":13091:13095   */\n      dup3\n        /* \"#utility.yul\":13083:13089   */\n      dup3\n        /* \"#utility.yul\":13063:13096   */\n      tag_309\n      jump\t// in\n    tag_308:\n        /* \"#utility.yul\":12973:13102   */\n      swap2\n      swap1\n      pop\n      jump\t// out\n        /* \"#utility.yul\":13108:13183   */\n    tag_307:\n        /* \"#utility.yul\":13141:13147   */\n      0x00\n        /* \"#utility.yul\":13174:13176   */\n      0x40\n        /* \"#utility.yul\":13168:13177   */\n      mload\n        /* \"#utility.yul\":13158:13177   */\n      swap1\n      pop\n        /* \"#utility.yul\":13108:13183   */\n      swap1\n      jump\t// out\n        /* \"#utility.yul\":13189:13497   */\n    tag_150:\n        /* \"#utility.yul\":13251:13255   */\n      0x00\n        /* \"#utility.yul\":13341:13359   */\n      0xffffffffffffffff\n        /* \"#utility.yul\":13333:13339   */\n      dup3\n        /* \"#utility.yul\":13330:13360   */\n      gt\n        /* \"#utility.yul\":13327:13383   */\n      iszero\n      tag_312\n      jumpi\n        /* \"#utility.yul\":13363:13381   */\n      tag_313\n      tag_119\n      jump\t// in\n    tag_313:\n        /* \"#utility.yul\":13327:13383   */\n    tag_312:\n        /* \"#utility.yul\":13401:13430   */\n      tag_314\n        /* \"#utility.yul\":13423:13429   */\n      dup3\n        /* \"#utility.yul\":13401:13430   */\n      tag_240\n      jump\t// in\n    tag_314:\n        /* \"#utility.yul\":13393:13430   */\n      swap1\n      pop\n        /* \"#utility.yul\":13485:13489   */\n      0x20\n        /* \"#utility.yul\":13479:13483   */\n      dup2\n        /* \"#utility.yul\":13475:13490   */\n      add\n        /* \"#utility.yul\":13467:13490   */\n      swap1\n      pop\n        /* \"#utility.yul\":13189:13497   */\n      swap2\n      swap1\n      pop\n      jump\t// out\n        /* \"#utility.yul\":13503:13635   */\n    tag_206:\n        /* \"#utility.yul\":13570:13574   */\n      0x00\n        /* \"#utility.yul\":13593:13596   */\n      dup2\n        /* \"#utility.yul\":13585:13596   */\n      swap1\n      pop\n        /* \"#utility.yul\":13623:13627   */\n      0x20\n        /* \"#utility.yul\":13618:13621   */\n      dup3\n        /* \"#utility.yul\":13614:13628   */\n      add\n        /* \"#utility.yul\":13606:13628   */\n      swap1\n      pop\n        /* \"#utility.yul\":13503:13635   */\n      swap2\n      swap1\n      pop\n      jump\t// out\n        /* \"#utility.yul\":13641:13806   */\n    tag_220:\n        /* \"#utility.yul\":13741:13745   */\n      0x00\n        /* \"#utility.yul\":13764:13767   */\n      dup2\n        /* \"#utility.yul\":13756:13767   */\n      swap1\n      pop\n        /* \"#utility.yul\":13794:13798   */\n      0x20\n        /* \"#utility.yul\":13789:13792   */\n      dup3\n        /* \"#utility.yul\":13785:13799   */\n      add\n        /* \"#utility.yul\":13777:13799   */\n      swap1\n      pop\n        /* \"#utility.yul\":13641:13806   */\n      swap2\n      swap1\n      pop\n      jump\t// out\n        /* \"#utility.yul\":13812:13926   */\n    tag_202:\n        /* \"#utility.yul\":13879:13885   */\n      0x00\n        /* \"#utility.yul\":13913:13918   */\n      dup2\n        /* \"#utility.yul\":13907:13919   */\n      mload\n        /* \"#utility.yul\":13897:13919   */\n      swap1\n      pop\n        /* \"#utility.yul\":13812:13926   */\n      swap2\n      swap1\n      pop\n      jump\t// out\n        /* \"#utility.yul\":13932:14079   */\n    tag_216:\n        /* \"#utility.yul\":14032:14038   */\n      0x00\n        /* \"#utility.yul\":14066:14071   */\n      dup2\n        /* \"#utility.yul\":14060:14072   */\n      mload\n        /* \"#utility.yul\":14050:14072   */\n      swap1\n      pop\n        /* \"#utility.yul\":13932:14079   */\n      swap2\n      swap1\n      pop\n      jump\t// out\n        /* \"#utility.yul\":14085:14184   */\n    tag_234:\n        /* \"#utility.yul\":14137:14143   */\n      0x00\n        /* \"#utility.yul\":14171:14176   */\n      dup2\n        /* \"#utility.yul\":14165:14177   */\n      mload\n        /* \"#utility.yul\":14155:14177   */\n      swap1\n      pop\n        /* \"#utility.yul\":14085:14184   */\n      swap2\n      swap1\n      pop\n      jump\t// out\n        /* \"#utility.yul\":14190:14303   */\n    tag_212:\n        /* \"#utility.yul\":14260:14264   */\n      0x00\n        /* \"#utility.yul\":14292:14296   */\n      0x20\n        /* \"#utility.yul\":14287:14290   */\n      dup3\n        /* \"#utility.yul\":14283:14297   */\n      add\n        /* \"#utility.yul\":14275:14297   */\n      swap1\n      pop\n        /* \"#utility.yul\":14190:14303   */\n      swap2\n      swap1\n      pop\n      jump\t// out\n        /* \"#utility.yul\":14309:14455   */\n    tag_226:\n        /* \"#utility.yul\":14412:14416   */\n      0x00\n        /* \"#utility.yul\":14444:14448   */\n      0x20\n        /* \"#utility.yul\":14439:14442   */\n      dup3\n        /* \"#utility.yul\":14435:14449   */\n      add\n        /* \"#utility.yul\":14427:14449   */\n      swap1\n      pop\n        /* \"#utility.yul\":14309:14455   */\n      swap2\n      swap1\n      pop\n      jump\t// out\n        /* \"#utility.yul\":14461:14645   */\n    tag_204:\n        /* \"#utility.yul\":14560:14571   */\n      0x00\n        /* \"#utility.yul\":14594:14600   */\n      dup3\n        /* \"#utility.yul\":14589:14592   */\n      dup3\n        /* \"#utility.yul\":14582:14601   */\n      mstore\n        /* \"#utility.yul\":14634:14638   */\n      0x20\n        /* \"#utility.yul\":14629:14632   */\n      dup3\n        /* \"#utility.yul\":14625:14639   */\n      add\n        /* \"#utility.yul\":14610:14639   */\n      swap1\n      pop\n        /* \"#utility.yul\":14461:14645   */\n      swap3\n      swap2\n      pop\n      pop\n      jump\t// out\n        /* \"#utility.yul\":14651:14868   */\n    tag_218:\n        /* \"#utility.yul\":14783:14794   */\n      0x00\n        /* \"#utility.yul\":14817:14823   */\n      dup3\n        /* \"#utility.yul\":14812:14815   */\n      dup3\n        /* \"#utility.yul\":14805:14824   */\n      mstore\n        /* \"#utility.yul\":14857:14861   */\n      0x20\n        /* \"#utility.yul\":14852:14855   */\n      dup3\n        /* \"#utility.yul\":14848:14862   */\n      add\n        /* \"#utility.yul\":14833:14862   */\n      swap1\n      pop\n        /* \"#utility.yul\":14651:14868   */\n      swap3\n      swap2\n      pop\n      pop\n      jump\t// out\n        /* \"#utility.yul\":14874:15043   */\n    tag_236:\n        /* \"#utility.yul\":14958:14969   */\n      0x00\n        /* \"#utility.yul\":14992:14998   */\n      dup3\n        /* \"#utility.yul\":14987:14990   */\n      dup3\n        /* \"#utility.yul\":14980:14999   */\n      mstore\n        /* \"#utility.yul\":15032:15036   */\n      0x20\n        /* \"#utility.yul\":15027:15030   */\n      dup3\n        /* \"#utility.yul\":15023:15037   */\n      add\n        /* \"#utility.yul\":15008:15037   */\n      swap1\n      pop\n        /* \"#utility.yul\":14874:15043   */\n      swap3\n      swap2\n      pop\n      pop\n      jump\t// out\n        /* \"#utility.yul\":15049:15240   */\n    tag_67:\n        /* \"#utility.yul\":15089:15093   */\n      0x00\n        /* \"#utility.yul\":15109:15129   */\n      tag_326\n        /* \"#utility.yul\":15127:15128   */\n      dup3\n        /* \"#utility.yul\":15109:15129   */\n      tag_272\n      jump\t// in\n    tag_326:\n        /* \"#utility.yul\":15104:15129   */\n      swap2\n      pop\n        /* \"#utility.yul\":15143:15163   */\n      tag_327\n        /* \"#utility.yul\":15161:15162   */\n      dup4\n        /* \"#utility.yul\":15143:15163   */\n      tag_272\n      jump\t// in\n    tag_327:\n        /* \"#utility.yul\":15138:15163   */\n      swap3\n      pop\n        /* \"#utility.yul\":15182:15183   */\n      dup3\n        /* \"#utility.yul\":15179:15180   */\n      dup3\n        /* \"#utility.yul\":15176:15184   */\n      lt\n        /* \"#utility.yul\":15173:15207   */\n      iszero\n      tag_328\n      jumpi\n        /* \"#utility.yul\":15187:15205   */\n      tag_329\n      tag_330\n      jump\t// in\n    tag_329:\n        /* \"#utility.yul\":15173:15207   */\n    tag_328:\n        /* \"#utility.yul\":15232:15233   */\n      dup3\n        /* \"#utility.yul\":15229:15230   */\n      dup3\n        /* \"#utility.yul\":15225:15234   */\n      sub\n        /* \"#utility.yul\":15217:15234   */\n      swap1\n      pop\n        /* \"#utility.yul\":15049:15240   */\n      swap3\n      swap2\n      pop\n      pop\n      jump\t// out\n        /* \"#utility.yul\":15246:15342   */\n    tag_195:\n        /* \"#utility.yul\":15283:15290   */\n      0x00\n        /* \"#utility.yul\":15312:15336   */\n      tag_332\n        /* \"#utility.yul\":15330:15335   */\n      dup3\n        /* \"#utility.yul\":15312:15336   */\n      tag_333\n      jump\t// in\n    tag_332:\n        /* \"#utility.yul\":15301:15336   */\n      swap1\n      pop\n        /* \"#utility.yul\":15246:15342   */\n      swap2\n      swap1\n      pop\n      jump\t// out\n        /* \"#utility.yul\":15348:15438   */\n    tag_230:\n        /* \"#utility.yul\":15382:15389   */\n      0x00\n        /* \"#utility.yul\":15425:15430   */\n      dup2\n        /* \"#utility.yul\":15418:15431   */\n      iszero\n        /* \"#utility.yul\":15411:15432   */\n      iszero\n        /* \"#utility.yul\":15400:15432   */\n      swap1\n      pop\n        /* \"#utility.yul\":15348:15438   */\n      swap2\n      swap1\n      pop\n      jump\t// out\n        /* \"#utility.yul\":15444:15570   */\n    tag_333:\n        /* \"#utility.yul\":15481:15488   */\n      0x00\n        /* \"#utility.yul\":15521:15563   */\n      0xffffffffffffffffffffffffffffffffffffffff\n        /* \"#utility.yul\":15514:15519   */\n      dup3\n        /* \"#utility.yul\":15510:15564   */\n      and\n        /* \"#utility.yul\":15499:15564   */\n      swap1\n      pop\n        /* \"#utility.yul\":15444:15570   */\n      swap2\n      swap1\n      pop\n      jump\t// out\n        /* \"#utility.yul\":15576:15653   */\n    tag_272:\n        /* \"#utility.yul\":15613:15620   */\n      0x00\n        /* \"#utility.yul\":15642:15647   */\n      dup2\n        /* \"#utility.yul\":15631:15647   */\n      swap1\n      pop\n        /* \"#utility.yul\":15576:15653   */\n      swap2\n      swap1\n      pop\n      jump\t// out\n        /* \"#utility.yul\":15659:15813   */\n    tag_156:\n        /* \"#utility.yul\":15743:15749   */\n      dup3\n        /* \"#utility.yul\":15738:15741   */\n      dup2\n        /* \"#utility.yul\":15733:15736   */\n      dup4\n        /* \"#utility.yul\":15720:15750   */\n      calldatacopy\n        /* \"#utility.yul\":15805:15806   */\n      0x00\n        /* \"#utility.yul\":15796:15802   */\n      dup4\n        /* \"#utility.yul\":15791:15794   */\n      dup4\n        /* \"#utility.yul\":15787:15803   */\n      add\n        /* \"#utility.yul\":15780:15807   */\n      mstore\n        /* \"#utility.yul\":15659:15813   */\n      pop\n      pop\n      pop\n      jump\t// out\n        /* \"#utility.yul\":15819:16126   */\n    tag_238:\n        /* \"#utility.yul\":15887:15888   */\n      0x00\n        /* \"#utility.yul\":15897:16010   */\n    tag_339:\n        /* \"#utility.yul\":15911:15917   */\n      dup4\n        /* \"#utility.yul\":15908:15909   */\n      dup2\n        /* \"#utility.yul\":15905:15918   */\n      lt\n        /* \"#utility.yul\":15897:16010   */\n      iszero\n      tag_341\n      jumpi\n        /* \"#utility.yul\":15996:15997   */\n      dup1\n        /* \"#utility.yul\":15991:15994   */\n      dup3\n        /* \"#utility.yul\":15987:15998   */\n      add\n        /* \"#utility.yul\":15981:15999   */\n      mload\n        /* \"#utility.yul\":15977:15978   */\n      dup2\n        /* \"#utility.yul\":15972:15975   */\n      dup5\n        /* \"#utility.yul\":15968:15979   */\n      add\n        /* \"#utility.yul\":15961:16000   */\n      mstore\n        /* \"#utility.yul\":15933:15935   */\n      0x20\n        /* \"#utility.yul\":15930:15931   */\n      dup2\n        /* \"#utility.yul\":15926:15936   */\n      add\n        /* \"#utility.yul\":15921:15936   */\n      swap1\n      pop\n        /* \"#utility.yul\":15897:16010   */\n      jump(tag_339)\n    tag_341:\n        /* \"#utility.yul\":16028:16034   */\n      dup4\n        /* \"#utility.yul\":16025:16026   */\n      dup2\n        /* \"#utility.yul\":16022:16035   */\n      gt\n        /* \"#utility.yul\":16019:16120   */\n      iszero\n      tag_342\n      jumpi\n        /* \"#utility.yul\":16108:16109   */\n      0x00\n        /* \"#utility.yul\":16099:16105   */\n      dup5\n        /* \"#utility.yul\":16094:16097   */\n      dup5\n        /* \"#utility.yul\":16090:16106   */\n      add\n        /* \"#utility.yul\":16083:16110   */\n      mstore\n        /* \"#utility.yul\":16019:16120   */\n    tag_342:\n        /* \"#utility.yul\":15868:16126   */\n      pop\n        /* \"#utility.yul\":15819:16126   */\n      pop\n      pop\n      pop\n      jump\t// out\n        /* \"#utility.yul\":16132:16303   */\n    tag_87:\n        /* \"#utility.yul\":16171:16174   */\n      0x00\n        /* \"#utility.yul\":16194:16218   */\n      tag_344\n        /* \"#utility.yul\":16212:16217   */\n      dup3\n        /* \"#utility.yul\":16194:16218   */\n      tag_272\n      jump\t// in\n    tag_344:\n        /* \"#utility.yul\":16185:16218   */\n      swap2\n      pop\n        /* \"#utility.yul\":16240:16244   */\n      0x00\n        /* \"#utility.yul\":16233:16238   */\n      dup3\n        /* \"#utility.yul\":16230:16245   */\n      eq\n        /* \"#utility.yul\":16227:16268   */\n      iszero\n      tag_345\n      jumpi\n        /* \"#utility.yul\":16248:16266   */\n      tag_346\n      tag_330\n      jump\t// in\n    tag_346:\n        /* \"#utility.yul\":16227:16268   */\n    tag_345:\n        /* \"#utility.yul\":16295:16296   */\n      0x01\n        /* \"#utility.yul\":16288:16293   */\n      dup3\n        /* \"#utility.yul\":16284:16297   */\n      sub\n        /* \"#utility.yul\":16277:16297   */\n      swap1\n      pop\n        /* \"#utility.yul\":16132:16303   */\n      swap2\n      swap1\n      pop\n      jump\t// out\n        /* \"#utility.yul\":16309:16629   */\n    tag_73:\n        /* \"#utility.yul\":16353:16359   */\n      0x00\n        /* \"#utility.yul\":16390:16391   */\n      0x02\n        /* \"#utility.yul\":16384:16388   */\n      dup3\n        /* \"#utility.yul\":16380:16392   */\n      div\n        /* \"#utility.yul\":16370:16392   */\n      swap1\n      pop\n        /* \"#utility.yul\":16437:16438   */\n      0x01\n        /* \"#utility.yul\":16431:16435   */\n      dup3\n        /* \"#utility.yul\":16427:16439   */\n      and\n        /* \"#utility.yul\":16458:16476   */\n      dup1\n        /* \"#utility.yul\":16448:16529   */\n      tag_348\n      jumpi\n        /* \"#utility.yul\":16514:16518   */\n      0x7f\n        /* \"#utility.yul\":16506:16512   */\n      dup3\n        /* \"#utility.yul\":16502:16519   */\n      and\n        /* \"#utility.yul\":16492:16519   */\n      swap2\n      pop\n        /* \"#utility.yul\":16448:16529   */\n    tag_348:\n        /* \"#utility.yul\":16576:16578   */\n      0x20\n        /* \"#utility.yul\":16568:16574   */\n      dup3\n        /* \"#utility.yul\":16565:16579   */\n      lt\n        /* \"#utility.yul\":16545:16563   */\n      dup2\n        /* \"#utility.yul\":16542:16580   */\n      eq\n        /* \"#utility.yul\":16539:16623   */\n      iszero\n      tag_349\n      jumpi\n        /* \"#utility.yul\":16595:16613   */\n      tag_350\n      tag_351\n      jump\t// in\n    tag_350:\n        /* \"#utility.yul\":16539:16623   */\n    tag_349:\n        /* \"#utility.yul\":16360:16629   */\n      pop\n        /* \"#utility.yul\":16309:16629   */\n      swap2\n      swap1\n      pop\n      jump\t// out\n        /* \"#utility.yul\":16635:16916   */\n    tag_309:\n        /* \"#utility.yul\":16718:16745   */\n      tag_353\n        /* \"#utility.yul\":16740:16744   */\n      dup3\n        /* \"#utility.yul\":16718:16745   */\n      tag_240\n      jump\t// in\n    tag_353:\n        /* \"#utility.yul\":16710:16716   */\n      dup2\n        /* \"#utility.yul\":16706:16746   */\n      add\n        /* \"#utility.yul\":16848:16854   */\n      dup2\n        /* \"#utility.yul\":16836:16846   */\n      dup2\n        /* \"#utility.yul\":16833:16855   */\n      lt\n        /* \"#utility.yul\":16812:16830   */\n      0xffffffffffffffff\n        /* \"#utility.yul\":16800:16810   */\n      dup3\n        /* \"#utility.yul\":16797:16831   */\n      gt\n        /* \"#utility.yul\":16794:16856   */\n      or\n        /* \"#utility.yul\":16791:16879   */\n      iszero\n      tag_354\n      jumpi\n        /* \"#utility.yul\":16859:16877   */\n      tag_355\n      tag_119\n      jump\t// in\n    tag_355:\n        /* \"#utility.yul\":16791:16879   */\n    tag_354:\n        /* \"#utility.yul\":16899:16909   */\n      dup1\n        /* \"#utility.yul\":16895:16897   */\n      0x40\n        /* \"#utility.yul\":16888:16910   */\n      mstore\n        /* \"#utility.yul\":16678:16916   */\n      pop\n        /* \"#utility.yul\":16635:16916   */\n      pop\n      pop\n      jump\t// out\n        /* \"#utility.yul\":16922:17155   */\n    tag_108:\n        /* \"#utility.yul\":16961:16964   */\n      0x00\n        /* \"#utility.yul\":16984:17008   */\n      tag_357\n        /* \"#utility.yul\":17002:17007   */\n      dup3\n        /* \"#utility.yul\":16984:17008   */\n      tag_272\n      jump\t// in\n    tag_357:\n        /* \"#utility.yul\":16975:17008   */\n      swap2\n      pop\n        /* \"#utility.yul\":17030:17096   */\n      0xffffffffffffffffffffffffffffffffffffffffffffffffffffffffffffffff\n        /* \"#utility.yul\":17023:17028   */\n      dup3\n        /* \"#utility.yul\":17020:17097   */\n      eq\n        /* \"#utility.yul\":17017:17120   */\n      iszero\n      tag_358\n      jumpi\n        /* \"#utility.yul\":17100:17118   */\n      tag_359\n      tag_330\n      jump\t// in\n    tag_359:\n        /* \"#utility.yul\":17017:17120   */\n    tag_358:\n        /* \"#utility.yul\":17147:17148   */\n      0x01\n        /* \"#utility.yul\":17140:17145   */\n      dup3\n        /* \"#utility.yul\":17136:17149   */\n      add\n        /* \"#utility.yul\":17129:17149   */\n      swap1\n      pop\n        /* \"#utility.yul\":16922:17155   */\n      swap2\n      swap1\n      pop\n      jump\t// out\n        /* \"#utility.yul\":17161:17341   */\n    tag_330:\n        /* \"#utility.yul\":17209:17286   */\n      0x4e487b7100000000000000000000000000000000000000000000000000000000\n        /* \"#utility.yul\":17206:17207   */\n      0x00\n        /* \"#utility.yul\":17199:17287   */\n      mstore\n        /* \"#utility.yul\":17306:17310   */\n      0x11\n        /* \"#utility.yul\":17303:17304   */\n      0x04\n        /* \"#utility.yul\":17296:17311   */\n      mstore\n        /* \"#utility.yul\":17330:17334   */\n      0x24\n        /* \"#utility.yul\":17327:17328   */\n      0x00\n        /* \"#utility.yul\":17320:17335   */\n      revert\n        /* \"#utility.yul\":17347:17527   */\n    tag_351:\n        /* \"#utility.yul\":17395:17472   */\n      0x4e487b7100000000000000000000000000000000000000000000000000000000\n        /* \"#utility.yul\":17392:17393   */\n      0x00\n        /* \"#utility.yul\":17385:17473   */\n      mstore\n        /* \"#utility.yul\":17492:17496   */\n      0x22\n        /* \"#utility.yul\":17489:17490   */\n      0x04\n        /* \"#utility.yul\":17482:17497   */\n      mstore\n        /* \"#utility.yul\":17516:17520   */\n      0x24\n        /* \"#utility.yul\":17513:17514   */\n      0x00\n        /* \"#utility.yul\":17506:17521   */\n      revert\n        /* \"#utility.yul\":17533:17713   */\n    tag_96:\n        /* \"#utility.yul\":17581:17658   */\n      0x4e487b7100000000000000000000000000000000000000000000000000000000\n        /* \"#utility.yul\":17578:17579   */\n      0x00\n        /* \"#utility.yul\":17571:17659   */\n      mstore\n        /* \"#utility.yul\":17678:17682   */\n      0x32\n        /* \"#utility.yul\":17675:17676   */\n      0x04\n        /* \"#utility.yul\":17668:17683   */\n      mstore\n        /* \"#utility.yul\":17702:17706   */\n      0x24\n        /* \"#utility.yul\":17699:17700   */\n      0x00\n        /* \"#utility.yul\":17692:17707   */\n      revert\n        /* \"#utility.yul\":17719:17899   */\n    tag_119:\n        /* \"#utility.yul\":17767:17844   */\n      0x4e487b7100000000000000000000000000000000000000000000000000000000\n        /* \"#utility.yul\":17764:17765   */\n      0x00\n        /* \"#utility.yul\":17757:17845   */\n      mstore\n        /* \"#utility.yul\":17864:17868   */\n      0x41\n        /* \"#utility.yul\":17861:17862   */\n      0x04\n        /* \"#utility.yul\":17854:17869   */\n      mstore\n        /* \"#utility.yul\":17888:17892   */\n      0x24\n        /* \"#utility.yul\":17885:17886   */\n      0x00\n        /* \"#utility.yul\":17878:17893   */\n      revert\n        /* \"#utility.yul\":17905:18022   */\n    tag_161:\n        /* \"#utility.yul\":18014:18015   */\n      0x00\n        /* \"#utility.yul\":18011:18012   */\n      dup1\n        /* \"#utility.yul\":18004:18016   */\n      revert\n        /* \"#utility.yul\":18028:18145   */\n    tag_154:\n        /* \"#utility.yul\":18137:18138   */\n      0x00\n        /* \"#utility.yul\":18134:18135   */\n      dup1\n        /* \"#utility.yul\":18127:18139   */\n      revert\n        /* \"#utility.yul\":18151:18268   */\n    tag_173:\n        /* \"#utility.yul\":18260:18261   */\n      0x00\n        /* \"#utility.yul\":18257:18258   */\n      dup1\n        /* \"#utility.yul\":18250:18262   */\n      revert\n        /* \"#utility.yul\":18274:18391   */\n    tag_170:\n        /* \"#utility.yul\":18383:18384   */\n      0x00\n        /* \"#utility.yul\":18380:18381   */\n      dup1\n        /* \"#utility.yul\":18373:18385   */\n      revert\n        /* \"#utility.yul\":18397:18499   */\n    tag_240:\n        /* \"#utility.yul\":18438:18444   */\n      0x00\n        /* \"#utility.yul\":18489:18491   */\n      0x1f\n        /* \"#utility.yul\":18485:18492   */\n      not\n        /* \"#utility.yul\":18480:18482   */\n      0x1f\n        /* \"#utility.yul\":18473:18478   */\n      dup4\n        /* \"#utility.yul\":18469:18483   */\n      add\n        /* \"#utility.yul\":18465:18493   */\n      and\n        /* \"#utility.yul\":18455:18493   */\n      swap1\n      pop\n        /* \"#utility.yul\":18397:18499   */\n      swap2\n      swap1\n      pop\n      jump\t// out\n        /* \"#utility.yul\":18505:18686   */\n    tag_245:\n        /* \"#utility.yul\":18645:18678   */\n      0x5573657220686173206e6f7420626f72726f776564207468697320626f6f6b00\n        /* \"#utility.yul\":18641:18642   */\n      0x00\n        /* \"#utility.yul\":18633:18639   */\n      dup3\n        /* \"#utility.yul\":18629:18643   */\n      add\n        /* \"#utility.yul\":18622:18679   */\n      mstore\n        /* \"#utility.yul\":18505:18686   */\n      pop\n      jump\t// out\n        /* \"#utility.yul\":18692:18861   */\n    tag_250:\n        /* \"#utility.yul\":18832:18853   */\n      0x426f6f6b206e6f7420696e206c69627261727900000000000000000000000000\n        /* \"#utility.yul\":18828:18829   */\n      0x00\n        /* \"#utility.yul\":18820:18826   */\n      dup3\n        /* \"#utility.yul\":18816:18830   */\n      add\n        /* \"#utility.yul\":18809:18854   */\n      mstore\n        /* \"#utility.yul\":18692:18861   */\n      pop\n      jump\t// out\n        /* \"#utility.yul\":18867:19041   */\n    tag_255:\n        /* \"#utility.yul\":19007:19033   */\n      0x4e6f20626f6f6b20636f7069657320617661696c61626c650000000000000000\n        /* \"#utility.yul\":19003:19004   */\n      0x00\n        /* \"#utility.yul\":18995:19001   */\n      dup3\n        /* \"#utility.yul\":18991:19005   */\n      add\n        /* \"#utility.yul\":18984:19034   */\n      mstore\n        /* \"#utility.yul\":18867:19041   */\n      pop\n      jump\t// out\n        /* \"#utility.yul\":19047:19221   */\n    tag_260:\n        /* \"#utility.yul\":19187:19213   */\n      0x4e6f7420696e766f6b656420627920746865206f776e65720000000000000000\n        /* \"#utility.yul\":19183:19184   */\n      0x00\n        /* \"#utility.yul\":19175:19181   */\n      dup3\n        /* \"#utility.yul\":19171:19185   */\n      add\n        /* \"#utility.yul\":19164:19214   */\n      mstore\n        /* \"#utility.yul\":19047:19221   */\n      pop\n      jump\t// out\n        /* \"#utility.yul\":19227:19408   */\n    tag_265:\n        /* \"#utility.yul\":19367:19400   */\n      0x5573657220616c726561647920626f72726f776564207468697320626f6f6b00\n        /* \"#utility.yul\":19363:19364   */\n      0x00\n        /* \"#utility.yul\":19355:19361   */\n      dup3\n        /* \"#utility.yul\":19351:19365   */\n      add\n        /* \"#utility.yul\":19344:19401   */\n      mstore\n        /* \"#utility.yul\":19227:19408   */\n      pop\n      jump\t// out\n        /* \"#utility.yul\":19414:19536   */\n    tag_166:\n        /* \"#utility.yul\":19487:19511   */\n      tag_375\n        /* \"#utility.yul\":19505:19510   */\n      dup2\n        /* \"#utility.yul\":19487:19511   */\n      tag_272\n      jump\t// in\n    tag_375:\n        /* \"#utility.yul\":19480:19485   */\n      dup2\n        /* \"#utility.yul\":19477:19512   */\n      eq\n        /* \"#utility.yul\":19467:19530   */\n      tag_376\n      jumpi\n        /* \"#utility.yul\":19526:19527   */\n      0x00\n        /* \"#utility.yul\":19523:19524   */\n      dup1\n        /* \"#utility.yul\":19516:19528   */\n      revert\n        /* \"#utility.yul\":19467:19530   */\n    tag_376:\n        /* \"#utility.yul\":19414:19536   */\n      pop\n      jump\t// out\n\n    auxdata: 0xa26469706673582212207922b5b5be20f597db5c47cb561a04af7ca1a9fb0017016a7820029e1507bd9564736f6c63430008070033\n}\n",
				"bytecode": {
					"linkReferences": {},
					"object": "608060405234801561001057600080fd5b50336000806101000a81548173ffffffffffffffffffffffffffffffffffffffff021916908373ffffffffffffffffffffffffffffffffffffffff16021790555061167d806100606000396000f3fe608060405234801561001057600080fd5b506004361061009e5760003560e01c8063a1e3c28e11610066578063a1e3c28e1461015a578063a78de6e81461018a578063ca5140c9146101a6578063d6c084d9146101c2578063e1b4814f146101e05761009e565b806342cb7580146100a3578063637a3872146100d357806368744046146100ef5780637e490a9e146101205780638da5cb5b1461013c575b600080fd5b6100bd60048036038101906100b89190610dc4565b610210565b6040516100ca9190611052565b60405180910390f35b6100ed60048036038101906100e89190610d3b565b61025e565b005b61010960048036038101906101049190610d97565b6103ca565b6040516101179291906110b1565b60405180910390f35b61013a60048036038101906101359190610d97565b610493565b005b6101446106e3565b6040516101519190611052565b60405180910390f35b610174600480360381019061016f9190610d97565b610707565b6040516101819190611181565b60405180910390f35b6101a4600480360381019061019f9190610dc4565b61071f565b005b6101c060048036038101906101bb9190610d97565b61088f565b005b6101ca610a0f565b6040516101d7919061108f565b60405180910390f35b6101fa60048036038101906101f59190610d97565b610b58565b604051610207919061106d565b60405180910390f35b6004602052816000526040600020818154811061022c57600080fd5b906000526020600020016000915091509054906101000a900473ffffffffffffffffffffffffffffffffffffffff1681565b3373ffffffffffffffffffffffffffffffffffffffff1660008054906101000a900473ffffffffffffffffffffffffffffffffffffffff1673ffffffffffffffffffffffffffffffffffffffff16146102ec576040517f08c379a00000000000000000000000000000000000000000000000000000000081526004016102e390611141565b60405180910390fd5b60036040518060400160405280848152602001600115158152509080600181540180825580915050600190039060005260206000209060020201600090919091909150600082015181600001908051906020019061034b929190610bf9565b5060208201518160010160006101000a81548160ff02191690831515021790555050506000600160038054905061038291906112ee565b90507ff28b4f7e52e9859ee83d34999feac48c8198ba0fc5b0d867ae01064191e7484c816040516103b39190611181565b60405180910390a16103c5818361071f565b505050565b600381815481106103da57600080fd5b90600052602060002090600202016000915090508060000180546103fd906113d6565b80601f0160208091040260200160405190810160405280929190818152602001828054610429906113d6565b80156104765780601f1061044b57610100808354040283529160200191610476565b820191906000526020600020905b81548152906001019060200180831161045957829003601f168201915b5050505050908060010160009054906101000a900460ff16905082565b60003390506001600083815260200190815260200160002060008273ffffffffffffffffffffffffffffffffffffffff1673ffffffffffffffffffffffffffffffffffffffff16815260200190815260200160002060009054906101000a900460ff1615610536576040517f08c379a000000000000000000000000000000000000000000000000000000000815260040161052d90611161565b60405180910390fd5b600060026000848152602001908152602001600020541161058c576040517f08c379a000000000000000000000000000000000000000000000000000000000815260040161058390611121565b60405180910390fd5b600180600084815260200190815260200160002060008373ffffffffffffffffffffffffffffffffffffffff1673ffffffffffffffffffffffffffffffffffffffff16815260200190815260200160002060006101000a81548160ff02191690831515021790555060046000838152602001908152602001600020819080600181540180825580915050600190039060005260206000200160009091909190916101000a81548173ffffffffffffffffffffffffffffffffffffffff021916908373ffffffffffffffffffffffffffffffffffffffff16021790555060026000838152602001908152602001600020600081548092919061068c906113ac565b91905055507fbb2c37eab45367d500c425b7a28430e8f309d8b3905fd5a2942e5179f5737db9828260026000868152602001908152602001600020546040516106d79392919061119c565b60405180910390a15050565b60008054906101000a900473ffffffffffffffffffffffffffffffffffffffff1681565b60026020528060005260406000206000915090505481565b3373ffffffffffffffffffffffffffffffffffffffff1660008054906101000a900473ffffffffffffffffffffffffffffffffffffffff1673ffffffffffffffffffffffffffffffffffffffff16146107ad576040517f08c379a00000000000000000000000000000000000000000000000000000000081526004016107a490611141565b60405180910390fd5b600382815481106107c1576107c06114e0565b5b906000526020600020906002020160010160009054906101000a900460ff1661081f576040517f08c379a000000000000000000000000000000000000000000000000000000000815260040161081690611101565b60405180910390fd5b6000600260008481526020019081526020016000205490508160026000858152602001908152602001600020819055507f367b4674c3f33d01759accec115296aa4040b06aa011f14b813546486c85ae30838284604051610882939291906111d3565b60405180910390a1505050565b6001600082815260200190815260200160002060003373ffffffffffffffffffffffffffffffffffffffff1673ffffffffffffffffffffffffffffffffffffffff16815260200190815260200160002060009054906101000a900460ff1661092c576040517f08c379a0000000000000000000000000000000000000000000000000000000008152600401610923906110e1565b60405180910390fd5b60006001600083815260200190815260200160002060003373ffffffffffffffffffffffffffffffffffffffff1673ffffffffffffffffffffffffffffffffffffffff16815260200190815260200160002060006101000a81548160ff0219169083151502179055506002600082815260200190815260200160002060008154809291906109b990611439565b91905055507f204314827ed2d8c0ad779da943ba655fbfdd6931ec0845ec1932105ba231dc9481336002600085815260200190815260200160002054604051610a049392919061119c565b60405180910390a150565b60606000805b600380549050811015610a6057600060026000838152602001908152602001600020541115610a4d578180610a4990611439565b9250505b8080610a5890611439565b915050610a15565b5060008167ffffffffffffffff811115610a7d57610a7c61150f565b5b604051908082528060200260200182016040528015610ab657816020015b610aa3610c7f565b815260200190600190039081610a9b5790505b5090506000805b600380549050811015610b4e57600060026000838152602001908152602001600020541115610b3b5760405180604001604052808281526020016002600084815260200190815260200160002054815250838381518110610b2157610b206114e0565b5b60200260200101819052508180610b3790611439565b9250505b8080610b4690611439565b915050610abd565b5081935050505090565b606060046000838152602001908152602001600020805480602002602001604051908101604052809291908181526020018280548015610bed57602002820191906000526020600020905b8160009054906101000a900473ffffffffffffffffffffffffffffffffffffffff1673ffffffffffffffffffffffffffffffffffffffff1681526020019060010190808311610ba3575b50505050509050919050565b828054610c05906113d6565b90600052602060002090601f016020900481019282610c275760008555610c6e565b82601f10610c4057805160ff1916838001178555610c6e565b82800160010185558215610c6e579182015b82811115610c6d578251825591602001919060010190610c52565b5b509050610c7b9190610c99565b5090565b604051806040016040528060008152602001600081525090565b5b80821115610cb2576000816000905550600101610c9a565b5090565b6000610cc9610cc48461122f565b61120a565b905082815260208101848484011115610ce557610ce4611543565b5b610cf084828561136a565b509392505050565b600082601f830112610d0d57610d0c61153e565b5b8135610d1d848260208601610cb6565b91505092915050565b600081359050610d3581611630565b92915050565b60008060408385031215610d5257610d5161154d565b5b600083013567ffffffffffffffff811115610d7057610d6f611548565b5b610d7c85828601610cf8565b9250506020610d8d85828601610d26565b9150509250929050565b600060208284031215610dad57610dac61154d565b5b6000610dbb84828501610d26565b91505092915050565b60008060408385031215610ddb57610dda61154d565b5b6000610de985828601610d26565b9250506020610dfa85828601610d26565b9150509250929050565b6000610e108383610e34565b60208301905092915050565b6000610e288383611005565b60408301905092915050565b610e3d81611322565b82525050565b610e4c81611322565b82525050565b6000610e5d82611280565b610e6781856112bb565b9350610e7283611260565b8060005b83811015610ea3578151610e8a8882610e04565b9750610e95836112a1565b925050600181019050610e76565b5085935050505092915050565b6000610ebb8261128b565b610ec581856112cc565b9350610ed083611270565b8060005b83811015610f01578151610ee88882610e1c565b9750610ef3836112ae565b925050600181019050610ed4565b5085935050505092915050565b610f1781611334565b82525050565b6000610f2882611296565b610f3281856112dd565b9350610f42818560208601611379565b610f4b81611552565b840191505092915050565b6000610f63601f836112dd565b9150610f6e82611563565b602082019050919050565b6000610f866013836112dd565b9150610f918261158c565b602082019050919050565b6000610fa96018836112dd565b9150610fb4826115b5565b602082019050919050565b6000610fcc6018836112dd565b9150610fd7826115de565b602082019050919050565b6000610fef601f836112dd565b9150610ffa82611607565b602082019050919050565b60408201600082015161101b6000850182611034565b50602082015161102e6020850182611034565b50505050565b61103d81611360565b82525050565b61104c81611360565b82525050565b60006020820190506110676000830184610e43565b92915050565b600060208201905081810360008301526110878184610e52565b905092915050565b600060208201905081810360008301526110a98184610eb0565b905092915050565b600060408201905081810360008301526110cb8185610f1d565b90506110da6020830184610f0e565b9392505050565b600060208201905081810360008301526110fa81610f56565b9050919050565b6000602082019050818103600083015261111a81610f79565b9050919050565b6000602082019050818103600083015261113a81610f9c565b9050919050565b6000602082019050818103600083015261115a81610fbf565b9050919050565b6000602082019050818103600083015261117a81610fe2565b9050919050565b60006020820190506111966000830184611043565b92915050565b60006060820190506111b16000830186611043565b6111be6020830185610e43565b6111cb6040830184611043565b949350505050565b60006060820190506111e86000830186611043565b6111f56020830185611043565b6112026040830184611043565b949350505050565b6000611214611225565b90506112208282611408565b919050565b6000604051905090565b600067ffffffffffffffff82111561124a5761124961150f565b5b61125382611552565b9050602081019050919050565b6000819050602082019050919050565b6000819050602082019050919050565b600081519050919050565b600081519050919050565b600081519050919050565b6000602082019050919050565b6000602082019050919050565b600082825260208201905092915050565b600082825260208201905092915050565b600082825260208201905092915050565b60006112f982611360565b915061130483611360565b92508282101561131757611316611482565b5b828203905092915050565b600061132d82611340565b9050919050565b60008115159050919050565b600073ffffffffffffffffffffffffffffffffffffffff82169050919050565b6000819050919050565b82818337600083830152505050565b60005b8381101561139757808201518184015260208101905061137c565b838111156113a6576000848401525b50505050565b60006113b782611360565b915060008214156113cb576113ca611482565b5b600182039050919050565b600060028204905060018216806113ee57607f821691505b60208210811415611402576114016114b1565b5b50919050565b61141182611552565b810181811067ffffffffffffffff821117156114305761142f61150f565b5b80604052505050565b600061144482611360565b91507fffffffffffffffffffffffffffffffffffffffffffffffffffffffffffffffff82141561147757611476611482565b5b600182019050919050565b7f4e487b7100000000000000000000000000000000000000000000000000000000600052601160045260246000fd5b7f4e487b7100000000000000000000000000000000000000000000000000000000600052602260045260246000fd5b7f4e487b7100000000000000000000000000000000000000000000000000000000600052603260045260246000fd5b7f4e487b7100000000000000000000000000000000000000000000000000000000600052604160045260246000fd5b600080fd5b600080fd5b600080fd5b600080fd5b6000601f19601f8301169050919050565b7f5573657220686173206e6f7420626f72726f776564207468697320626f6f6b00600082015250565b7f426f6f6b206e6f7420696e206c69627261727900000000000000000000000000600082015250565b7f4e6f20626f6f6b20636f7069657320617661696c61626c650000000000000000600082015250565b7f4e6f7420696e766f6b656420627920746865206f776e65720000000000000000600082015250565b7f5573657220616c726561647920626f72726f776564207468697320626f6f6b00600082015250565b61163981611360565b811461164457600080fd5b5056fea26469706673582212207922b5b5be20f597db5c47cb561a04af7ca1a9fb0017016a7820029e1507bd9564736f6c63430008070033",
					"opcodes": "PUSH1 0x80 PUSH1 0x40 MSTORE CALLVALUE DUP1 ISZERO PUSH2 0x10 JUMPI PUSH1 0x0 DUP1 REVERT JUMPDEST POP CALLER PUSH1 0x0 DUP1 PUSH2 0x100 EXP DUP2 SLOAD DUP2 PUSH20 0xFFFFFFFFFFFFFFFFFFFFFFFFFFFFFFFFFFFFFFFF MUL NOT AND SWAP1 DUP4 PUSH20 0xFFFFFFFFFFFFFFFFFFFFFFFFFFFFFFFFFFFFFFFF AND MUL OR SWAP1 SSTORE POP PUSH2 0x167D DUP1 PUSH2 0x60 PUSH1 0x0 CODECOPY PUSH1 0x0 RETURN INVALID PUSH1 0x80 PUSH1 0x40 MSTORE CALLVALUE DUP1 ISZERO PUSH2 0x10 JUMPI PUSH1 0x0 DUP1 REVERT JUMPDEST POP PUSH1 0x4 CALLDATASIZE LT PUSH2 0x9E JUMPI PUSH1 0x0 CALLDATALOAD PUSH1 0xE0 SHR DUP1 PUSH4 0xA1E3C28E GT PUSH2 0x66 JUMPI DUP1 PUSH4 0xA1E3C28E EQ PUSH2 0x15A JUMPI DUP1 PUSH4 0xA78DE6E8 EQ PUSH2 0x18A JUMPI DUP1 PUSH4 0xCA5140C9 EQ PUSH2 0x1A6 JUMPI DUP1 PUSH4 0xD6C084D9 EQ PUSH2 0x1C2 JUMPI DUP1 PUSH4 0xE1B4814F EQ PUSH2 0x1E0 JUMPI PUSH2 0x9E JUMP JUMPDEST DUP1 PUSH4 0x42CB7580 EQ PUSH2 0xA3 JUMPI DUP1 PUSH4 0x637A3872 EQ PUSH2 0xD3 JUMPI DUP1 PUSH4 0x68744046 EQ PUSH2 0xEF JUMPI DUP1 PUSH4 0x7E490A9E EQ PUSH2 0x120 JUMPI DUP1 PUSH4 0x8DA5CB5B EQ PUSH2 0x13C JUMPI JUMPDEST PUSH1 0x0 DUP1 REVERT JUMPDEST PUSH2 0xBD PUSH1 0x4 DUP1 CALLDATASIZE SUB DUP2 ADD SWAP1 PUSH2 0xB8 SWAP2 SWAP1 PUSH2 0xDC4 JUMP JUMPDEST PUSH2 0x210 JUMP JUMPDEST PUSH1 0x40 MLOAD PUSH2 0xCA SWAP2 SWAP1 PUSH2 0x1052 JUMP JUMPDEST PUSH1 0x40 MLOAD DUP1 SWAP2 SUB SWAP1 RETURN JUMPDEST PUSH2 0xED PUSH1 0x4 DUP1 CALLDATASIZE SUB DUP2 ADD SWAP1 PUSH2 0xE8 SWAP2 SWAP1 PUSH2 0xD3B JUMP JUMPDEST PUSH2 0x25E JUMP JUMPDEST STOP JUMPDEST PUSH2 0x109 PUSH1 0x4 DUP1 CALLDATASIZE SUB DUP2 ADD SWAP1 PUSH2 0x104 SWAP2 SWAP1 PUSH2 0xD97 JUMP JUMPDEST PUSH2 0x3CA JUMP JUMPDEST PUSH1 0x40 MLOAD PUSH2 0x117 SWAP3 SWAP2 SWAP1 PUSH2 0x10B1 JUMP JUMPDEST PUSH1 0x40 MLOAD DUP1 SWAP2 SUB SWAP1 RETURN JUMPDEST PUSH2 0x13A PUSH1 0x4 DUP1 CALLDATASIZE SUB DUP2 ADD SWAP1 PUSH2 0x135 SWAP2 SWAP1 PUSH2 0xD97 JUMP JUMPDEST PUSH2 0x493 JUMP JUMPDEST STOP JUMPDEST PUSH2 0x144 PUSH2 0x6E3 JUMP JUMPDEST PUSH1 0x40 MLOAD PUSH2 0x151 SWAP2 SWAP1 PUSH2 0x1052 JUMP JUMPDEST PUSH1 0x40 MLOAD DUP1 SWAP2 SUB SWAP1 RETURN JUMPDEST PUSH2 0x174 PUSH1 0x4 DUP1 CALLDATASIZE SUB DUP2 ADD SWAP1 PUSH2 0x16F SWAP2 SWAP1 PUSH2 0xD97 JUMP JUMPDEST PUSH2 0x707 JUMP JUMPDEST PUSH1 0x40 MLOAD PUSH2 0x181 SWAP2 SWAP1 PUSH2 0x1181 JUMP JUMPDEST PUSH1 0x40 MLOAD DUP1 SWAP2 SUB SWAP1 RETURN JUMPDEST PUSH2 0x1A4 PUSH1 0x4 DUP1 CALLDATASIZE SUB DUP2 ADD SWAP1 PUSH2 0x19F SWAP2 SWAP1 PUSH2 0xDC4 JUMP JUMPDEST PUSH2 0x71F JUMP JUMPDEST STOP JUMPDEST PUSH2 0x1C0 PUSH1 0x4 DUP1 CALLDATASIZE SUB DUP2 ADD SWAP1 PUSH2 0x1BB SWAP2 SWAP1 PUSH2 0xD97 JUMP JUMPDEST PUSH2 0x88F JUMP JUMPDEST STOP JUMPDEST PUSH2 0x1CA PUSH2 0xA0F JUMP JUMPDEST PUSH1 0x40 MLOAD PUSH2 0x1D7 SWAP2 SWAP1 PUSH2 0x108F JUMP JUMPDEST PUSH1 0x40 MLOAD DUP1 SWAP2 SUB SWAP1 RETURN JUMPDEST PUSH2 0x1FA PUSH1 0x4 DUP1 CALLDATASIZE SUB DUP2 ADD SWAP1 PUSH2 0x1F5 SWAP2 SWAP1 PUSH2 0xD97 JUMP JUMPDEST PUSH2 0xB58 JUMP JUMPDEST PUSH1 0x40 MLOAD PUSH2 0x207 SWAP2 SWAP1 PUSH2 0x106D JUMP JUMPDEST PUSH1 0x40 MLOAD DUP1 SWAP2 SUB SWAP1 RETURN JUMPDEST PUSH1 0x4 PUSH1 0x20 MSTORE DUP2 PUSH1 0x0 MSTORE PUSH1 0x40 PUSH1 0x0 KECCAK256 DUP2 DUP2 SLOAD DUP2 LT PUSH2 0x22C JUMPI PUSH1 0x0 DUP1 REVERT JUMPDEST SWAP1 PUSH1 0x0 MSTORE PUSH1 0x20 PUSH1 0x0 KECCAK256 ADD PUSH1 0x0 SWAP2 POP SWAP2 POP SWAP1 SLOAD SWAP1 PUSH2 0x100 EXP SWAP1 DIV PUSH20 0xFFFFFFFFFFFFFFFFFFFFFFFFFFFFFFFFFFFFFFFF AND DUP2 JUMP JUMPDEST CALLER PUSH20 0xFFFFFFFFFFFFFFFFFFFFFFFFFFFFFFFFFFFFFFFF AND PUSH1 0x0 DUP1 SLOAD SWAP1 PUSH2 0x100 EXP SWAP1 DIV PUSH20 0xFFFFFFFFFFFFFFFFFFFFFFFFFFFFFFFFFFFFFFFF AND PUSH20 0xFFFFFFFFFFFFFFFFFFFFFFFFFFFFFFFFFFFFFFFF AND EQ PUSH2 0x2EC JUMPI PUSH1 0x40 MLOAD PUSH32 0x8C379A000000000000000000000000000000000000000000000000000000000 DUP2 MSTORE PUSH1 0x4 ADD PUSH2 0x2E3 SWAP1 PUSH2 0x1141 JUMP JUMPDEST PUSH1 0x40 MLOAD DUP1 SWAP2 SUB SWAP1 REVERT JUMPDEST PUSH1 0x3 PUSH1 0x40 MLOAD DUP1 PUSH1 0x40 ADD PUSH1 0x40 MSTORE DUP1 DUP5 DUP2 MSTORE PUSH1 0x20 ADD PUSH1 0x1 ISZERO ISZERO DUP2 MSTORE POP SWAP1 DUP1 PUSH1 0x1 DUP2 SLOAD ADD DUP1 DUP3 SSTORE DUP1 SWAP2 POP POP PUSH1 0x1 SWAP1 SUB SWAP1 PUSH1 0x0 MSTORE PUSH1 0x20 PUSH1 0x0 KECCAK256 SWAP1 PUSH1 0x2 MUL ADD PUSH1 0x0 SWAP1 SWAP2 SWAP1 SWAP2 SWAP1 SWAP2 POP PUSH1 0x0 DUP3 ADD MLOAD DUP2 PUSH1 0x0 ADD SWAP1 DUP1 MLOAD SWAP1 PUSH1 0x20 ADD SWAP1 PUSH2 0x34B SWAP3 SWAP2 SWAP1 PUSH2 0xBF9 JUMP JUMPDEST POP PUSH1 0x20 DUP3 ADD MLOAD DUP2 PUSH1 0x1 ADD PUSH1 0x0 PUSH2 0x100 EXP DUP2 SLOAD DUP2 PUSH1 0xFF MUL NOT AND SWAP1 DUP4 ISZERO ISZERO MUL OR SWAP1 SSTORE POP POP POP PUSH1 0x0 PUSH1 0x1 PUSH1 0x3 DUP1 SLOAD SWAP1 POP PUSH2 0x382 SWAP2 SWAP1 PUSH2 0x12EE JUMP JUMPDEST SWAP1 POP PUSH32 0xF28B4F7E52E9859EE83D34999FEAC48C8198BA0FC5B0D867AE01064191E7484C DUP2 PUSH1 0x40 MLOAD PUSH2 0x3B3 SWAP2 SWAP1 PUSH2 0x1181 JUMP JUMPDEST PUSH1 0x40 MLOAD DUP1 SWAP2 SUB SWAP1 LOG1 PUSH2 0x3C5 DUP2 DUP4 PUSH2 0x71F JUMP JUMPDEST POP POP POP JUMP JUMPDEST PUSH1 0x3 DUP2 DUP2 SLOAD DUP2 LT PUSH2 0x3DA JUMPI PUSH1 0x0 DUP1 REVERT JUMPDEST SWAP1 PUSH1 0x0 MSTORE PUSH1 0x20 PUSH1 0x0 KECCAK256 SWAP1 PUSH1 0x2 MUL ADD PUSH1 0x0 SWAP2 POP SWAP1 POP DUP1 PUSH1 0x0 ADD DUP1 SLOAD PUSH2 0x3FD SWAP1 PUSH2 0x13D6 JUMP JUMPDEST DUP1 PUSH1 0x1F ADD PUSH1 0x20 DUP1 SWAP2 DIV MUL PUSH1 0x20 ADD PUSH1 0x40 MLOAD SWAP1 DUP2 ADD PUSH1 0x40 MSTORE DUP1 SWAP3 SWAP2 SWAP1 DUP2 DUP2 MSTORE PUSH1 0x20 ADD DUP3 DUP1 SLOAD PUSH2 0x429 SWAP1 PUSH2 0x13D6 JUMP JUMPDEST DUP1 ISZERO PUSH2 0x476 JUMPI DUP1 PUSH1 0x1F LT PUSH2 0x44B JUMPI PUSH2 0x100 DUP1 DUP4 SLOAD DIV MUL DUP4 MSTORE SWAP2 PUSH1 0x20 ADD SWAP2 PUSH2 0x476 JUMP JUMPDEST DUP3 ADD SWAP2 SWAP1 PUSH1 0x0 MSTORE PUSH1 0x20 PUSH1 0x0 KECCAK256 SWAP1 JUMPDEST DUP2 SLOAD DUP2 MSTORE SWAP1 PUSH1 0x1 ADD SWAP1 PUSH1 0x20 ADD DUP1 DUP4 GT PUSH2 0x459 JUMPI DUP3 SWAP1 SUB PUSH1 0x1F AND DUP3 ADD SWAP2 JUMPDEST POP POP POP POP POP SWAP1 DUP1 PUSH1 0x1 ADD PUSH1 0x0 SWAP1 SLOAD SWAP1 PUSH2 0x100 EXP SWAP1 DIV PUSH1 0xFF AND SWAP1 POP DUP3 JUMP JUMPDEST PUSH1 0x0 CALLER SWAP1 POP PUSH1 0x1 PUSH1 0x0 DUP4 DUP2 MSTORE PUSH1 0x20 ADD SWAP1 DUP2 MSTORE PUSH1 0x20 ADD PUSH1 0x0 KECCAK256 PUSH1 0x0 DUP3 PUSH20 0xFFFFFFFFFFFFFFFFFFFFFFFFFFFFFFFFFFFFFFFF AND PUSH20 0xFFFFFFFFFFFFFFFFFFFFFFFFFFFFFFFFFFFFFFFF AND DUP2 MSTORE PUSH1 0x20 ADD SWAP1 DUP2 MSTORE PUSH1 0x20 ADD PUSH1 0x0 KECCAK256 PUSH1 0x0 SWAP1 SLOAD SWAP1 PUSH2 0x100 EXP SWAP1 DIV PUSH1 0xFF AND ISZERO PUSH2 0x536 JUMPI PUSH1 0x40 MLOAD PUSH32 0x8C379A000000000000000000000000000000000000000000000000000000000 DUP2 MSTORE PUSH1 0x4 ADD PUSH2 0x52D SWAP1 PUSH2 0x1161 JUMP JUMPDEST PUSH1 0x40 MLOAD DUP1 SWAP2 SUB SWAP1 REVERT JUMPDEST PUSH1 0x0 PUSH1 0x2 PUSH1 0x0 DUP5 DUP2 MSTORE PUSH1 0x20 ADD SWAP1 DUP2 MSTORE PUSH1 0x20 ADD PUSH1 0x0 KECCAK256 SLOAD GT PUSH2 0x58C JUMPI PUSH1 0x40 MLOAD PUSH32 0x8C379A000000000000000000000000000000000000000000000000000000000 DUP2 MSTORE PUSH1 0x4 ADD PUSH2 0x583 SWAP1 PUSH2 0x1121 JUMP JUMPDEST PUSH1 0x40 MLOAD DUP1 SWAP2 SUB SWAP1 REVERT JUMPDEST PUSH1 0x1 DUP1 PUSH1 0x0 DUP5 DUP2 MSTORE PUSH1 0x20 ADD SWAP1 DUP2 MSTORE PUSH1 0x20 ADD PUSH1 0x0 KECCAK256 PUSH1 0x0 DUP4 PUSH20 0xFFFFFFFFFFFFFFFFFFFFFFFFFFFFFFFFFFFFFFFF AND PUSH20 0xFFFFFFFFFFFFFFFFFFFFFFFFFFFFFFFFFFFFFFFF AND DUP2 MSTORE PUSH1 0x20 ADD SWAP1 DUP2 MSTORE PUSH1 0x20 ADD PUSH1 0x0 KECCAK256 PUSH1 0x0 PUSH2 0x100 EXP DUP2 SLOAD DUP2 PUSH1 0xFF MUL NOT AND SWAP1 DUP4 ISZERO ISZERO MUL OR SWAP1 SSTORE POP PUSH1 0x4 PUSH1 0x0 DUP4 DUP2 MSTORE PUSH1 0x20 ADD SWAP1 DUP2 MSTORE PUSH1 0x20 ADD PUSH1 0x0 KECCAK256 DUP2 SWAP1 DUP1 PUSH1 0x1 DUP2 SLOAD ADD DUP1 DUP3 SSTORE DUP1 SWAP2 POP POP PUSH1 0x1 SWAP1 SUB SWAP1 PUSH1 0x0 MSTORE PUSH1 0x20 PUSH1 0x0 KECCAK256 ADD PUSH1 0x0 SWAP1 SWAP2 SWAP1 SWAP2 SWAP1 SWAP2 PUSH2 0x100 EXP DUP2 SLOAD DUP2 PUSH20 0xFFFFFFFFFFFFFFFFFFFFFFFFFFFFFFFFFFFFFFFF MUL NOT AND SWAP1 DUP4 PUSH20 0xFFFFFFFFFFFFFFFFFFFFFFFFFFFFFFFFFFFFFFFF AND MUL OR SWAP1 SSTORE POP PUSH1 0x2 PUSH1 0x0 DUP4 DUP2 MSTORE PUSH1 0x20 ADD SWAP1 DUP2 MSTORE PUSH1 0x20 ADD PUSH1 0x0 KECCAK256 PUSH1 0x0 DUP2 SLOAD DUP1 SWAP3 SWAP2 SWAP1 PUSH2 0x68C SWAP1 PUSH2 0x13AC JUMP JUMPDEST SWAP2 SWAP1 POP SSTORE POP PUSH32 0xBB2C37EAB45367D500C425B7A28430E8F309D8B3905FD5A2942E5179F5737DB9 DUP3 DUP3 PUSH1 0x2 PUSH1 0x0 DUP7 DUP2 MSTORE PUSH1 0x20 ADD SWAP1 DUP2 MSTORE PUSH1 0x20 ADD PUSH1 0x0 KECCAK256 SLOAD PUSH1 0x40 MLOAD PUSH2 0x6D7 SWAP4 SWAP3 SWAP2 SWAP1 PUSH2 0x119C JUMP JUMPDEST PUSH1 0x40 MLOAD DUP1 SWAP2 SUB SWAP1 LOG1 POP POP JUMP JUMPDEST PUSH1 0x0 DUP1 SLOAD SWAP1 PUSH2 0x100 EXP SWAP1 DIV PUSH20 0xFFFFFFFFFFFFFFFFFFFFFFFFFFFFFFFFFFFFFFFF AND DUP2 JUMP JUMPDEST PUSH1 0x2 PUSH1 0x20 MSTORE DUP1 PUSH1 0x0 MSTORE PUSH1 0x40 PUSH1 0x0 KECCAK256 PUSH1 0x0 SWAP2 POP SWAP1 POP SLOAD DUP2 JUMP JUMPDEST CALLER PUSH20 0xFFFFFFFFFFFFFFFFFFFFFFFFFFFFFFFFFFFFFFFF AND PUSH1 0x0 DUP1 SLOAD SWAP1 PUSH2 0x100 EXP SWAP1 DIV PUSH20 0xFFFFFFFFFFFFFFFFFFFFFFFFFFFFFFFFFFFFFFFF AND PUSH20 0xFFFFFFFFFFFFFFFFFFFFFFFFFFFFFFFFFFFFFFFF AND EQ PUSH2 0x7AD JUMPI PUSH1 0x40 MLOAD PUSH32 0x8C379A000000000000000000000000000000000000000000000000000000000 DUP2 MSTORE PUSH1 0x4 ADD PUSH2 0x7A4 SWAP1 PUSH2 0x1141 JUMP JUMPDEST PUSH1 0x40 MLOAD DUP1 SWAP2 SUB SWAP1 REVERT JUMPDEST PUSH1 0x3 DUP3 DUP2 SLOAD DUP2 LT PUSH2 0x7C1 JUMPI PUSH2 0x7C0 PUSH2 0x14E0 JUMP JUMPDEST JUMPDEST SWAP1 PUSH1 0x0 MSTORE PUSH1 0x20 PUSH1 0x0 KECCAK256 SWAP1 PUSH1 0x2 MUL ADD PUSH1 0x1 ADD PUSH1 0x0 SWAP1 SLOAD SWAP1 PUSH2 0x100 EXP SWAP1 DIV PUSH1 0xFF AND PUSH2 0x81F JUMPI PUSH1 0x40 MLOAD PUSH32 0x8C379A000000000000000000000000000000000000000000000000000000000 DUP2 MSTORE PUSH1 0x4 ADD PUSH2 0x816 SWAP1 PUSH2 0x1101 JUMP JUMPDEST PUSH1 0x40 MLOAD DUP1 SWAP2 SUB SWAP1 REVERT JUMPDEST PUSH1 0x0 PUSH1 0x2 PUSH1 0x0 DUP5 DUP2 MSTORE PUSH1 0x20 ADD SWAP1 DUP2 MSTORE PUSH1 0x20 ADD PUSH1 0x0 KECCAK256 SLOAD SWAP1 POP DUP2 PUSH1 0x2 PUSH1 0x0 DUP6 DUP2 MSTORE PUSH1 0x20 ADD SWAP1 DUP2 MSTORE PUSH1 0x20 ADD PUSH1 0x0 KECCAK256 DUP2 SWAP1 SSTORE POP PUSH32 0x367B4674C3F33D01759ACCEC115296AA4040B06AA011F14B813546486C85AE30 DUP4 DUP3 DUP5 PUSH1 0x40 MLOAD PUSH2 0x882 SWAP4 SWAP3 SWAP2 SWAP1 PUSH2 0x11D3 JUMP JUMPDEST PUSH1 0x40 MLOAD DUP1 SWAP2 SUB SWAP1 LOG1 POP POP POP JUMP JUMPDEST PUSH1 0x1 PUSH1 0x0 DUP3 DUP2 MSTORE PUSH1 0x20 ADD SWAP1 DUP2 MSTORE PUSH1 0x20 ADD PUSH1 0x0 KECCAK256 PUSH1 0x0 CALLER PUSH20 0xFFFFFFFFFFFFFFFFFFFFFFFFFFFFFFFFFFFFFFFF AND PUSH20 0xFFFFFFFFFFFFFFFFFFFFFFFFFFFFFFFFFFFFFFFF AND DUP2 MSTORE PUSH1 0x20 ADD SWAP1 DUP2 MSTORE PUSH1 0x20 ADD PUSH1 0x0 KECCAK256 PUSH1 0x0 SWAP1 SLOAD SWAP1 PUSH2 0x100 EXP SWAP1 DIV PUSH1 0xFF AND PUSH2 0x92C JUMPI PUSH1 0x40 MLOAD PUSH32 0x8C379A000000000000000000000000000000000000000000000000000000000 DUP2 MSTORE PUSH1 0x4 ADD PUSH2 0x923 SWAP1 PUSH2 0x10E1 JUMP JUMPDEST PUSH1 0x40 MLOAD DUP1 SWAP2 SUB SWAP1 REVERT JUMPDEST PUSH1 0x0 PUSH1 0x1 PUSH1 0x0 DUP4 DUP2 MSTORE PUSH1 0x20 ADD SWAP1 DUP2 MSTORE PUSH1 0x20 ADD PUSH1 0x0 KECCAK256 PUSH1 0x0 CALLER PUSH20 0xFFFFFFFFFFFFFFFFFFFFFFFFFFFFFFFFFFFFFFFF AND PUSH20 0xFFFFFFFFFFFFFFFFFFFFFFFFFFFFFFFFFFFFFFFF AND DUP2 MSTORE PUSH1 0x20 ADD SWAP1 DUP2 MSTORE PUSH1 0x20 ADD PUSH1 0x0 KECCAK256 PUSH1 0x0 PUSH2 0x100 EXP DUP2 SLOAD DUP2 PUSH1 0xFF MUL NOT AND SWAP1 DUP4 ISZERO ISZERO MUL OR SWAP1 SSTORE POP PUSH1 0x2 PUSH1 0x0 DUP3 DUP2 MSTORE PUSH1 0x20 ADD SWAP1 DUP2 MSTORE PUSH1 0x20 ADD PUSH1 0x0 KECCAK256 PUSH1 0x0 DUP2 SLOAD DUP1 SWAP3 SWAP2 SWAP1 PUSH2 0x9B9 SWAP1 PUSH2 0x1439 JUMP JUMPDEST SWAP2 SWAP1 POP SSTORE POP PUSH32 0x204314827ED2D8C0AD779DA943BA655FBFDD6931EC0845EC1932105BA231DC94 DUP2 CALLER PUSH1 0x2 PUSH1 0x0 DUP6 DUP2 MSTORE PUSH1 0x20 ADD SWAP1 DUP2 MSTORE PUSH1 0x20 ADD PUSH1 0x0 KECCAK256 SLOAD PUSH1 0x40 MLOAD PUSH2 0xA04 SWAP4 SWAP3 SWAP2 SWAP1 PUSH2 0x119C JUMP JUMPDEST PUSH1 0x40 MLOAD DUP1 SWAP2 SUB SWAP1 LOG1 POP JUMP JUMPDEST PUSH1 0x60 PUSH1 0x0 DUP1 JUMPDEST PUSH1 0x3 DUP1 SLOAD SWAP1 POP DUP2 LT ISZERO PUSH2 0xA60 JUMPI PUSH1 0x0 PUSH1 0x2 PUSH1 0x0 DUP4 DUP2 MSTORE PUSH1 0x20 ADD SWAP1 DUP2 MSTORE PUSH1 0x20 ADD PUSH1 0x0 KECCAK256 SLOAD GT ISZERO PUSH2 0xA4D JUMPI DUP2 DUP1 PUSH2 0xA49 SWAP1 PUSH2 0x1439 JUMP JUMPDEST SWAP3 POP POP JUMPDEST DUP1 DUP1 PUSH2 0xA58 SWAP1 PUSH2 0x1439 JUMP JUMPDEST SWAP2 POP POP PUSH2 0xA15 JUMP JUMPDEST POP PUSH1 0x0 DUP2 PUSH8 0xFFFFFFFFFFFFFFFF DUP2 GT ISZERO PUSH2 0xA7D JUMPI PUSH2 0xA7C PUSH2 0x150F JUMP JUMPDEST JUMPDEST PUSH1 0x40 MLOAD SWAP1 DUP1 DUP3 MSTORE DUP1 PUSH1 0x20 MUL PUSH1 0x20 ADD DUP3 ADD PUSH1 0x40 MSTORE DUP1 ISZERO PUSH2 0xAB6 JUMPI DUP2 PUSH1 0x20 ADD JUMPDEST PUSH2 0xAA3 PUSH2 0xC7F JUMP JUMPDEST DUP2 MSTORE PUSH1 0x20 ADD SWAP1 PUSH1 0x1 SWAP1 SUB SWAP1 DUP2 PUSH2 0xA9B JUMPI SWAP1 POP JUMPDEST POP SWAP1 POP PUSH1 0x0 DUP1 JUMPDEST PUSH1 0x3 DUP1 SLOAD SWAP1 POP DUP2 LT ISZERO PUSH2 0xB4E JUMPI PUSH1 0x0 PUSH1 0x2 PUSH1 0x0 DUP4 DUP2 MSTORE PUSH1 0x20 ADD SWAP1 DUP2 MSTORE PUSH1 0x20 ADD PUSH1 0x0 KECCAK256 SLOAD GT ISZERO PUSH2 0xB3B JUMPI PUSH1 0x40 MLOAD DUP1 PUSH1 0x40 ADD PUSH1 0x40 MSTORE DUP1 DUP3 DUP2 MSTORE PUSH1 0x20 ADD PUSH1 0x2 PUSH1 0x0 DUP5 DUP2 MSTORE PUSH1 0x20 ADD SWAP1 DUP2 MSTORE PUSH1 0x20 ADD PUSH1 0x0 KECCAK256 SLOAD DUP2 MSTORE POP DUP4 DUP4 DUP2 MLOAD DUP2 LT PUSH2 0xB21 JUMPI PUSH2 0xB20 PUSH2 0x14E0 JUMP JUMPDEST JUMPDEST PUSH1 0x20 MUL PUSH1 0x20 ADD ADD DUP2 SWAP1 MSTORE POP DUP2 DUP1 PUSH2 0xB37 SWAP1 PUSH2 0x1439 JUMP JUMPDEST SWAP3 POP POP JUMPDEST DUP1 DUP1 PUSH2 0xB46 SWAP1 PUSH2 0x1439 JUMP JUMPDEST SWAP2 POP POP PUSH2 0xABD JUMP JUMPDEST POP DUP2 SWAP4 POP POP POP POP SWAP1 JUMP JUMPDEST PUSH1 0x60 PUSH1 0x4 PUSH1 0x0 DUP4 DUP2 MSTORE PUSH1 0x20 ADD SWAP1 DUP2 MSTORE PUSH1 0x20 ADD PUSH1 0x0 KECCAK256 DUP1 SLOAD DUP1 PUSH1 0x20 MUL PUSH1 0x20 ADD PUSH1 0x40 MLOAD SWAP1 DUP2 ADD PUSH1 0x40 MSTORE DUP1 SWAP3 SWAP2 SWAP1 DUP2 DUP2 MSTORE PUSH1 0x20 ADD DUP3 DUP1 SLOAD DUP1 ISZERO PUSH2 0xBED JUMPI PUSH1 0x20 MUL DUP3 ADD SWAP2 SWAP1 PUSH1 0x0 MSTORE PUSH1 0x20 PUSH1 0x0 KECCAK256 SWAP1 JUMPDEST DUP2 PUSH1 0x0 SWAP1 SLOAD SWAP1 PUSH2 0x100 EXP SWAP1 DIV PUSH20 0xFFFFFFFFFFFFFFFFFFFFFFFFFFFFFFFFFFFFFFFF AND PUSH20 0xFFFFFFFFFFFFFFFFFFFFFFFFFFFFFFFFFFFFFFFF AND DUP2 MSTORE PUSH1 0x20 ADD SWAP1 PUSH1 0x1 ADD SWAP1 DUP1 DUP4 GT PUSH2 0xBA3 JUMPI JUMPDEST POP POP POP POP POP SWAP1 POP SWAP2 SWAP1 POP JUMP JUMPDEST DUP3 DUP1 SLOAD PUSH2 0xC05 SWAP1 PUSH2 0x13D6 JUMP JUMPDEST SWAP1 PUSH1 0x0 MSTORE PUSH1 0x20 PUSH1 0x0 KECCAK256 SWAP1 PUSH1 0x1F ADD PUSH1 0x20 SWAP1 DIV DUP2 ADD SWAP3 DUP3 PUSH2 0xC27 JUMPI PUSH1 0x0 DUP6 SSTORE PUSH2 0xC6E JUMP JUMPDEST DUP3 PUSH1 0x1F LT PUSH2 0xC40 JUMPI DUP1 MLOAD PUSH1 0xFF NOT AND DUP4 DUP1 ADD OR DUP6 SSTORE PUSH2 0xC6E JUMP JUMPDEST DUP3 DUP1 ADD PUSH1 0x1 ADD DUP6 SSTORE DUP3 ISZERO PUSH2 0xC6E JUMPI SWAP2 DUP3 ADD JUMPDEST DUP3 DUP2 GT ISZERO PUSH2 0xC6D JUMPI DUP3 MLOAD DUP3 SSTORE SWAP2 PUSH1 0x20 ADD SWAP2 SWAP1 PUSH1 0x1 ADD SWAP1 PUSH2 0xC52 JUMP JUMPDEST JUMPDEST POP SWAP1 POP PUSH2 0xC7B SWAP2 SWAP1 PUSH2 0xC99 JUMP JUMPDEST POP SWAP1 JUMP JUMPDEST PUSH1 0x40 MLOAD DUP1 PUSH1 0x40 ADD PUSH1 0x40 MSTORE DUP1 PUSH1 0x0 DUP2 MSTORE PUSH1 0x20 ADD PUSH1 0x0 DUP2 MSTORE POP SWAP1 JUMP JUMPDEST JUMPDEST DUP1 DUP3 GT ISZERO PUSH2 0xCB2 JUMPI PUSH1 0x0 DUP2 PUSH1 0x0 SWAP1 SSTORE POP PUSH1 0x1 ADD PUSH2 0xC9A JUMP JUMPDEST POP SWAP1 JUMP JUMPDEST PUSH1 0x0 PUSH2 0xCC9 PUSH2 0xCC4 DUP5 PUSH2 0x122F JUMP JUMPDEST PUSH2 0x120A JUMP JUMPDEST SWAP1 POP DUP3 DUP2 MSTORE PUSH1 0x20 DUP2 ADD DUP5 DUP5 DUP5 ADD GT ISZERO PUSH2 0xCE5 JUMPI PUSH2 0xCE4 PUSH2 0x1543 JUMP JUMPDEST JUMPDEST PUSH2 0xCF0 DUP5 DUP3 DUP6 PUSH2 0x136A JUMP JUMPDEST POP SWAP4 SWAP3 POP POP POP JUMP JUMPDEST PUSH1 0x0 DUP3 PUSH1 0x1F DUP4 ADD SLT PUSH2 0xD0D JUMPI PUSH2 0xD0C PUSH2 0x153E JUMP JUMPDEST JUMPDEST DUP2 CALLDATALOAD PUSH2 0xD1D DUP5 DUP3 PUSH1 0x20 DUP7 ADD PUSH2 0xCB6 JUMP JUMPDEST SWAP2 POP POP SWAP3 SWAP2 POP POP JUMP JUMPDEST PUSH1 0x0 DUP2 CALLDATALOAD SWAP1 POP PUSH2 0xD35 DUP2 PUSH2 0x1630 JUMP JUMPDEST SWAP3 SWAP2 POP POP JUMP JUMPDEST PUSH1 0x0 DUP1 PUSH1 0x40 DUP4 DUP6 SUB SLT ISZERO PUSH2 0xD52 JUMPI PUSH2 0xD51 PUSH2 0x154D JUMP JUMPDEST JUMPDEST PUSH1 0x0 DUP4 ADD CALLDATALOAD PUSH8 0xFFFFFFFFFFFFFFFF DUP2 GT ISZERO PUSH2 0xD70 JUMPI PUSH2 0xD6F PUSH2 0x1548 JUMP JUMPDEST JUMPDEST PUSH2 0xD7C DUP6 DUP3 DUP7 ADD PUSH2 0xCF8 JUMP JUMPDEST SWAP3 POP POP PUSH1 0x20 PUSH2 0xD8D DUP6 DUP3 DUP7 ADD PUSH2 0xD26 JUMP JUMPDEST SWAP2 POP POP SWAP3 POP SWAP3 SWAP1 POP JUMP JUMPDEST PUSH1 0x0 PUSH1 0x20 DUP3 DUP5 SUB SLT ISZERO PUSH2 0xDAD JUMPI PUSH2 0xDAC PUSH2 0x154D JUMP JUMPDEST JUMPDEST PUSH1 0x0 PUSH2 0xDBB DUP5 DUP3 DUP6 ADD PUSH2 0xD26 JUMP JUMPDEST SWAP2 POP POP SWAP3 SWAP2 POP POP JUMP JUMPDEST PUSH1 0x0 DUP1 PUSH1 0x40 DUP4 DUP6 SUB SLT ISZERO PUSH2 0xDDB JUMPI PUSH2 0xDDA PUSH2 0x154D JUMP JUMPDEST JUMPDEST PUSH1 0x0 PUSH2 0xDE9 DUP6 DUP3 DUP7 ADD PUSH2 0xD26 JUMP JUMPDEST SWAP3 POP POP PUSH1 0x20 PUSH2 0xDFA DUP6 DUP3 DUP7 ADD PUSH2 0xD26 JUMP JUMPDEST SWAP2 POP POP SWAP3 POP SWAP3 SWAP1 POP JUMP JUMPDEST PUSH1 0x0 PUSH2 0xE10 DUP4 DUP4 PUSH2 0xE34 JUMP JUMPDEST PUSH1 0x20 DUP4 ADD SWAP1 POP SWAP3 SWAP2 POP POP JUMP JUMPDEST PUSH1 0x0 PUSH2 0xE28 DUP4 DUP4 PUSH2 0x1005 JUMP JUMPDEST PUSH1 0x40 DUP4 ADD SWAP1 POP SWAP3 SWAP2 POP POP JUMP JUMPDEST PUSH2 0xE3D DUP2 PUSH2 0x1322 JUMP JUMPDEST DUP3 MSTORE POP POP JUMP JUMPDEST PUSH2 0xE4C DUP2 PUSH2 0x1322 JUMP JUMPDEST DUP3 MSTORE POP POP JUMP JUMPDEST PUSH1 0x0 PUSH2 0xE5D DUP3 PUSH2 0x1280 JUMP JUMPDEST PUSH2 0xE67 DUP2 DUP6 PUSH2 0x12BB JUMP JUMPDEST SWAP4 POP PUSH2 0xE72 DUP4 PUSH2 0x1260 JUMP JUMPDEST DUP1 PUSH1 0x0 JUMPDEST DUP4 DUP2 LT ISZERO PUSH2 0xEA3 JUMPI DUP2 MLOAD PUSH2 0xE8A DUP9 DUP3 PUSH2 0xE04 JUMP JUMPDEST SWAP8 POP PUSH2 0xE95 DUP4 PUSH2 0x12A1 JUMP JUMPDEST SWAP3 POP POP PUSH1 0x1 DUP2 ADD SWAP1 POP PUSH2 0xE76 JUMP JUMPDEST POP DUP6 SWAP4 POP POP POP POP SWAP3 SWAP2 POP POP JUMP JUMPDEST PUSH1 0x0 PUSH2 0xEBB DUP3 PUSH2 0x128B JUMP JUMPDEST PUSH2 0xEC5 DUP2 DUP6 PUSH2 0x12CC JUMP JUMPDEST SWAP4 POP PUSH2 0xED0 DUP4 PUSH2 0x1270 JUMP JUMPDEST DUP1 PUSH1 0x0 JUMPDEST DUP4 DUP2 LT ISZERO PUSH2 0xF01 JUMPI DUP2 MLOAD PUSH2 0xEE8 DUP9 DUP3 PUSH2 0xE1C JUMP JUMPDEST SWAP8 POP PUSH2 0xEF3 DUP4 PUSH2 0x12AE JUMP JUMPDEST SWAP3 POP POP PUSH1 0x1 DUP2 ADD SWAP1 POP PUSH2 0xED4 JUMP JUMPDEST POP DUP6 SWAP4 POP POP POP POP SWAP3 SWAP2 POP POP JUMP JUMPDEST PUSH2 0xF17 DUP2 PUSH2 0x1334 JUMP JUMPDEST DUP3 MSTORE POP POP JUMP JUMPDEST PUSH1 0x0 PUSH2 0xF28 DUP3 PUSH2 0x1296 JUMP JUMPDEST PUSH2 0xF32 DUP2 DUP6 PUSH2 0x12DD JUMP JUMPDEST SWAP4 POP PUSH2 0xF42 DUP2 DUP6 PUSH1 0x20 DUP7 ADD PUSH2 0x1379 JUMP JUMPDEST PUSH2 0xF4B DUP2 PUSH2 0x1552 JUMP JUMPDEST DUP5 ADD SWAP2 POP POP SWAP3 SWAP2 POP POP JUMP JUMPDEST PUSH1 0x0 PUSH2 0xF63 PUSH1 0x1F DUP4 PUSH2 0x12DD JUMP JUMPDEST SWAP2 POP PUSH2 0xF6E DUP3 PUSH2 0x1563 JUMP JUMPDEST PUSH1 0x20 DUP3 ADD SWAP1 POP SWAP2 SWAP1 POP JUMP JUMPDEST PUSH1 0x0 PUSH2 0xF86 PUSH1 0x13 DUP4 PUSH2 0x12DD JUMP JUMPDEST SWAP2 POP PUSH2 0xF91 DUP3 PUSH2 0x158C JUMP JUMPDEST PUSH1 0x20 DUP3 ADD SWAP1 POP SWAP2 SWAP1 POP JUMP JUMPDEST PUSH1 0x0 PUSH2 0xFA9 PUSH1 0x18 DUP4 PUSH2 0x12DD JUMP JUMPDEST SWAP2 POP PUSH2 0xFB4 DUP3 PUSH2 0x15B5 JUMP JUMPDEST PUSH1 0x20 DUP3 ADD SWAP1 POP SWAP2 SWAP1 POP JUMP JUMPDEST PUSH1 0x0 PUSH2 0xFCC PUSH1 0x18 DUP4 PUSH2 0x12DD JUMP JUMPDEST SWAP2 POP PUSH2 0xFD7 DUP3 PUSH2 0x15DE JUMP JUMPDEST PUSH1 0x20 DUP3 ADD SWAP1 POP SWAP2 SWAP1 POP JUMP JUMPDEST PUSH1 0x0 PUSH2 0xFEF PUSH1 0x1F DUP4 PUSH2 0x12DD JUMP JUMPDEST SWAP2 POP PUSH2 0xFFA DUP3 PUSH2 0x1607 JUMP JUMPDEST PUSH1 0x20 DUP3 ADD SWAP1 POP SWAP2 SWAP1 POP JUMP JUMPDEST PUSH1 0x40 DUP3 ADD PUSH1 0x0 DUP3 ADD MLOAD PUSH2 0x101B PUSH1 0x0 DUP6 ADD DUP3 PUSH2 0x1034 JUMP JUMPDEST POP PUSH1 0x20 DUP3 ADD MLOAD PUSH2 0x102E PUSH1 0x20 DUP6 ADD DUP3 PUSH2 0x1034 JUMP JUMPDEST POP POP POP POP JUMP JUMPDEST PUSH2 0x103D DUP2 PUSH2 0x1360 JUMP JUMPDEST DUP3 MSTORE POP POP JUMP JUMPDEST PUSH2 0x104C DUP2 PUSH2 0x1360 JUMP JUMPDEST DUP3 MSTORE POP POP JUMP JUMPDEST PUSH1 0x0 PUSH1 0x20 DUP3 ADD SWAP1 POP PUSH2 0x1067 PUSH1 0x0 DUP4 ADD DUP5 PUSH2 0xE43 JUMP JUMPDEST SWAP3 SWAP2 POP POP JUMP JUMPDEST PUSH1 0x0 PUSH1 0x20 DUP3 ADD SWAP1 POP DUP2 DUP2 SUB PUSH1 0x0 DUP4 ADD MSTORE PUSH2 0x1087 DUP2 DUP5 PUSH2 0xE52 JUMP JUMPDEST SWAP1 POP SWAP3 SWAP2 POP POP JUMP JUMPDEST PUSH1 0x0 PUSH1 0x20 DUP3 ADD SWAP1 POP DUP2 DUP2 SUB PUSH1 0x0 DUP4 ADD MSTORE PUSH2 0x10A9 DUP2 DUP5 PUSH2 0xEB0 JUMP JUMPDEST SWAP1 POP SWAP3 SWAP2 POP POP JUMP JUMPDEST PUSH1 0x0 PUSH1 0x40 DUP3 ADD SWAP1 POP DUP2 DUP2 SUB PUSH1 0x0 DUP4 ADD MSTORE PUSH2 0x10CB DUP2 DUP6 PUSH2 0xF1D JUMP JUMPDEST SWAP1 POP PUSH2 0x10DA PUSH1 0x20 DUP4 ADD DUP5 PUSH2 0xF0E JUMP JUMPDEST SWAP4 SWAP3 POP POP POP JUMP JUMPDEST PUSH1 0x0 PUSH1 0x20 DUP3 ADD SWAP1 POP DUP2 DUP2 SUB PUSH1 0x0 DUP4 ADD MSTORE PUSH2 0x10FA DUP2 PUSH2 0xF56 JUMP JUMPDEST SWAP1 POP SWAP2 SWAP1 POP JUMP JUMPDEST PUSH1 0x0 PUSH1 0x20 DUP3 ADD SWAP1 POP DUP2 DUP2 SUB PUSH1 0x0 DUP4 ADD MSTORE PUSH2 0x111A DUP2 PUSH2 0xF79 JUMP JUMPDEST SWAP1 POP SWAP2 SWAP1 POP JUMP JUMPDEST PUSH1 0x0 PUSH1 0x20 DUP3 ADD SWAP1 POP DUP2 DUP2 SUB PUSH1 0x0 DUP4 ADD MSTORE PUSH2 0x113A DUP2 PUSH2 0xF9C JUMP JUMPDEST SWAP1 POP SWAP2 SWAP1 POP JUMP JUMPDEST PUSH1 0x0 PUSH1 0x20 DUP3 ADD SWAP1 POP DUP2 DUP2 SUB PUSH1 0x0 DUP4 ADD MSTORE PUSH2 0x115A DUP2 PUSH2 0xFBF JUMP JUMPDEST SWAP1 POP SWAP2 SWAP1 POP JUMP JUMPDEST PUSH1 0x0 PUSH1 0x20 DUP3 ADD SWAP1 POP DUP2 DUP2 SUB PUSH1 0x0 DUP4 ADD MSTORE PUSH2 0x117A DUP2 PUSH2 0xFE2 JUMP JUMPDEST SWAP1 POP SWAP2 SWAP1 POP JUMP JUMPDEST PUSH1 0x0 PUSH1 0x20 DUP3 ADD SWAP1 POP PUSH2 0x1196 PUSH1 0x0 DUP4 ADD DUP5 PUSH2 0x1043 JUMP JUMPDEST SWAP3 SWAP2 POP POP JUMP JUMPDEST PUSH1 0x0 PUSH1 0x60 DUP3 ADD SWAP1 POP PUSH2 0x11B1 PUSH1 0x0 DUP4 ADD DUP7 PUSH2 0x1043 JUMP JUMPDEST PUSH2 0x11BE PUSH1 0x20 DUP4 ADD DUP6 PUSH2 0xE43 JUMP JUMPDEST PUSH2 0x11CB PUSH1 0x40 DUP4 ADD DUP5 PUSH2 0x1043 JUMP JUMPDEST SWAP5 SWAP4 POP POP POP POP JUMP JUMPDEST PUSH1 0x0 PUSH1 0x60 DUP3 ADD SWAP1 POP PUSH2 0x11E8 PUSH1 0x0 DUP4 ADD DUP7 PUSH2 0x1043 JUMP JUMPDEST PUSH2 0x11F5 PUSH1 0x20 DUP4 ADD DUP6 PUSH2 0x1043 JUMP JUMPDEST PUSH2 0x1202 PUSH1 0x40 DUP4 ADD DUP5 PUSH2 0x1043 JUMP JUMPDEST SWAP5 SWAP4 POP POP POP POP JUMP JUMPDEST PUSH1 0x0 PUSH2 0x1214 PUSH2 0x1225 JUMP JUMPDEST SWAP1 POP PUSH2 0x1220 DUP3 DUP3 PUSH2 0x1408 JUMP JUMPDEST SWAP2 SWAP1 POP JUMP JUMPDEST PUSH1 0x0 PUSH1 0x40 MLOAD SWAP1 POP SWAP1 JUMP JUMPDEST PUSH1 0x0 PUSH8 0xFFFFFFFFFFFFFFFF DUP3 GT ISZERO PUSH2 0x124A JUMPI PUSH2 0x1249 PUSH2 0x150F JUMP JUMPDEST JUMPDEST PUSH2 0x1253 DUP3 PUSH2 0x1552 JUMP JUMPDEST SWAP1 POP PUSH1 0x20 DUP2 ADD SWAP1 POP SWAP2 SWAP1 POP JUMP JUMPDEST PUSH1 0x0 DUP2 SWAP1 POP PUSH1 0x20 DUP3 ADD SWAP1 POP SWAP2 SWAP1 POP JUMP JUMPDEST PUSH1 0x0 DUP2 SWAP1 POP PUSH1 0x20 DUP3 ADD SWAP1 POP SWAP2 SWAP1 POP JUMP JUMPDEST PUSH1 0x0 DUP2 MLOAD SWAP1 POP SWAP2 SWAP1 POP JUMP JUMPDEST PUSH1 0x0 DUP2 MLOAD SWAP1 POP SWAP2 SWAP1 POP JUMP JUMPDEST PUSH1 0x0 DUP2 MLOAD SWAP1 POP SWAP2 SWAP1 POP JUMP JUMPDEST PUSH1 0x0 PUSH1 0x20 DUP3 ADD SWAP1 POP SWAP2 SWAP1 POP JUMP JUMPDEST PUSH1 0x0 PUSH1 0x20 DUP3 ADD SWAP1 POP SWAP2 SWAP1 POP JUMP JUMPDEST PUSH1 0x0 DUP3 DUP3 MSTORE PUSH1 0x20 DUP3 ADD SWAP1 POP SWAP3 SWAP2 POP POP JUMP JUMPDEST PUSH1 0x0 DUP3 DUP3 MSTORE PUSH1 0x20 DUP3 ADD SWAP1 POP SWAP3 SWAP2 POP POP JUMP JUMPDEST PUSH1 0x0 DUP3 DUP3 MSTORE PUSH1 0x20 DUP3 ADD SWAP1 POP SWAP3 SWAP2 POP POP JUMP JUMPDEST PUSH1 0x0 PUSH2 0x12F9 DUP3 PUSH2 0x1360 JUMP JUMPDEST SWAP2 POP PUSH2 0x1304 DUP4 PUSH2 0x1360 JUMP JUMPDEST SWAP3 POP DUP3 DUP3 LT ISZERO PUSH2 0x1317 JUMPI PUSH2 0x1316 PUSH2 0x1482 JUMP JUMPDEST JUMPDEST DUP3 DUP3 SUB SWAP1 POP SWAP3 SWAP2 POP POP JUMP JUMPDEST PUSH1 0x0 PUSH2 0x132D DUP3 PUSH2 0x1340 JUMP JUMPDEST SWAP1 POP SWAP2 SWAP1 POP JUMP JUMPDEST PUSH1 0x0 DUP2 ISZERO ISZERO SWAP1 POP SWAP2 SWAP1 POP JUMP JUMPDEST PUSH1 0x0 PUSH20 0xFFFFFFFFFFFFFFFFFFFFFFFFFFFFFFFFFFFFFFFF DUP3 AND SWAP1 POP SWAP2 SWAP1 POP JUMP JUMPDEST PUSH1 0x0 DUP2 SWAP1 POP SWAP2 SWAP1 POP JUMP JUMPDEST DUP3 DUP2 DUP4 CALLDATACOPY PUSH1 0x0 DUP4 DUP4 ADD MSTORE POP POP POP JUMP JUMPDEST PUSH1 0x0 JUMPDEST DUP4 DUP2 LT ISZERO PUSH2 0x1397 JUMPI DUP1 DUP3 ADD MLOAD DUP2 DUP5 ADD MSTORE PUSH1 0x20 DUP2 ADD SWAP1 POP PUSH2 0x137C JUMP JUMPDEST DUP4 DUP2 GT ISZERO PUSH2 0x13A6 JUMPI PUSH1 0x0 DUP5 DUP5 ADD MSTORE JUMPDEST POP POP POP POP JUMP JUMPDEST PUSH1 0x0 PUSH2 0x13B7 DUP3 PUSH2 0x1360 JUMP JUMPDEST SWAP2 POP PUSH1 0x0 DUP3 EQ ISZERO PUSH2 0x13CB JUMPI PUSH2 0x13CA PUSH2 0x1482 JUMP JUMPDEST JUMPDEST PUSH1 0x1 DUP3 SUB SWAP1 POP SWAP2 SWAP1 POP JUMP JUMPDEST PUSH1 0x0 PUSH1 0x2 DUP3 DIV SWAP1 POP PUSH1 0x1 DUP3 AND DUP1 PUSH2 0x13EE JUMPI PUSH1 0x7F DUP3 AND SWAP2 POP JUMPDEST PUSH1 0x20 DUP3 LT DUP2 EQ ISZERO PUSH2 0x1402 JUMPI PUSH2 0x1401 PUSH2 0x14B1 JUMP JUMPDEST JUMPDEST POP SWAP2 SWAP1 POP JUMP JUMPDEST PUSH2 0x1411 DUP3 PUSH2 0x1552 JUMP JUMPDEST DUP2 ADD DUP2 DUP2 LT PUSH8 0xFFFFFFFFFFFFFFFF DUP3 GT OR ISZERO PUSH2 0x1430 JUMPI PUSH2 0x142F PUSH2 0x150F JUMP JUMPDEST JUMPDEST DUP1 PUSH1 0x40 MSTORE POP POP POP JUMP JUMPDEST PUSH1 0x0 PUSH2 0x1444 DUP3 PUSH2 0x1360 JUMP JUMPDEST SWAP2 POP PUSH32 0xFFFFFFFFFFFFFFFFFFFFFFFFFFFFFFFFFFFFFFFFFFFFFFFFFFFFFFFFFFFFFFFF DUP3 EQ ISZERO PUSH2 0x1477 JUMPI PUSH2 0x1476 PUSH2 0x1482 JUMP JUMPDEST JUMPDEST PUSH1 0x1 DUP3 ADD SWAP1 POP SWAP2 SWAP1 POP JUMP JUMPDEST PUSH32 0x4E487B7100000000000000000000000000000000000000000000000000000000 PUSH1 0x0 MSTORE PUSH1 0x11 PUSH1 0x4 MSTORE PUSH1 0x24 PUSH1 0x0 REVERT JUMPDEST PUSH32 0x4E487B7100000000000000000000000000000000000000000000000000000000 PUSH1 0x0 MSTORE PUSH1 0x22 PUSH1 0x4 MSTORE PUSH1 0x24 PUSH1 0x0 REVERT JUMPDEST PUSH32 0x4E487B7100000000000000000000000000000000000000000000000000000000 PUSH1 0x0 MSTORE PUSH1 0x32 PUSH1 0x4 MSTORE PUSH1 0x24 PUSH1 0x0 REVERT JUMPDEST PUSH32 0x4E487B7100000000000000000000000000000000000000000000000000000000 PUSH1 0x0 MSTORE PUSH1 0x41 PUSH1 0x4 MSTORE PUSH1 0x24 PUSH1 0x0 REVERT JUMPDEST PUSH1 0x0 DUP1 REVERT JUMPDEST PUSH1 0x0 DUP1 REVERT JUMPDEST PUSH1 0x0 DUP1 REVERT JUMPDEST PUSH1 0x0 DUP1 REVERT JUMPDEST PUSH1 0x0 PUSH1 0x1F NOT PUSH1 0x1F DUP4 ADD AND SWAP1 POP SWAP2 SWAP1 POP JUMP JUMPDEST PUSH32 0x5573657220686173206E6F7420626F72726F776564207468697320626F6F6B00 PUSH1 0x0 DUP3 ADD MSTORE POP JUMP JUMPDEST PUSH32 0x426F6F6B206E6F7420696E206C69627261727900000000000000000000000000 PUSH1 0x0 DUP3 ADD MSTORE POP JUMP JUMPDEST PUSH32 0x4E6F20626F6F6B20636F7069657320617661696C61626C650000000000000000 PUSH1 0x0 DUP3 ADD MSTORE POP JUMP JUMPDEST PUSH32 0x4E6F7420696E766F6B656420627920746865206F776E65720000000000000000 PUSH1 0x0 DUP3 ADD MSTORE POP JUMP JUMPDEST PUSH32 0x5573657220616C726561647920626F72726F776564207468697320626F6F6B00 PUSH1 0x0 DUP3 ADD MSTORE POP JUMP JUMPDEST PUSH2 0x1639 DUP2 PUSH2 0x1360 JUMP JUMPDEST DUP2 EQ PUSH2 0x1644 JUMPI PUSH1 0x0 DUP1 REVERT JUMPDEST POP JUMP INVALID LOG2 PUSH5 0x6970667358 0x22 SLT KECCAK256 PUSH26 0x22B5B5BE20F597DB5C47CB561A04AF7CA1A9FB0017016A782002 SWAP15 ISZERO SMOD 0xBD SWAP6 PUSH5 0x736F6C6343 STOP ADDMOD SMOD STOP CALLER "
				},
				"gasEstimates": {
					"creation": {
						"codeDepositCost": "1151400",
						"executionCost": "25460",
						"totalCost": "1176860"
					},
					"external": {
						"addBook(string,uint256)": "infinite",
						"books(uint256)": "infinite",
						"borrowBook(uint256)": "infinite",
						"borrowHistory(uint256,uint256)": "infinite",
						"getAvailableBooks()": "infinite",
						"getBorrowHistory(uint256)": "infinite",
						"owner()": "2600",
						"returnBook(uint256)": "infinite",
						"setAvailableBookCopies(uint256,uint256)": "infinite",
						"stockAvailable(uint256)": "infinite"
					}
				},
				"methodIdentifiers": {
					"addBook(string,uint256)": "637a3872",
					"books(uint256)": "68744046",
					"borrowBook(uint256)": "7e490a9e",
					"borrowHistory(uint256,uint256)": "42cb7580",
					"getAvailableBooks()": "d6c084d9",
					"getBorrowHistory(uint256)": "e1b4814f",
					"owner()": "8da5cb5b",
					"returnBook(uint256)": "ca5140c9",
					"setAvailableBookCopies(uint256,uint256)": "a78de6e8",
					"stockAvailable(uint256)": "a1e3c28e"
				}
			},
			"storageLayout": {
				"storage": [
					{
						"astId": 340,
						"contract": "contracts/BookLibrary.sol:BookLibrary",
						"label": "owner",
						"offset": 0,
						"slot": "0",
						"type": "t_address"
					},
					{
						"astId": 10,
						"contract": "contracts/BookLibrary.sol:BookLibrary",
						"label": "booksBorrowed",
						"offset": 0,
						"slot": "1",
						"type": "t_mapping(t_uint256,t_mapping(t_address,t_bool))"
					},
					{
						"astId": 14,
						"contract": "contracts/BookLibrary.sol:BookLibrary",
						"label": "stockAvailable",
						"offset": 0,
						"slot": "2",
						"type": "t_mapping(t_uint256,t_uint256)"
					},
					{
						"astId": 18,
						"contract": "contracts/BookLibrary.sol:BookLibrary",
						"label": "books",
						"offset": 0,
						"slot": "3",
						"type": "t_array(t_struct(Book)28_storage)dyn_storage"
					},
					{
						"astId": 23,
						"contract": "contracts/BookLibrary.sol:BookLibrary",
						"label": "borrowHistory",
						"offset": 0,
						"slot": "4",
						"type": "t_mapping(t_uint256,t_array(t_address)dyn_storage)"
					}
				],
				"types": {
					"t_address": {
						"encoding": "inplace",
						"label": "address",
						"numberOfBytes": "20"
					},
					"t_array(t_address)dyn_storage": {
						"base": "t_address",
						"encoding": "dynamic_array",
						"label": "address[]",
						"numberOfBytes": "32"
					},
					"t_array(t_struct(Book)28_storage)dyn_storage": {
						"base": "t_struct(Book)28_storage",
						"encoding": "dynamic_array",
						"label": "struct BookLibrary.Book[]",
						"numberOfBytes": "32"
					},
					"t_bool": {
						"encoding": "inplace",
						"label": "bool",
						"numberOfBytes": "1"
					},
					"t_mapping(t_address,t_bool)": {
						"encoding": "mapping",
						"key": "t_address",
						"label": "mapping(address => bool)",
						"numberOfBytes": "32",
						"value": "t_bool"
					},
					"t_mapping(t_uint256,t_array(t_address)dyn_storage)": {
						"encoding": "mapping",
						"key": "t_uint256",
						"label": "mapping(uint256 => address[])",
						"numberOfBytes": "32",
						"value": "t_array(t_address)dyn_storage"
					},
					"t_mapping(t_uint256,t_mapping(t_address,t_bool))": {
						"encoding": "mapping",
						"key": "t_uint256",
						"label": "mapping(uint256 => mapping(address => bool))",
						"numberOfBytes": "32",
						"value": "t_mapping(t_address,t_bool)"
					},
					"t_mapping(t_uint256,t_uint256)": {
						"encoding": "mapping",
						"key": "t_uint256",
						"label": "mapping(uint256 => uint256)",
						"numberOfBytes": "32",
						"value": "t_uint256"
					},
					"t_string_storage": {
						"encoding": "bytes",
						"label": "string",
						"numberOfBytes": "32"
					},
					"t_struct(Book)28_storage": {
						"encoding": "inplace",
						"label": "struct BookLibrary.Book",
						"members": [
							{
								"astId": 25,
								"contract": "contracts/BookLibrary.sol:BookLibrary",
								"label": "name",
								"offset": 0,
								"slot": "0",
								"type": "t_string_storage"
							},
							{
								"astId": 27,
								"contract": "contracts/BookLibrary.sol:BookLibrary",
								"label": "inLibrary",
								"offset": 0,
								"slot": "1",
								"type": "t_bool"
							}
						],
						"numberOfBytes": "64"
					},
					"t_uint256": {
						"encoding": "inplace",
						"label": "uint256",
						"numberOfBytes": "32"
					}
				}
			},
			"userdoc": {
				"kind": "user",
				"methods": {},
				"version": 1
			}
		}
	}
}